{
  "contractName": "UniDAO",
  "abi": [
    {
      "inputs": [
        {
          "internalType": "address[]",
          "name": "addr",
          "type": "address[]"
        }
      ],
      "stateMutability": "nonpayable",
      "type": "constructor"
    },
    {
      "anonymous": false,
      "inputs": [
        {
          "indexed": true,
          "internalType": "address",
          "name": "initiator",
          "type": "address"
        },
        {
          "indexed": false,
          "internalType": "bytes32",
          "name": "role",
          "type": "bytes32"
        },
        {
          "indexed": false,
          "internalType": "string",
          "name": "message",
          "type": "string"
        }
      ],
      "name": "Action",
      "type": "event"
    },
    {
      "anonymous": false,
      "inputs": [
        {
          "indexed": true,
          "internalType": "bytes32",
          "name": "role",
          "type": "bytes32"
        },
        {
          "indexed": true,
          "internalType": "bytes32",
          "name": "previousAdminRole",
          "type": "bytes32"
        },
        {
          "indexed": true,
          "internalType": "bytes32",
          "name": "newAdminRole",
          "type": "bytes32"
        }
      ],
      "name": "RoleAdminChanged",
      "type": "event"
    },
    {
      "anonymous": false,
      "inputs": [
        {
          "indexed": true,
          "internalType": "bytes32",
          "name": "role",
          "type": "bytes32"
        },
        {
          "indexed": true,
          "internalType": "address",
          "name": "account",
          "type": "address"
        },
        {
          "indexed": true,
          "internalType": "address",
          "name": "sender",
          "type": "address"
        }
      ],
      "name": "RoleGranted",
      "type": "event"
    },
    {
      "anonymous": false,
      "inputs": [
        {
          "indexed": true,
          "internalType": "bytes32",
          "name": "role",
          "type": "bytes32"
        },
        {
          "indexed": true,
          "internalType": "address",
          "name": "account",
          "type": "address"
        },
        {
          "indexed": true,
          "internalType": "address",
          "name": "sender",
          "type": "address"
        }
      ],
      "name": "RoleRevoked",
      "type": "event"
    },
    {
      "inputs": [],
      "name": "DEFAULT_ADMIN_ROLE",
      "outputs": [
        {
          "internalType": "bytes32",
          "name": "",
          "type": "bytes32"
        }
      ],
      "stateMutability": "view",
      "type": "function",
      "constant": true
    },
    {
      "inputs": [],
      "name": "admProposals",
      "outputs": [
        {
          "internalType": "uint256",
          "name": "",
          "type": "uint256"
        }
      ],
      "stateMutability": "view",
      "type": "function",
      "constant": true
    },
    {
      "inputs": [
        {
          "internalType": "bytes32",
          "name": "role",
          "type": "bytes32"
        }
      ],
      "name": "getRoleAdmin",
      "outputs": [
        {
          "internalType": "bytes32",
          "name": "",
          "type": "bytes32"
        }
      ],
      "stateMutability": "view",
      "type": "function",
      "constant": true
    },
    {
      "inputs": [
        {
          "internalType": "bytes32",
          "name": "role",
          "type": "bytes32"
        },
        {
          "internalType": "address",
          "name": "account",
          "type": "address"
        }
      ],
      "name": "grantRole",
      "outputs": [],
      "stateMutability": "nonpayable",
      "type": "function"
    },
    {
      "inputs": [
        {
          "internalType": "bytes32",
          "name": "role",
          "type": "bytes32"
        },
        {
          "internalType": "address",
          "name": "account",
          "type": "address"
        }
      ],
      "name": "hasRole",
      "outputs": [
        {
          "internalType": "bool",
          "name": "",
          "type": "bool"
        }
      ],
      "stateMutability": "view",
      "type": "function",
      "constant": true
    },
    {
      "inputs": [
        {
          "internalType": "bytes32",
          "name": "role",
          "type": "bytes32"
        },
        {
          "internalType": "address",
          "name": "account",
          "type": "address"
        }
      ],
      "name": "renounceRole",
      "outputs": [],
      "stateMutability": "nonpayable",
      "type": "function"
    },
    {
      "inputs": [
        {
          "internalType": "bytes32",
          "name": "role",
          "type": "bytes32"
        },
        {
          "internalType": "address",
          "name": "account",
          "type": "address"
        }
      ],
      "name": "revokeRole",
      "outputs": [],
      "stateMutability": "nonpayable",
      "type": "function"
    },
    {
      "inputs": [
        {
          "internalType": "bytes4",
          "name": "interfaceId",
          "type": "bytes4"
        }
      ],
      "name": "supportsInterface",
      "outputs": [
        {
          "internalType": "bool",
          "name": "",
          "type": "bool"
        }
      ],
      "stateMutability": "view",
      "type": "function",
      "constant": true
    },
    {
      "inputs": [],
      "name": "totalProposal",
      "outputs": [
        {
          "internalType": "uint256",
          "name": "",
          "type": "uint256"
        }
      ],
      "stateMutability": "view",
      "type": "function",
      "constant": true
    },
    {
      "inputs": [
        {
          "internalType": "string",
          "name": "_title",
          "type": "string"
        },
        {
          "internalType": "string",
          "name": "_description",
          "type": "string"
        },
        {
          "internalType": "uint256",
          "name": "_duration",
          "type": "uint256"
        }
      ],
      "name": "createProposal",
      "outputs": [
        {
          "components": [
            {
              "internalType": "uint256",
              "name": "proposalId",
              "type": "uint256"
            },
            {
              "internalType": "string",
              "name": "title",
              "type": "string"
            },
            {
              "internalType": "string",
              "name": "description",
              "type": "string"
            },
            {
              "internalType": "uint256",
              "name": "reactions",
              "type": "uint256"
            },
            {
              "internalType": "address",
              "name": "proposer",
              "type": "address"
            },
            {
              "internalType": "uint256",
              "name": "duration",
              "type": "uint256"
            },
            {
              "internalType": "bool",
              "name": "passed",
              "type": "bool"
            },
            {
              "internalType": "uint256",
              "name": "upvotes",
              "type": "uint256"
            },
            {
              "internalType": "uint256",
              "name": "downvotes",
              "type": "uint256"
            },
            {
              "internalType": "bool",
              "name": "enrol",
              "type": "bool"
            },
            {
              "internalType": "address[]",
              "name": "change",
              "type": "address[]"
            },
            {
              "internalType": "uint256[]",
              "name": "power",
              "type": "uint256[]"
            },
            {
              "internalType": "bool",
              "name": "voter",
              "type": "bool"
            },
            {
              "internalType": "bool",
              "name": "action",
              "type": "bool"
            }
          ],
          "internalType": "struct UniDAO.ProposalStruct",
          "name": "",
          "type": "tuple"
        }
      ],
      "stateMutability": "nonpayable",
      "type": "function"
    },
    {
      "inputs": [
        {
          "internalType": "string",
          "name": "_title",
          "type": "string"
        },
        {
          "internalType": "address[]",
          "name": "addresses",
          "type": "address[]"
        },
        {
          "internalType": "uint256[]",
          "name": "_power",
          "type": "uint256[]"
        },
        {
          "internalType": "bool",
          "name": "_enrol",
          "type": "bool"
        },
        {
          "internalType": "bool",
          "name": "_voter",
          "type": "bool"
        }
      ],
      "name": "createAdminProposal",
      "outputs": [
        {
          "components": [
            {
              "internalType": "uint256",
              "name": "proposalId",
              "type": "uint256"
            },
            {
              "internalType": "string",
              "name": "title",
              "type": "string"
            },
            {
              "internalType": "string",
              "name": "description",
              "type": "string"
            },
            {
              "internalType": "uint256",
              "name": "reactions",
              "type": "uint256"
            },
            {
              "internalType": "address",
              "name": "proposer",
              "type": "address"
            },
            {
              "internalType": "uint256",
              "name": "duration",
              "type": "uint256"
            },
            {
              "internalType": "bool",
              "name": "passed",
              "type": "bool"
            },
            {
              "internalType": "uint256",
              "name": "upvotes",
              "type": "uint256"
            },
            {
              "internalType": "uint256",
              "name": "downvotes",
              "type": "uint256"
            },
            {
              "internalType": "bool",
              "name": "enrol",
              "type": "bool"
            },
            {
              "internalType": "address[]",
              "name": "change",
              "type": "address[]"
            },
            {
              "internalType": "uint256[]",
              "name": "power",
              "type": "uint256[]"
            },
            {
              "internalType": "bool",
              "name": "voter",
              "type": "bool"
            },
            {
              "internalType": "bool",
              "name": "action",
              "type": "bool"
            }
          ],
          "internalType": "struct UniDAO.ProposalStruct",
          "name": "",
          "type": "tuple"
        }
      ],
      "stateMutability": "nonpayable",
      "type": "function"
    },
    {
      "inputs": [
        {
          "internalType": "string",
          "name": "_title",
          "type": "string"
        },
        {
          "internalType": "string",
          "name": "_description",
          "type": "string"
        },
        {
          "internalType": "uint256",
          "name": "_duration",
          "type": "uint256"
        }
      ],
      "name": "createProposal",
      "outputs": [
        {
          "components": [
            {
              "internalType": "uint256",
              "name": "proposalId",
              "type": "uint256"
            },
            {
              "internalType": "string",
              "name": "title",
              "type": "string"
            },
            {
              "internalType": "string",
              "name": "description",
              "type": "string"
            },
            {
              "internalType": "uint256",
              "name": "reactions",
              "type": "uint256"
            },
            {
              "internalType": "address",
              "name": "proposer",
              "type": "address"
            },
            {
              "internalType": "uint256",
              "name": "duration",
              "type": "uint256"
            },
            {
              "internalType": "bool",
              "name": "passed",
              "type": "bool"
            },
            {
              "internalType": "uint256",
              "name": "upvotes",
              "type": "uint256"
            },
            {
              "internalType": "uint256",
              "name": "downvotes",
              "type": "uint256"
            },
            {
              "internalType": "bool",
              "name": "enrol",
              "type": "bool"
            },
            {
              "internalType": "address[]",
              "name": "change",
              "type": "address[]"
            },
            {
              "internalType": "uint256[]",
              "name": "power",
              "type": "uint256[]"
            },
            {
              "internalType": "bool",
              "name": "voter",
              "type": "bool"
            },
            {
              "internalType": "bool",
              "name": "action",
              "type": "bool"
            }
          ],
          "internalType": "struct UniDAO.ProposalStruct",
          "name": "",
          "type": "tuple"
        }
      ],
      "stateMutability": "nonpayable",
      "type": "function"
    },
    {
      "inputs": [
        {
          "internalType": "address[]",
          "name": "addresses",
          "type": "address[]"
        },
        {
          "internalType": "uint256[]",
          "name": "_power",
          "type": "uint256[]"
        }
      ],
      "name": "enrollVoters",
      "outputs": [],
      "stateMutability": "nonpayable",
      "type": "function"
    },
    {
      "inputs": [
        {
          "internalType": "bytes32",
          "name": "role",
          "type": "bytes32"
        },
        {
          "internalType": "address",
          "name": "account",
          "type": "address"
        }
      ],
      "name": "grantRole",
      "outputs": [],
      "stateMutability": "nonpayable",
      "type": "function"
    },
    {
      "inputs": [
        {
          "internalType": "uint256",
          "name": "_proposalId",
          "type": "uint256"
        }
      ],
      "name": "performAction",
      "outputs": [],
      "stateMutability": "nonpayable",
      "type": "function"
    },
    {
      "inputs": [
        {
          "internalType": "uint256",
          "name": "_proposalId",
          "type": "uint256"
        },
        {
          "internalType": "uint256",
          "name": "choosen",
          "type": "uint256"
        }
      ],
      "name": "performAdminVote",
      "outputs": [],
      "stateMutability": "nonpayable",
      "type": "function"
    },
    {
      "inputs": [
        {
          "internalType": "uint256",
          "name": "_proposalId",
          "type": "uint256"
        },
        {
          "internalType": "uint256",
          "name": "choosen",
          "type": "uint256"
        }
      ],
      "name": "performVote",
      "outputs": [],
      "stateMutability": "nonpayable",
      "type": "function"
    },
    {
      "inputs": [
        {
          "internalType": "bytes32",
          "name": "role",
          "type": "bytes32"
        },
        {
          "internalType": "address",
          "name": "account",
          "type": "address"
        }
      ],
      "name": "renounceRole",
      "outputs": [],
      "stateMutability": "nonpayable",
      "type": "function"
    },
    {
      "inputs": [
        {
          "internalType": "bytes32",
          "name": "role",
          "type": "bytes32"
        },
        {
          "internalType": "address",
          "name": "account",
          "type": "address"
        }
      ],
      "name": "revokeRole",
      "outputs": [],
      "stateMutability": "nonpayable",
      "type": "function"
    },
    {
      "anonymous": false,
      "inputs": [
        {
          "indexed": true,
          "internalType": "bytes32",
          "name": "role",
          "type": "bytes32"
        },
        {
          "indexed": true,
          "internalType": "bytes32",
          "name": "previousAdminRole",
          "type": "bytes32"
        },
        {
          "indexed": true,
          "internalType": "bytes32",
          "name": "newAdminRole",
          "type": "bytes32"
        }
      ],
      "name": "RoleAdminChanged",
      "type": "event"
    },
    {
      "anonymous": false,
      "inputs": [
        {
          "indexed": true,
          "internalType": "bytes32",
          "name": "role",
          "type": "bytes32"
        },
        {
          "indexed": true,
          "internalType": "address",
          "name": "account",
          "type": "address"
        },
        {
          "indexed": true,
          "internalType": "address",
          "name": "sender",
          "type": "address"
        }
      ],
      "name": "RoleGranted",
      "type": "event"
    },
    {
      "anonymous": false,
      "inputs": [
        {
          "indexed": true,
          "internalType": "bytes32",
          "name": "role",
          "type": "bytes32"
        },
        {
          "indexed": true,
          "internalType": "address",
          "name": "account",
          "type": "address"
        },
        {
          "indexed": true,
          "internalType": "address",
          "name": "sender",
          "type": "address"
        }
      ],
      "name": "RoleRevoked",
      "type": "event"
    },
    {
      "inputs": [],
      "name": "admProposals",
      "outputs": [
        {
          "internalType": "uint256",
          "name": "",
          "type": "uint256"
        }
      ],
      "stateMutability": "view",
      "type": "function"
    },
    {
      "inputs": [],
      "name": "DEFAULT_ADMIN_ROLE",
      "outputs": [
        {
          "internalType": "bytes32",
          "name": "",
          "type": "bytes32"
        }
      ],
      "stateMutability": "view",
      "type": "function"
    },
    {
      "inputs": [
        {
          "internalType": "uint256",
          "name": "_proposalId",
          "type": "uint256"
        }
      ],
      "name": "getAdminProposal",
      "outputs": [
        {
          "components": [
            {
              "internalType": "uint256",
              "name": "proposalId",
              "type": "uint256"
            },
            {
              "internalType": "string",
              "name": "title",
              "type": "string"
            },
            {
              "internalType": "string",
              "name": "description",
              "type": "string"
            },
            {
              "internalType": "uint256",
              "name": "reactions",
              "type": "uint256"
            },
            {
              "internalType": "address",
              "name": "proposer",
              "type": "address"
            },
            {
              "internalType": "uint256",
              "name": "duration",
              "type": "uint256"
            },
            {
              "internalType": "bool",
              "name": "passed",
              "type": "bool"
            },
            {
              "internalType": "uint256",
              "name": "upvotes",
              "type": "uint256"
            },
            {
              "internalType": "uint256",
              "name": "downvotes",
              "type": "uint256"
            },
            {
              "internalType": "bool",
              "name": "enrol",
              "type": "bool"
            },
            {
              "internalType": "address[]",
              "name": "change",
              "type": "address[]"
            },
            {
              "internalType": "uint256[]",
              "name": "power",
              "type": "uint256[]"
            },
            {
              "internalType": "bool",
              "name": "voter",
              "type": "bool"
            },
            {
              "internalType": "bool",
              "name": "action",
              "type": "bool"
            }
          ],
          "internalType": "struct UniDAO.ProposalStruct",
          "name": "",
          "type": "tuple"
        }
      ],
      "stateMutability": "view",
      "type": "function"
    },
    {
      "inputs": [],
      "name": "getAdminProposals",
      "outputs": [
        {
          "components": [
            {
              "internalType": "uint256",
              "name": "proposalId",
              "type": "uint256"
            },
            {
              "internalType": "string",
              "name": "title",
              "type": "string"
            },
            {
              "internalType": "string",
              "name": "description",
              "type": "string"
            },
            {
              "internalType": "uint256",
              "name": "reactions",
              "type": "uint256"
            },
            {
              "internalType": "address",
              "name": "proposer",
              "type": "address"
            },
            {
              "internalType": "uint256",
              "name": "duration",
              "type": "uint256"
            },
            {
              "internalType": "bool",
              "name": "passed",
              "type": "bool"
            },
            {
              "internalType": "uint256",
              "name": "upvotes",
              "type": "uint256"
            },
            {
              "internalType": "uint256",
              "name": "downvotes",
              "type": "uint256"
            },
            {
              "internalType": "bool",
              "name": "enrol",
              "type": "bool"
            },
            {
              "internalType": "address[]",
              "name": "change",
              "type": "address[]"
            },
            {
              "internalType": "uint256[]",
              "name": "power",
              "type": "uint256[]"
            },
            {
              "internalType": "bool",
              "name": "voter",
              "type": "bool"
            },
            {
              "internalType": "bool",
              "name": "action",
              "type": "bool"
            }
          ],
          "internalType": "struct UniDAO.ProposalStruct[]",
          "name": "props",
          "type": "tuple[]"
        }
      ],
      "stateMutability": "view",
      "type": "function"
    },
    {
      "inputs": [
        {
          "internalType": "uint256",
          "name": "_proposalId",
          "type": "uint256"
        }
      ],
      "name": "getProposal",
      "outputs": [
        {
          "components": [
            {
              "internalType": "uint256",
              "name": "proposalId",
              "type": "uint256"
            },
            {
              "internalType": "string",
              "name": "title",
              "type": "string"
            },
            {
              "internalType": "string",
              "name": "description",
              "type": "string"
            },
            {
              "internalType": "uint256",
              "name": "reactions",
              "type": "uint256"
            },
            {
              "internalType": "address",
              "name": "proposer",
              "type": "address"
            },
            {
              "internalType": "uint256",
              "name": "duration",
              "type": "uint256"
            },
            {
              "internalType": "bool",
              "name": "passed",
              "type": "bool"
            },
            {
              "internalType": "uint256",
              "name": "upvotes",
              "type": "uint256"
            },
            {
              "internalType": "uint256",
              "name": "downvotes",
              "type": "uint256"
            },
            {
              "internalType": "bool",
              "name": "enrol",
              "type": "bool"
            },
            {
              "internalType": "address[]",
              "name": "change",
              "type": "address[]"
            },
            {
              "internalType": "uint256[]",
              "name": "power",
              "type": "uint256[]"
            },
            {
              "internalType": "bool",
              "name": "voter",
              "type": "bool"
            },
            {
              "internalType": "bool",
              "name": "action",
              "type": "bool"
            }
          ],
          "internalType": "struct UniDAO.ProposalStruct",
          "name": "",
          "type": "tuple"
        }
      ],
      "stateMutability": "view",
      "type": "function"
    },
    {
      "inputs": [],
      "name": "getProposals",
      "outputs": [
        {
          "components": [
            {
              "internalType": "uint256",
              "name": "proposalId",
              "type": "uint256"
            },
            {
              "internalType": "string",
              "name": "title",
              "type": "string"
            },
            {
              "internalType": "string",
              "name": "description",
              "type": "string"
            },
            {
              "internalType": "uint256",
              "name": "reactions",
              "type": "uint256"
            },
            {
              "internalType": "address",
              "name": "proposer",
              "type": "address"
            },
            {
              "internalType": "uint256",
              "name": "duration",
              "type": "uint256"
            },
            {
              "internalType": "bool",
              "name": "passed",
              "type": "bool"
            },
            {
              "internalType": "uint256",
              "name": "upvotes",
              "type": "uint256"
            },
            {
              "internalType": "uint256",
              "name": "downvotes",
              "type": "uint256"
            },
            {
              "internalType": "bool",
              "name": "enrol",
              "type": "bool"
            },
            {
              "internalType": "address[]",
              "name": "change",
              "type": "address[]"
            },
            {
              "internalType": "uint256[]",
              "name": "power",
              "type": "uint256[]"
            },
            {
              "internalType": "bool",
              "name": "voter",
              "type": "bool"
            },
            {
              "internalType": "bool",
              "name": "action",
              "type": "bool"
            }
          ],
          "internalType": "struct UniDAO.ProposalStruct[]",
          "name": "props",
          "type": "tuple[]"
        }
      ],
      "stateMutability": "view",
      "type": "function"
    },
    {
      "inputs": [
        {
          "internalType": "bytes32",
          "name": "role",
          "type": "bytes32"
        }
      ],
      "name": "getRoleAdmin",
      "outputs": [
        {
          "internalType": "bytes32",
          "name": "",
          "type": "bytes32"
        }
      ],
      "stateMutability": "view",
      "type": "function"
    },
    {
      "inputs": [
        {
          "internalType": "bytes32",
          "name": "role",
          "type": "bytes32"
        },
        {
          "internalType": "address",
          "name": "account",
          "type": "address"
        }
      ],
      "name": "hasRole",
      "outputs": [
        {
          "internalType": "bool",
          "name": "",
          "type": "bool"
        }
      ],
      "stateMutability": "view",
      "type": "function"
    },
    {
      "inputs": [],
      "name": "isAdmin",
      "outputs": [
        {
          "internalType": "bool",
          "name": "",
          "type": "bool"
        }
      ],
      "stateMutability": "view",
      "type": "function"
    },
    {
      "inputs": [],
      "name": "isVoter",
      "outputs": [
        {
          "internalType": "bool",
          "name": "",
          "type": "bool"
        }
      ],
      "stateMutability": "view",
      "type": "function",
      "constant": true
    },
    {
      "inputs": [],
      "name": "isAdmin",
      "outputs": [
        {
          "internalType": "bool",
          "name": "",
          "type": "bool"
        }
      ],
      "stateMutability": "view",
      "type": "function",
      "constant": true
    },
    {
      "inputs": [],
      "name": "getAdminProposals",
      "outputs": [
        {
          "components": [
            {
              "internalType": "uint256",
              "name": "proposalId",
              "type": "uint256"
            },
            {
              "internalType": "string",
              "name": "title",
              "type": "string"
            },
            {
              "internalType": "string",
              "name": "description",
              "type": "string"
            },
            {
              "internalType": "uint256",
              "name": "reactions",
              "type": "uint256"
            },
            {
              "internalType": "address",
              "name": "proposer",
              "type": "address"
            },
            {
              "internalType": "uint256",
              "name": "duration",
              "type": "uint256"
            },
            {
              "internalType": "bool",
              "name": "passed",
              "type": "bool"
            },
            {
              "internalType": "uint256",
              "name": "upvotes",
              "type": "uint256"
            },
            {
              "internalType": "uint256",
              "name": "downvotes",
              "type": "uint256"
            },
            {
              "internalType": "bool",
              "name": "enrol",
              "type": "bool"
            },
            {
              "internalType": "address[]",
              "name": "change",
              "type": "address[]"
            },
            {
              "internalType": "uint256[]",
              "name": "power",
              "type": "uint256[]"
            },
            {
              "internalType": "bool",
              "name": "voter",
              "type": "bool"
            },
            {
              "internalType": "bool",
              "name": "action",
              "type": "bool"
            }
          ],
          "internalType": "struct UniDAO.ProposalStruct[]",
          "name": "props",
          "type": "tuple[]"
        }
      ],
      "stateMutability": "view",
      "type": "function",
      "constant": true
    },
    {
      "inputs": [
        {
          "internalType": "uint256",
          "name": "_proposalId",
          "type": "uint256"
        }
      ],
      "name": "getAdminProposal",
      "outputs": [
        {
          "components": [
            {
              "internalType": "uint256",
              "name": "proposalId",
              "type": "uint256"
            },
            {
              "internalType": "string",
              "name": "title",
              "type": "string"
            },
            {
              "internalType": "string",
              "name": "description",
              "type": "string"
            },
            {
              "internalType": "uint256",
              "name": "reactions",
              "type": "uint256"
            },
            {
              "internalType": "address",
              "name": "proposer",
              "type": "address"
            },
            {
              "internalType": "uint256",
              "name": "duration",
              "type": "uint256"
            },
            {
              "internalType": "bool",
              "name": "passed",
              "type": "bool"
            },
            {
              "internalType": "uint256",
              "name": "upvotes",
              "type": "uint256"
            },
            {
              "internalType": "uint256",
              "name": "downvotes",
              "type": "uint256"
            },
            {
              "internalType": "bool",
              "name": "enrol",
              "type": "bool"
            },
            {
              "internalType": "address[]",
              "name": "change",
              "type": "address[]"
            },
            {
              "internalType": "uint256[]",
              "name": "power",
              "type": "uint256[]"
            },
            {
              "internalType": "bool",
              "name": "voter",
              "type": "bool"
            },
            {
              "internalType": "bool",
              "name": "action",
              "type": "bool"
            }
          ],
          "internalType": "struct UniDAO.ProposalStruct",
          "name": "",
          "type": "tuple"
        }
      ],
      "stateMutability": "view",
      "type": "function",
      "constant": true
    },
    {
      "inputs": [
        {
          "internalType": "uint256",
          "name": "_proposalId",
          "type": "uint256"
        }
      ],
      "name": "performAction",
      "outputs": [],
      "stateMutability": "nonpayable",
      "type": "function"
    },
    {
      "inputs": [
        {
          "internalType": "bytes4",
          "name": "interfaceId",
          "type": "bytes4"
        }
      ],
      "name": "supportsInterface",
      "outputs": [
        {
          "internalType": "bool",
          "name": "",
          "type": "bool"
        }
      ],
      "stateMutability": "view",
      "type": "function"
    },
    {
      "inputs": [],
      "name": "totalProposal",
      "outputs": [
        {
          "internalType": "uint256",
          "name": "",
          "type": "uint256"
        }
      ],
      "stateMutability": "view",
      "type": "function"
    }
  ],
  "bytecode": "0x6101006040527fdf8b4c520ffe197c5343c6f5aec59570151ef9a492f2c624fd45ddde6135ec426080908152507f15283fd96aa656c9df35ac2fcb112678a5f24f1ca97e591a97d1d16003dbfc9c60a09081525061012c63ffffffff1660c09063ffffffff16815250601e60e0908152503480156200007d57600080fd5b5060405162004de638038062004de68339818101604052810190620000a3919062000520565b600160008190555060005b8151811015620001b0576004828281518110620000d057620000cf62000571565b5b60200260200101519080600181540180825580915050600190039060005260206000200160009091909190916101000a81548173ffffffffffffffffffffffffffffffffffffffff021916908373ffffffffffffffffffffffffffffffffffffffff1602179055506200016960805183838151811062000155576200015462000571565b5b6020026020010151620001b860201b60201c565b6200019a60a05183838151811062000186576200018562000571565b5b6020026020010151620001b860201b60201c565b8080620001a790620005d9565b915050620000ae565b505062000626565b620001ca8282620001ce60201b60201c565b5050565b620001e08282620002bf60201b60201c565b620002bb57600180600084815260200190815260200160002060000160008373ffffffffffffffffffffffffffffffffffffffff1673ffffffffffffffffffffffffffffffffffffffff16815260200190815260200160002060006101000a81548160ff021916908315150217905550620002606200032a60201b60201c565b73ffffffffffffffffffffffffffffffffffffffff168173ffffffffffffffffffffffffffffffffffffffff16837f2f8788117e7eff1d82e926ec794901d17c78024a50270940304540a733656f0d60405160405180910390a45b5050565b60006001600084815260200190815260200160002060000160008373ffffffffffffffffffffffffffffffffffffffff1673ffffffffffffffffffffffffffffffffffffffff16815260200190815260200160002060009054906101000a900460ff16905092915050565b600033905090565b6000604051905090565b600080fd5b600080fd5b600080fd5b6000601f19601f8301169050919050565b7f4e487b7100000000000000000000000000000000000000000000000000000000600052604160045260246000fd5b62000396826200034b565b810181811067ffffffffffffffff82111715620003b857620003b76200035c565b5b80604052505050565b6000620003cd62000332565b9050620003db82826200038b565b919050565b600067ffffffffffffffff821115620003fe57620003fd6200035c565b5b602082029050602081019050919050565b600080fd5b600073ffffffffffffffffffffffffffffffffffffffff82169050919050565b6000620004418262000414565b9050919050565b620004538162000434565b81146200045f57600080fd5b50565b600081519050620004738162000448565b92915050565b6000620004906200048a84620003e0565b620003c1565b90508083825260208201905060208402830185811115620004b657620004b56200040f565b5b835b81811015620004e35780620004ce888262000462565b845260208401935050602081019050620004b8565b5050509392505050565b600082601f83011262000505576200050462000346565b5b81516200051784826020860162000479565b91505092915050565b6000602082840312156200053957620005386200033c565b5b600082015167ffffffffffffffff8111156200055a576200055962000341565b5b6200056884828501620004ed565b91505092915050565b7f4e487b7100000000000000000000000000000000000000000000000000000000600052603260045260246000fd5b7f4e487b7100000000000000000000000000000000000000000000000000000000600052601160045260246000fd5b6000819050919050565b6000620005e682620005cf565b91507fffffffffffffffffffffffffffffffffffffffffffffffffffffffffffffffff82036200061b576200061a620005a0565b5b600182019050919050565b60805160a05160c05160e051614739620006ad600039600061230b015260006107c801526000818161093c01528181610c1901528181610d4801528181611e7601526123370152600081816104a90152818161061b0152818161068b015281816119040152818161193301528181611ae901528181611ea5015261214a01526147396000f3fe608060405234801561001057600080fd5b50600436106101375760003560e01c80636b3c6d6b116100b8578063c5d062731161007c578063c5d0627314610362578063c7f758a81461037e578063d547741f146103ae578063d87c4be3146103ca578063f004073a146103e8578063f1c5fd821461040457610137565b80636b3c6d6b146102a85780636e21721d146102d857806391d14854146102f6578063a217fddf14610326578063b6db75a01461034457610137565b80632f2ff15d116100ff5780632f2ff15d1461021a57806336568abe1461023657806344eead951461025257806347b8ab3a1461026e57806362564c481461028a57610137565b806301ffc9a71461013c5780630ce0ebf41461016c578063240e31e91461019c578063248a9ca3146101ba57806327dafcf9146101ea575b600080fd5b61015660048036038101906101519190612e79565b610422565b6040516101639190612ec1565b60405180910390f35b61018660048036038101906101819190613058565b61049c565b6040516101939190613462565b60405180910390f35b6101a4610658565b6040516101b19190613493565b60405180910390f35b6101d460048036038101906101cf91906134e4565b61065e565b6040516101e19190613520565b60405180910390f35b61020460048036038101906101ff919061371e565b61067e565b6040516102119190613462565b60405180910390f35b610234600480360381019061022f91906137ed565b610893565b005b610250600480360381019061024b91906137ed565b6108b4565b005b61026c6004803603810190610267919061382d565b610937565b005b6102886004803603810190610283919061386d565b610c53565b005b610292610ded565b60405161029f9190613aea565b60405180910390f35b6102c260048036038101906102bd9190613b0c565b6111a6565b6040516102cf9190613462565b60405180910390f35b6102e06114d2565b6040516102ed9190613aea565b60405180910390f35b610310600480360381019061030b91906137ed565b61188b565b60405161031d9190612ec1565b60405180910390f35b61032e6118f6565b60405161033b9190613520565b60405180910390f35b61034c6118fd565b6040516103599190612ec1565b60405180910390f35b61037c6004803603810190610377919061382d565b61192e565b005b61039860048036038101906103939190613b0c565b611b22565b6040516103a59190613462565b60405180910390f35b6103c860048036038101906103c391906137ed565b611e4e565b005b6103d2611e6f565b6040516103df9190612ec1565b60405180910390f35b61040260048036038101906103fd9190613b0c565b611ea0565b005b61040c6123ee565b6040516104199190613493565b60405180910390f35b60007f7965db0b000000000000000000000000000000000000000000000000000000007bffffffffffffffffffffffffffffffffffffffffffffffffffffffff1916827bffffffffffffffffffffffffffffffffffffffffffffffffffffffff191614806104955750610494826123f4565b5b9050919050565b6104a4612c8c565b6104ce7f00000000000000000000000000000000000000000000000000000000000000003361188b565b61050d576040517f08c379a000000000000000000000000000000000000000000000000000000000815260040161050490613b96565b60405180910390fd5b60006002600081548092919061052290613be5565b9190505590506000600560008381526020019081526020016000209050818160000181905550338160040160006101000a81548173ffffffffffffffffffffffffffffffffffffffff021916908373ffffffffffffffffffffffffffffffffffffffff1602179055508581600101908161059c9190613e39565b50848160020190816105ae9190613e39565b5083426105bb9190613f0b565b81600501819055506000816003018190555060008160080181905550600081600701819055503373ffffffffffffffffffffffffffffffffffffffff167ff4195914bd1a75ff318a3e75d2111a80cc0a9a8375aea50e407aec30082ea0e37f00000000000000000000000000000000000000000000000000000000000000006040516106479190613f8b565b60405180910390a250509392505050565b60035481565b600060016000838152602001908152602001600020600101549050919050565b610686612c8c565b6106b07f00000000000000000000000000000000000000000000000000000000000000003361188b565b6106ef576040517f08c379a00000000000000000000000000000000000000000000000000000000081526004016106e690613b96565b60405180910390fd5b60006003600081548092919061070490613be5565b9190505590506000600660008381526020019081526020016000209050818160000181905550338160040160006101000a81548173ffffffffffffffffffffffffffffffffffffffff021916908373ffffffffffffffffffffffffffffffffffffffff1602179055508781600101908161077e9190613e39565b506040518060400160405280600b81526020017f61646d696e20766f7465730000000000000000000000000000000000000000008152508160020190816107c59190613e39565b507f000000000000000000000000000000000000000000000000000000000000000063ffffffff16426107f89190613f0b565b81600501819055508681600a019080519060200190610818929190612d19565b50848160090160006101000a81548160ff0219169083151502179055508381600c0160006101000a81548160ff0219169083151502179055506000816003018190555060008160080181905550600081600701819055508581600b019080519060200190610887929190612da3565b50505095945050505050565b61089c8261065e565b6108a58161245e565b6108af8383612472565b505050565b6108bc612552565b73ffffffffffffffffffffffffffffffffffffffff168173ffffffffffffffffffffffffffffffffffffffff1614610929576040517f08c379a00000000000000000000000000000000000000000000000000000000081526004016109209061402b565b60405180910390fd5b610933828261255a565b5050565b6109617f00000000000000000000000000000000000000000000000000000000000000003361188b565b6109a0576040517f08c379a0000000000000000000000000000000000000000000000000000000008152600401610997906140bd565b60405180910390fd5b60006005600084815260200190815260200160002090506109f6816040518060400160405280600581526020017f766f74657200000000000000000000000000000000000000000000000000000081525061263c565b6000600a60003373ffffffffffffffffffffffffffffffffffffffff1673ffffffffffffffffffffffffffffffffffffffff168152602001908152602001600020600001549050816003016000815480929190610a5290613be5565b919050555060018303610a7f5780826007016000828254610a739190613f0b565b92505081905550610a9b565b80826008016000828254610a939190613f0b565b925050819055505b600760003373ffffffffffffffffffffffffffffffffffffffff1673ffffffffffffffffffffffffffffffffffffffff168152602001908152602001600020849080600181540180825580915050600190039060005260206000200160009091909190915055600960008360000154815260200190815260200160002060405180608001604052803373ffffffffffffffffffffffffffffffffffffffff16815260200142815260200185815260200183815250908060018154018082558091505060019003906000526020600020906004020160009091909190915060008201518160000160006101000a81548173ffffffffffffffffffffffffffffffffffffffff021916908373ffffffffffffffffffffffffffffffffffffffff16021790555060208201518160010155604082015181600201556060820151816003015550503373ffffffffffffffffffffffffffffffffffffffff167ff4195914bd1a75ff318a3e75d2111a80cc0a9a8375aea50e407aec30082ea0e37f0000000000000000000000000000000000000000000000000000000000000000604051610c459190614129565b60405180910390a250505050565b60005b8251811015610d9c576000600a6000858481518110610c7857610c77614157565b5b602002602001015173ffffffffffffffffffffffffffffffffffffffff1673ffffffffffffffffffffffffffffffffffffffff1681526020019081526020016000206000015411610d89576000600a6000858481518110610cdc57610cdb614157565b5b602002602001015173ffffffffffffffffffffffffffffffffffffffff1673ffffffffffffffffffffffffffffffffffffffff1681526020019081526020016000209050828281518110610d3357610d32614157565b5b60200260200101518160000181905550610d877f0000000000000000000000000000000000000000000000000000000000000000858481518110610d7a57610d79614157565b5b6020026020010151612937565b505b8080610d9490613be5565b915050610c56565b503073ffffffffffffffffffffffffffffffffffffffff167ff4195914bd1a75ff318a3e75d2111a80cc0a9a8375aea50e407aec30082ea0e3604051610de1906141f8565b60405180910390a25050565b606060025467ffffffffffffffff811115610e0b57610e0a612ef7565b5b604051908082528060200260200182016040528015610e4457816020015b610e31612c8c565b815260200190600190039081610e295790505b50905060005b6002548110156111a25760056000828152602001908152602001600020604051806101c001604052908160008201548152602001600182018054610e8d90613c5c565b80601f0160208091040260200160405190810160405280929190818152602001828054610eb990613c5c565b8015610f065780601f10610edb57610100808354040283529160200191610f06565b820191906000526020600020905b815481529060010190602001808311610ee957829003601f168201915b50505050508152602001600282018054610f1f90613c5c565b80601f0160208091040260200160405190810160405280929190818152602001828054610f4b90613c5c565b8015610f985780601f10610f6d57610100808354040283529160200191610f98565b820191906000526020600020905b815481529060010190602001808311610f7b57829003601f168201915b50505050508152602001600382015481526020016004820160009054906101000a900473ffffffffffffffffffffffffffffffffffffffff1673ffffffffffffffffffffffffffffffffffffffff1673ffffffffffffffffffffffffffffffffffffffff168152602001600582015481526020016006820160009054906101000a900460ff1615151515815260200160078201548152602001600882015481526020016009820160009054906101000a900460ff16151515158152602001600a82018054806020026020016040519081016040528092919081815260200182805480156110da57602002820191906000526020600020905b8160009054906101000a900473ffffffffffffffffffffffffffffffffffffffff1673ffffffffffffffffffffffffffffffffffffffff1681526020019060010190808311611090575b50505050508152602001600b820180548060200260200160405190810160405280929190818152602001828054801561113257602002820191906000526020600020905b81548152602001906001019080831161111e575b50505050508152602001600c820160009054906101000a900460ff16151515158152602001600c820160019054906101000a900460ff16151515158152505082828151811061118457611183614157565b5b6020026020010181905250808061119a90613be5565b915050610e4a565b5090565b6111ae612c8c565b60066000838152602001908152602001600020604051806101c0016040529081600082015481526020016001820180546111e790613c5c565b80601f016020809104026020016040519081016040528092919081815260200182805461121390613c5c565b80156112605780601f1061123557610100808354040283529160200191611260565b820191906000526020600020905b81548152906001019060200180831161124357829003601f168201915b5050505050815260200160028201805461127990613c5c565b80601f01602080910402602001604051908101604052809291908181526020018280546112a590613c5c565b80156112f25780601f106112c7576101008083540402835291602001916112f2565b820191906000526020600020905b8154815290600101906020018083116112d557829003601f168201915b50505050508152602001600382015481526020016004820160009054906101000a900473ffffffffffffffffffffffffffffffffffffffff1673ffffffffffffffffffffffffffffffffffffffff1673ffffffffffffffffffffffffffffffffffffffff168152602001600582015481526020016006820160009054906101000a900460ff1615151515815260200160078201548152602001600882015481526020016009820160009054906101000a900460ff16151515158152602001600a820180548060200260200160405190810160405280929190818152602001828054801561143457602002820191906000526020600020905b8160009054906101000a900473ffffffffffffffffffffffffffffffffffffffff1673ffffffffffffffffffffffffffffffffffffffff16815260200190600101908083116113ea575b50505050508152602001600b820180548060200260200160405190810160405280929190818152602001828054801561148c57602002820191906000526020600020905b815481526020019060010190808311611478575b50505050508152602001600c820160009054906101000a900460ff16151515158152602001600c820160019054906101000a900460ff1615151515815250509050919050565b606060025467ffffffffffffffff8111156114f0576114ef612ef7565b5b60405190808252806020026020018201604052801561152957816020015b611516612c8c565b81526020019060019003908161150e5790505b50905060005b6002548110156118875760066000828152602001908152602001600020604051806101c00160405290816000820154815260200160018201805461157290613c5c565b80601f016020809104026020016040519081016040528092919081815260200182805461159e90613c5c565b80156115eb5780601f106115c0576101008083540402835291602001916115eb565b820191906000526020600020905b8154815290600101906020018083116115ce57829003601f168201915b5050505050815260200160028201805461160490613c5c565b80601f016020809104026020016040519081016040528092919081815260200182805461163090613c5c565b801561167d5780601f106116525761010080835404028352916020019161167d565b820191906000526020600020905b81548152906001019060200180831161166057829003601f168201915b50505050508152602001600382015481526020016004820160009054906101000a900473ffffffffffffffffffffffffffffffffffffffff1673ffffffffffffffffffffffffffffffffffffffff1673ffffffffffffffffffffffffffffffffffffffff168152602001600582015481526020016006820160009054906101000a900460ff1615151515815260200160078201548152602001600882015481526020016009820160009054906101000a900460ff16151515158152602001600a82018054806020026020016040519081016040528092919081815260200182805480156117bf57602002820191906000526020600020905b8160009054906101000a900473ffffffffffffffffffffffffffffffffffffffff1673ffffffffffffffffffffffffffffffffffffffff1681526020019060010190808311611775575b50505050508152602001600b820180548060200260200160405190810160405280929190818152602001828054801561181757602002820191906000526020600020905b815481526020019060010190808311611803575b50505050508152602001600c820160009054906101000a900460ff16151515158152602001600c820160019054906101000a900460ff16151515158152505082828151811061186957611868614157565b5b6020026020010181905250808061187f90613be5565b91505061152f565b5090565b60006001600084815260200190815260200160002060000160008373ffffffffffffffffffffffffffffffffffffffff1673ffffffffffffffffffffffffffffffffffffffff16815260200190815260200160002060009054906101000a900460ff16905092915050565b6000801b81565b60006119297f00000000000000000000000000000000000000000000000000000000000000003361188b565b905090565b6119587f00000000000000000000000000000000000000000000000000000000000000003361188b565b611997576040517f08c379a000000000000000000000000000000000000000000000000000000000815260040161198e90613b96565b60405180910390fd5b60006006600084815260200190815260200160002090506119ed816040518060400160405280600581526020017f61646d696e00000000000000000000000000000000000000000000000000000081525061263c565b806003016000815480929190611a0290613be5565b919050555060018203611a2e57806007016000815480929190611a2490613be5565b9190505550611a49565b806008016000815480929190611a4390613be5565b91905055505b600860003373ffffffffffffffffffffffffffffffffffffffff1673ffffffffffffffffffffffffffffffffffffffff1681526020019081526020016000208390806001815401808255809150506001900390600052602060002001600090919091909150553373ffffffffffffffffffffffffffffffffffffffff167ff4195914bd1a75ff318a3e75d2111a80cc0a9a8375aea50e407aec30082ea0e37f0000000000000000000000000000000000000000000000000000000000000000604051611b159190614129565b60405180910390a2505050565b611b2a612c8c565b60056000838152602001908152602001600020604051806101c001604052908160008201548152602001600182018054611b6390613c5c565b80601f0160208091040260200160405190810160405280929190818152602001828054611b8f90613c5c565b8015611bdc5780601f10611bb157610100808354040283529160200191611bdc565b820191906000526020600020905b815481529060010190602001808311611bbf57829003601f168201915b50505050508152602001600282018054611bf590613c5c565b80601f0160208091040260200160405190810160405280929190818152602001828054611c2190613c5c565b8015611c6e5780601f10611c4357610100808354040283529160200191611c6e565b820191906000526020600020905b815481529060010190602001808311611c5157829003601f168201915b50505050508152602001600382015481526020016004820160009054906101000a900473ffffffffffffffffffffffffffffffffffffffff1673ffffffffffffffffffffffffffffffffffffffff1673ffffffffffffffffffffffffffffffffffffffff168152602001600582015481526020016006820160009054906101000a900460ff1615151515815260200160078201548152602001600882015481526020016009820160009054906101000a900460ff16151515158152602001600a8201805480602002602001604051908101604052809291908181526020018280548015611db057602002820191906000526020600020905b8160009054906101000a900473ffffffffffffffffffffffffffffffffffffffff1673ffffffffffffffffffffffffffffffffffffffff1681526020019060010190808311611d66575b50505050508152602001600b8201805480602002602001604051908101604052809291908181526020018280548015611e0857602002820191906000526020600020905b815481526020019060010190808311611df4575b50505050508152602001600c820160009054906101000a900460ff16151515158152602001600c820160019054906101000a900460ff1615151515815250509050919050565b611e578261065e565b611e608161245e565b611e6a838361255a565b505050565b6000611e9b7f00000000000000000000000000000000000000000000000000000000000000003361188b565b905090565b611eca7f00000000000000000000000000000000000000000000000000000000000000003361188b565b611f09576040517f08c379a0000000000000000000000000000000000000000000000000000000008152600401611f0090613b96565b60405180910390fd5b611f11612945565b600060066000838152602001908152602001600020905080600c0160019054906101000a900460ff1615611f7a576040517f08c379a0000000000000000000000000000000000000000000000000000000008152600401611f7190614270565b60405180910390fd5b806007015481600801541115611fc5576040517f08c379a0000000000000000000000000000000000000000000000000000000008152600401611fbc906142dc565b60405180910390fd5b80600c0160009054906101000a900460ff161561211c578060090160009054906101000a900460ff16156120dc576120d781600a0180548060200260200160405190810160405280929190818152602001828054801561207a57602002820191906000526020600020905b8160009054906101000a900473ffffffffffffffffffffffffffffffffffffffff1673ffffffffffffffffffffffffffffffffffffffff1681526020019060010190808311612030575b505050505082600b018054806020026020016040519081016040528092919081815260200182805480156120cd57602002820191906000526020600020905b8154815260200190600101908083116120b9575b5050505050610c53565b612117565b6040517f08c379a000000000000000000000000000000000000000000000000000000000815260040161210e90614348565b60405180910390fd5b6123e2565b8060090160009054906101000a900460ff16156123a65760005b81600a01805490508110156123a0576121af7f000000000000000000000000000000000000000000000000000000000000000083600a01838154811061217f5761217e614157565b5b9060005260206000200160009054906101000a900473ffffffffffffffffffffffffffffffffffffffff16612937565b600082600a0180548060200260200160405190810160405280929190818152602001828054801561223557602002820191906000526020600020905b8160009054906101000a900473ffffffffffffffffffffffffffffffffffffffff1673ffffffffffffffffffffffffffffffffffffffff16815260200190600101908083116121eb575b5050505050905060005b815181101561238b576000600a600084848151811061226157612260614157565b5b602002602001015173ffffffffffffffffffffffffffffffffffffffff1673ffffffffffffffffffffffffffffffffffffffff1681526020019081526020016000206000015411612378576000600a60008484815181106122c5576122c4614157565b5b602002602001015173ffffffffffffffffffffffffffffffffffffffff1673ffffffffffffffffffffffffffffffffffffffff16815260200190815260200160002090507f000000000000000000000000000000000000000000000000000000000000000081600001819055506123767f000000000000000000000000000000000000000000000000000000000000000084848151811061236957612368614157565b5b6020026020010151612937565b505b808061238390613be5565b91505061223f565b5050808061239890613be5565b915050612136565b506123e1565b6040517f08c379a00000000000000000000000000000000000000000000000000000000081526004016123d890614348565b60405180910390fd5b5b506123eb612994565b50565b60025481565b60007f01ffc9a7000000000000000000000000000000000000000000000000000000007bffffffffffffffffffffffffffffffffffffffffffffffffffffffff1916827bffffffffffffffffffffffffffffffffffffffffffffffffffffffff1916149050919050565b61246f8161246a612552565b61299e565b50565b61247c828261188b565b61254e57600180600084815260200190815260200160002060000160008373ffffffffffffffffffffffffffffffffffffffff1673ffffffffffffffffffffffffffffffffffffffff16815260200190815260200160002060006101000a81548160ff0219169083151502179055506124f3612552565b73ffffffffffffffffffffffffffffffffffffffff168173ffffffffffffffffffffffffffffffffffffffff16837f2f8788117e7eff1d82e926ec794901d17c78024a50270940304540a733656f0d60405160405180910390a45b5050565b600033905090565b612564828261188b565b156126385760006001600084815260200190815260200160002060000160008373ffffffffffffffffffffffffffffffffffffffff1673ffffffffffffffffffffffffffffffffffffffff16815260200190815260200160002060006101000a81548160ff0219169083151502179055506125dd612552565b73ffffffffffffffffffffffffffffffffffffffff168173ffffffffffffffffffffffffffffffffffffffff16837ff6391f5c32d9c69d2a47ea670b442974b53935d1edc7fd64eb21e047a839171b60405160405180910390a45b5050565b8160060160009054906101000a900460ff168061265d575042826005015411155b156126ba5760018260060160006101000a81548160ff0219169083151502179055506040517f08c379a00000000000000000000000000000000000000000000000000000000081526004016126b1906143b4565b60405180910390fd5b7ff23ec0bb4210edd5cba85afd05127efcd2fc6a781bfed49188da1081670b22d8816040516020016126ec9190614410565b604051602081830303815290604052805190602001200361281f576000600860003373ffffffffffffffffffffffffffffffffffffffff1673ffffffffffffffffffffffffffffffffffffffff16815260200190815260200160002080548060200260200160405190810160405280929190818152602001828054801561279257602002820191906000526020600020905b81548152602001906001019080831161277e575b5050505050905060005b8151811015612818578181815181106127b8576127b7614157565b5b6020026020010151846000015403612805576040517f08c379a00000000000000000000000000000000000000000000000000000000081526004016127fc90614473565b60405180910390fd5b808061281090613be5565b91505061279c565b5050612933565b6000600760003373ffffffffffffffffffffffffffffffffffffffff1673ffffffffffffffffffffffffffffffffffffffff1681526020019081526020016000208054806020026020016040519081016040528092919081815260200182805480156128aa57602002820191906000526020600020905b815481526020019060010190808311612896575b5050505050905060005b8151811015612930578181815181106128d0576128cf614157565b5b602002602001015184600001540361291d576040517f08c379a000000000000000000000000000000000000000000000000000000000815260040161291490614473565b60405180910390fd5b808061292890613be5565b9150506128b4565b50505b5050565b6129418282612472565b5050565b60026000540361298a576040517f08c379a0000000000000000000000000000000000000000000000000000000008152600401612981906144df565b60405180910390fd5b6002600081905550565b6001600081905550565b6129a8828261188b565b612a1f576129b581612a23565b6129c38360001c6020612a50565b6040516020016129d4929190614597565b6040516020818303038152906040526040517f08c379a0000000000000000000000000000000000000000000000000000000008152600401612a16919061460a565b60405180910390fd5b5050565b6060612a498273ffffffffffffffffffffffffffffffffffffffff16601460ff16612a50565b9050919050565b606060006002836002612a63919061462c565b612a6d9190613f0b565b67ffffffffffffffff811115612a8657612a85612ef7565b5b6040519080825280601f01601f191660200182016040528015612ab85781602001600182028036833780820191505090505b5090507f300000000000000000000000000000000000000000000000000000000000000081600081518110612af057612aef614157565b5b60200101907effffffffffffffffffffffffffffffffffffffffffffffffffffffffffffff1916908160001a9053507f780000000000000000000000000000000000000000000000000000000000000081600181518110612b5457612b53614157565b5b60200101907effffffffffffffffffffffffffffffffffffffffffffffffffffffffffffff1916908160001a90535060006001846002612b94919061462c565b612b9e9190613f0b565b90505b6001811115612c3e577f3031323334353637383961626364656600000000000000000000000000000000600f861660108110612be057612bdf614157565b5b1a60f81b828281518110612bf757612bf6614157565b5b60200101907effffffffffffffffffffffffffffffffffffffffffffffffffffffffffffff1916908160001a905350600485901c945080612c379061466e565b9050612ba1565b5060008414612c82576040517f08c379a0000000000000000000000000000000000000000000000000000000008152600401612c79906146e3565b60405180910390fd5b8091505092915050565b604051806101c0016040528060008152602001606081526020016060815260200160008152602001600073ffffffffffffffffffffffffffffffffffffffff16815260200160008152602001600015158152602001600081526020016000815260200160001515815260200160608152602001606081526020016000151581526020016000151581525090565b828054828255906000526020600020908101928215612d92579160200282015b82811115612d915782518260006101000a81548173ffffffffffffffffffffffffffffffffffffffff021916908373ffffffffffffffffffffffffffffffffffffffff16021790555091602001919060010190612d39565b5b509050612d9f9190612df0565b5090565b828054828255906000526020600020908101928215612ddf579160200282015b82811115612dde578251825591602001919060010190612dc3565b5b509050612dec9190612df0565b5090565b5b80821115612e09576000816000905550600101612df1565b5090565b6000604051905090565b600080fd5b600080fd5b60007fffffffff0000000000000000000000000000000000000000000000000000000082169050919050565b612e5681612e21565b8114612e6157600080fd5b50565b600081359050612e7381612e4d565b92915050565b600060208284031215612e8f57612e8e612e17565b5b6000612e9d84828501612e64565b91505092915050565b60008115159050919050565b612ebb81612ea6565b82525050565b6000602082019050612ed66000830184612eb2565b92915050565b600080fd5b600080fd5b6000601f19601f8301169050919050565b7f4e487b7100000000000000000000000000000000000000000000000000000000600052604160045260246000fd5b612f2f82612ee6565b810181811067ffffffffffffffff82111715612f4e57612f4d612ef7565b5b80604052505050565b6000612f61612e0d565b9050612f6d8282612f26565b919050565b600067ffffffffffffffff821115612f8d57612f8c612ef7565b5b612f9682612ee6565b9050602081019050919050565b82818337600083830152505050565b6000612fc5612fc084612f72565b612f57565b905082815260208101848484011115612fe157612fe0612ee1565b5b612fec848285612fa3565b509392505050565b600082601f83011261300957613008612edc565b5b8135613019848260208601612fb2565b91505092915050565b6000819050919050565b61303581613022565b811461304057600080fd5b50565b6000813590506130528161302c565b92915050565b60008060006060848603121561307157613070612e17565b5b600084013567ffffffffffffffff81111561308f5761308e612e1c565b5b61309b86828701612ff4565b935050602084013567ffffffffffffffff8111156130bc576130bb612e1c565b5b6130c886828701612ff4565b92505060406130d986828701613043565b9150509250925092565b6130ec81613022565b82525050565b600081519050919050565b600082825260208201905092915050565b60005b8381101561312c578082015181840152602081019050613111565b60008484015250505050565b6000613143826130f2565b61314d81856130fd565b935061315d81856020860161310e565b61316681612ee6565b840191505092915050565b600073ffffffffffffffffffffffffffffffffffffffff82169050919050565b600061319c82613171565b9050919050565b6131ac81613191565b82525050565b6131bb81612ea6565b82525050565b600081519050919050565b600082825260208201905092915050565b6000819050602082019050919050565b60006131f983836131a3565b60208301905092915050565b6000602082019050919050565b600061321d826131c1565b61322781856131cc565b9350613232836131dd565b8060005b8381101561326357815161324a88826131ed565b975061325583613205565b925050600181019050613236565b5085935050505092915050565b600081519050919050565b600082825260208201905092915050565b6000819050602082019050919050565b60006132a883836130e3565b60208301905092915050565b6000602082019050919050565b60006132cc82613270565b6132d6818561327b565b93506132e18361328c565b8060005b838110156133125781516132f9888261329c565b9750613304836132b4565b9250506001810190506132e5565b5085935050505092915050565b60006101c08301600083015161333860008601826130e3565b50602083015184820360208601526133508282613138565b9150506040830151848203604086015261336a8282613138565b915050606083015161337f60608601826130e3565b50608083015161339260808601826131a3565b5060a08301516133a560a08601826130e3565b5060c08301516133b860c08601826131b2565b5060e08301516133cb60e08601826130e3565b506101008301516133e06101008601826130e3565b506101208301516133f56101208601826131b2565b5061014083015184820361014086015261340f8282613212565b91505061016083015184820361016086015261342b82826132c1565b9150506101808301516134426101808601826131b2565b506101a08301516134576101a08601826131b2565b508091505092915050565b6000602082019050818103600083015261347c818461331f565b905092915050565b61348d81613022565b82525050565b60006020820190506134a86000830184613484565b92915050565b6000819050919050565b6134c1816134ae565b81146134cc57600080fd5b50565b6000813590506134de816134b8565b92915050565b6000602082840312156134fa576134f9612e17565b5b6000613508848285016134cf565b91505092915050565b61351a816134ae565b82525050565b60006020820190506135356000830184613511565b92915050565b600067ffffffffffffffff82111561355657613555612ef7565b5b602082029050602081019050919050565b600080fd5b61357581613191565b811461358057600080fd5b50565b6000813590506135928161356c565b92915050565b60006135ab6135a68461353b565b612f57565b905080838252602082019050602084028301858111156135ce576135cd613567565b5b835b818110156135f757806135e38882613583565b8452602084019350506020810190506135d0565b5050509392505050565b600082601f83011261361657613615612edc565b5b8135613626848260208601613598565b91505092915050565b600067ffffffffffffffff82111561364a57613649612ef7565b5b602082029050602081019050919050565b600061366e6136698461362f565b612f57565b9050808382526020820190506020840283018581111561369157613690613567565b5b835b818110156136ba57806136a68882613043565b845260208401935050602081019050613693565b5050509392505050565b600082601f8301126136d9576136d8612edc565b5b81356136e984826020860161365b565b91505092915050565b6136fb81612ea6565b811461370657600080fd5b50565b600081359050613718816136f2565b92915050565b600080600080600060a0868803121561373a57613739612e17565b5b600086013567ffffffffffffffff81111561375857613757612e1c565b5b61376488828901612ff4565b955050602086013567ffffffffffffffff81111561378557613784612e1c565b5b61379188828901613601565b945050604086013567ffffffffffffffff8111156137b2576137b1612e1c565b5b6137be888289016136c4565b93505060606137cf88828901613709565b92505060806137e088828901613709565b9150509295509295909350565b6000806040838503121561380457613803612e17565b5b6000613812858286016134cf565b925050602061382385828601613583565b9150509250929050565b6000806040838503121561384457613843612e17565b5b600061385285828601613043565b925050602061386385828601613043565b9150509250929050565b6000806040838503121561388457613883612e17565b5b600083013567ffffffffffffffff8111156138a2576138a1612e1c565b5b6138ae85828601613601565b925050602083013567ffffffffffffffff8111156138cf576138ce612e1c565b5b6138db858286016136c4565b9150509250929050565b600081519050919050565b600082825260208201905092915050565b6000819050602082019050919050565b60006101c08301600083015161392a60008601826130e3565b50602083015184820360208601526139428282613138565b9150506040830151848203604086015261395c8282613138565b915050606083015161397160608601826130e3565b50608083015161398460808601826131a3565b5060a083015161399760a08601826130e3565b5060c08301516139aa60c08601826131b2565b5060e08301516139bd60e08601826130e3565b506101008301516139d26101008601826130e3565b506101208301516139e76101208601826131b2565b50610140830151848203610140860152613a018282613212565b915050610160830151848203610160860152613a1d82826132c1565b915050610180830151613a346101808601826131b2565b506101a0830151613a496101a08601826131b2565b508091505092915050565b6000613a608383613911565b905092915050565b6000602082019050919050565b6000613a80826138e5565b613a8a81856138f0565b935083602082028501613a9c85613901565b8060005b85811015613ad85784840389528151613ab98582613a54565b9450613ac483613a68565b925060208a01995050600181019050613aa0565b50829750879550505050505092915050565b60006020820190508181036000830152613b048184613a75565b905092915050565b600060208284031215613b2257613b21612e17565b5b6000613b3084828501613043565b91505092915050565b600082825260208201905092915050565b7f556e617574686f72697a6564203a206f6e6c7920666f722061646d696e000000600082015250565b6000613b80601d83613b39565b9150613b8b82613b4a565b602082019050919050565b60006020820190508181036000830152613baf81613b73565b9050919050565b7f4e487b7100000000000000000000000000000000000000000000000000000000600052601160045260246000fd5b6000613bf082613022565b91507fffffffffffffffffffffffffffffffffffffffffffffffffffffffffffffffff8203613c2257613c21613bb6565b5b600182019050919050565b7f4e487b7100000000000000000000000000000000000000000000000000000000600052602260045260246000fd5b60006002820490506001821680613c7457607f821691505b602082108103613c8757613c86613c2d565b5b50919050565b60008190508160005260206000209050919050565b60006020601f8301049050919050565b600082821b905092915050565b600060088302613cef7fffffffffffffffffffffffffffffffffffffffffffffffffffffffffffffffff82613cb2565b613cf98683613cb2565b95508019841693508086168417925050509392505050565b6000819050919050565b6000613d36613d31613d2c84613022565b613d11565b613022565b9050919050565b6000819050919050565b613d5083613d1b565b613d64613d5c82613d3d565b848454613cbf565b825550505050565b600090565b613d79613d6c565b613d84818484613d47565b505050565b5b81811015613da857613d9d600082613d71565b600181019050613d8a565b5050565b601f821115613ded57613dbe81613c8d565b613dc784613ca2565b81016020851015613dd6578190505b613dea613de285613ca2565b830182613d89565b50505b505050565b600082821c905092915050565b6000613e1060001984600802613df2565b1980831691505092915050565b6000613e298383613dff565b9150826002028217905092915050565b613e42826130f2565b67ffffffffffffffff811115613e5b57613e5a612ef7565b5b613e658254613c5c565b613e70828285613dac565b600060209050601f831160018114613ea35760008415613e91578287015190505b613e9b8582613e1d565b865550613f03565b601f198416613eb186613c8d565b60005b82811015613ed957848901518255600182019150602085019450602081019050613eb4565b86831015613ef65784890151613ef2601f891682613dff565b8355505b6001600288020188555050505b505050505050565b6000613f1682613022565b9150613f2183613022565b9250828201905080821115613f3957613f38613bb6565b5b92915050565b7f50726f706f73616c207261697365640000000000000000000000000000000000600082015250565b6000613f75600f83613b39565b9150613f8082613f3f565b602082019050919050565b6000604082019050613fa06000830184613511565b8181036020830152613fb181613f68565b905092915050565b7f416363657373436f6e74726f6c3a2063616e206f6e6c792072656e6f756e636560008201527f20726f6c657320666f722073656c660000000000000000000000000000000000602082015250565b6000614015602f83613b39565b915061402082613fb9565b604082019050919050565b6000602082019050818103600083015261404481614008565b9050919050565b7f556e617574686f72697a6564203a206f6e6c7920666f722070656f706c65206560008201527f6e726f6c6c656420696e207468697320696e737469747574696f6e0000000000602082015250565b60006140a7603b83613b39565b91506140b28261404b565b604082019050919050565b600060208201905081810360008301526140d68161409a565b9050919050565b7f766f746564000000000000000000000000000000000000000000000000000000600082015250565b6000614113600583613b39565b915061411e826140dd565b602082019050919050565b600060408201905061413e6000830184613511565b818103602083015261414f81614106565b905092915050565b7f4e487b7100000000000000000000000000000000000000000000000000000000600052603260045260246000fd5b7f41444d494e5f524f4c4500000000000000000000000000000000000000000000815250565b7f416464726573736573206164646564207375636365737366756c6c7900000000600082015250565b60006141e2601c83613b39565b91506141ed826141ac565b602082019050919050565b600060408201905061420c60008301614186565b818103602083015261421d816141d5565b9050919050565b7f416374696f6e20616c726561647920706572666f726d65640000000000000000600082015250565b600061425a601883613b39565b915061426582614224565b602082019050919050565b600060208201905081810360008301526142898161424d565b9050919050565b7f496e73756666696369656e7420766f7465730000000000000000000000000000600082015250565b60006142c6601283613b39565b91506142d182614290565b602082019050919050565b600060208201905081810360008301526142f5816142b9565b9050919050565b7f436f6d696e6720736f6f6e000000000000000000000000000000000000000000600082015250565b6000614332600b83613b39565b915061433d826142fc565b602082019050919050565b6000602082019050818103600083015261436181614325565b9050919050565b7f50726f706f73616c206861732065787069726564000000000000000000000000600082015250565b600061439e601483613b39565b91506143a982614368565b602082019050919050565b600060208201905081810360008301526143cd81614391565b9050919050565b600081905092915050565b60006143ea826130f2565b6143f481856143d4565b935061440481856020860161310e565b80840191505092915050565b600061441c82846143df565b915081905092915050565b7f596f75206861766520616c726561647920766f74656400000000000000000000600082015250565b600061445d601683613b39565b915061446882614427565b602082019050919050565b6000602082019050818103600083015261448c81614450565b9050919050565b7f5265656e7472616e637947756172643a207265656e7472616e742063616c6c00600082015250565b60006144c9601f83613b39565b91506144d482614493565b602082019050919050565b600060208201905081810360008301526144f8816144bc565b9050919050565b7f416363657373436f6e74726f6c3a206163636f756e7420000000000000000000600082015250565b60006145356017836143d4565b9150614540826144ff565b601782019050919050565b7f206973206d697373696e6720726f6c6520000000000000000000000000000000600082015250565b60006145816011836143d4565b915061458c8261454b565b601182019050919050565b60006145a282614528565b91506145ae82856143df565b91506145b982614574565b91506145c582846143df565b91508190509392505050565b60006145dc826130f2565b6145e68185613b39565b93506145f681856020860161310e565b6145ff81612ee6565b840191505092915050565b6000602082019050818103600083015261462481846145d1565b905092915050565b600061463782613022565b915061464283613022565b925082820261465081613022565b9150828204841483151761466757614666613bb6565b5b5092915050565b600061467982613022565b91506000820361468c5761468b613bb6565b5b600182039050919050565b7f537472696e67733a20686578206c656e67746820696e73756666696369656e74600082015250565b60006146cd602083613b39565b91506146d882614697565b602082019050919050565b600060208201905081810360008301526146fc816146c0565b905091905056fea2646970667358221220541a03463693afcea3540b283c9803ef71532305bfa3bd14f9bddf189b99ed1264736f6c63430008110033",
  "immutableReferences": {
    "1553": [
      {
        "length": 32,
        "start": 1193
      },
      {
        "length": 32,
        "start": 1563
      },
      {
        "length": 32,
        "start": 1675
      },
      {
        "length": 32,
        "start": 6404
      },
      {
        "length": 32,
        "start": 6451
      },
      {
        "length": 32,
        "start": 6889
      },
      {
        "length": 32,
        "start": 7845
      },
      {
        "length": 32,
        "start": 8522
      }
    ],
    "1558": [
      {
        "length": 32,
        "start": 2364
      },
      {
        "length": 32,
        "start": 3097
      },
      {
        "length": 32,
        "start": 3400
      },
      {
        "length": 32,
        "start": 7798
      },
      {
        "length": 32,
        "start": 9015
      }
    ],
    "1565": [
      {
        "length": 32,
        "start": 1992
      }
    ],
    "1568": [
      {
        "length": 32,
        "start": 8971
      }
    ]
  },
  "source": "// SPDX-License-Identifier: MIT\npragma solidity ^0.8.7;\n\nimport \"@openzeppelin/contracts/security/ReentrancyGuard.sol\";\nimport \"@openzeppelin/contracts/access/AccessControl.sol\";\n\ncontract UniDAO is ReentrancyGuard, AccessControl {\n    bytes32 private immutable ADMIN_ROLE = keccak256(\"ADMIN\");\n    bytes32 private immutable VOTER_ROLE = keccak256(\"VOTER\");\n\n    uint256 public totalProposal;\n    uint256 public admProposals;\n    uint32 immutable MIN_VOTE_DURATION = 5 minutes;\n    uint256 immutable ADMIN_POWER = 30;\n\n    address[] adminAddresses;\n\n    mapping(uint256 => ProposalStruct) private raisedProposals;\n    mapping(uint256 => ProposalStruct) private changeAdminProposals;\n\n    mapping(address => uint256[]) private VoterVotes;\n    mapping(address => uint256[]) private AdminVotes;\n    mapping(uint256 => VotedStruct[]) private VotedOn;\n    mapping(address => VoterStruct) private enrolled;\n\n  \n\n    //structs\n    struct ProposalStruct {\n        uint256 proposalId;\n        string title;\n        string description;\n        uint256 reactions;\n        address proposer;\n        uint256 duration;\n        bool passed;\n        uint256 upvotes;\n        uint256 downvotes;\n        bool enrol;\n        address[] change;\n        uint256[] power;\n        bool voter;\n        bool action;\n    }\n\n    struct VotedStruct {\n        address voter;\n        uint256 timestamp;\n        uint256 choosen;\n        uint256 power;\n    }\n\n    struct VoterStruct {\n        uint256 power;\n    }\n\n    //events\n    event Action(address indexed initiator, bytes32 role, string message);\n\n    constructor(address[] memory addr) public {\n        for (uint256 i = 0; i < addr.length; i++) {\n            adminAddresses.push(addr[i]);\n             _setupRole(ADMIN_ROLE, addr[i]);\n              _setupRole(VOTER_ROLE, addr[i]);\n        }\n    }\n\n    //modifiers\n\n    modifier AdminOnly() {\n        require(\n            hasRole(ADMIN_ROLE, msg.sender),\n            \"Unauthorized : only for admin\"\n        );\n        _;\n    }\n\n    modifier VoterOnly() {\n        require(\n            hasRole(VOTER_ROLE, msg.sender),\n            \"Unauthorized : only for people enrolled in this institution\"\n        );\n        _;\n    }\n    \n    function createProposal(\n        string memory _title,\n        string memory _description,\n        uint256 _duration\n    ) external AdminOnly returns (ProposalStruct memory) {\n        uint256 _proposalId = totalProposal++;\n        ProposalStruct storage proposal = raisedProposals[_proposalId];\n\n        proposal.proposalId = _proposalId;\n        proposal.proposer = msg.sender;\n        proposal.title = _title;\n        proposal.description = _description;\n        proposal.duration = block.timestamp + _duration;\n        proposal.reactions = 0;\n        proposal.downvotes = 0;\n        proposal.upvotes = 0;\n\n        emit Action(msg.sender, ADMIN_ROLE, \"Proposal raised\");\n    }\n\n    // admin proposal : entrol : true ---> to enroll new address : false ---> delete ::: voter : true ----> enrol or delete a voter : false ---> enrol or delete admin\n\n    function createAdminProposal(\n        string memory _title,\n        address[] memory addresses,\n        uint256[] memory _power,\n        bool _enrol,\n        bool _voter\n    ) public AdminOnly returns (ProposalStruct memory) {\n        uint256 _admProposals = admProposals++;\n        ProposalStruct storage proposal = changeAdminProposals[_admProposals];\n\n        proposal.proposalId = _admProposals;\n        proposal.proposer = msg.sender;\n        proposal.title = _title;\n        proposal.description = \"admin votes\";\n        proposal.duration = block.timestamp + MIN_VOTE_DURATION;\n        proposal.change = addresses;\n        proposal.enrol = _enrol;\n        proposal.voter = _voter;\n        proposal.reactions = 0;\n        proposal.downvotes = 0;\n        proposal.upvotes = 0;\n        proposal.power = _power;\n    }\n\n    function performAdminVote(uint256 _proposalId, uint256 choosen)\n        public\n        AdminOnly\n    {\n        ProposalStruct storage proposal = changeAdminProposals[_proposalId];\n        handleVoting(proposal, \"admin\");\n        proposal.reactions++;\n        if (choosen == 1) proposal.upvotes++;\n        else proposal.downvotes++;\n\n        AdminVotes[msg.sender].push(_proposalId);\n\n        emit Action(msg.sender, ADMIN_ROLE, \"voted\");\n    }\n\n    function performVote(uint256 _proposalId, uint256 choosen)\n        public\n        VoterOnly\n    {\n        ProposalStruct storage proposal = raisedProposals[_proposalId];\n        handleVoting(proposal, \"voter\");\n        uint256 _power = enrolled[msg.sender].power;\n        proposal.reactions++;\n        if (choosen == 1) proposal.upvotes += _power;\n        else proposal.downvotes += _power;\n\n        VoterVotes[msg.sender].push(_proposalId);\n\n        VotedOn[proposal.proposalId].push(\n            VotedStruct(payable(msg.sender), block.timestamp, choosen, _power)\n        );\n\n        emit Action(msg.sender, VOTER_ROLE, \"voted\");\n    }\n\n    function handleVoting(ProposalStruct storage proposal, string memory adm)\n        private\n    {\n        if (proposal.passed || proposal.duration <= block.timestamp) {\n            proposal.passed = true;\n            revert(\"Proposal has expired\");\n        }\n        if (keccak256(abi.encodePacked(adm)) == keccak256(\"admin\")) {\n            uint256[] memory tempVotes = AdminVotes[msg.sender];\n            for (uint256 votes = 0; votes < tempVotes.length; votes++) {\n                if (proposal.proposalId == tempVotes[votes]) {\n                    revert(\"You have already voted\");\n                }\n            }\n        } else {\n            uint256[] memory tempVotes = VoterVotes[msg.sender];\n            for (uint256 votes = 0; votes < tempVotes.length; votes++) {\n                if (proposal.proposalId == tempVotes[votes]) {\n                    revert(\"You have already voted\");\n                }\n            }\n        }\n    }\n\n    function getProposals()\n        public\n        view\n        returns (ProposalStruct[] memory props)\n    {\n        props = new ProposalStruct[](totalProposal);\n\n        for (uint256 i = 0; i < totalProposal; i++) {\n            props[i] = raisedProposals[i];\n        }\n    }\n\n    function getProposal(uint256 _proposalId)\n        public\n        view\n        returns (ProposalStruct memory)\n    {\n        return raisedProposals[_proposalId];\n    }\n\n    function isVoter() public view returns (bool) {\n        return hasRole(VOTER_ROLE, msg.sender);\n    }\n\n    function isAdmin() public view returns (bool) {\n        return hasRole(ADMIN_ROLE, msg.sender);\n    }\n\n    function getAdminProposals()\n        public\n        view\n        returns (ProposalStruct[] memory props)\n    {\n        props = new ProposalStruct[](totalProposal);\n\n        for (uint256 i = 0; i < totalProposal; i++) {\n            props[i] = changeAdminProposals[i];\n        }\n    }\n\n    function getAdminProposal(uint256 _proposalId)\n        public\n        view\n        returns (ProposalStruct memory)\n    {\n        return changeAdminProposals[_proposalId];\n    }\n\n    //perform enroll and deroll\n\n    function performAction(uint256 _proposalId) public AdminOnly nonReentrant {\n        ProposalStruct storage proposal = changeAdminProposals[_proposalId];\n        if (proposal.action) revert(\"Action already performed\");\n        if (proposal.downvotes > proposal.upvotes) revert(\"Insufficient votes\");\n\n        if (proposal.voter) {\n            if (proposal.enrol) {\n                enrollVoters(proposal.change, proposal.power);\n            } else revert(\"Coming soon\");\n        } else {\n            if (proposal.enrol) {\n                for (uint256 i = 0; i < proposal.change.length; i++) {\n                    _setupRole(ADMIN_ROLE, proposal.change[i]);\n                    address[] memory addresses = proposal.change;\n                    for (uint256 i = 0; i < addresses.length; i++) {\n                        if (enrolled[addresses[i]].power > 0) {\n                            continue;\n                        }\n                        VoterStruct storage voter = enrolled[addresses[i]];\n                        voter.power = ADMIN_POWER;\n                        _setupRole(VOTER_ROLE, addresses[i]);\n                    }\n                }\n            } else revert(\"Coming soon\");\n        }\n    }\n\n    //  enroll new voters\n\n    function enrollVoters(address[] memory addresses, uint256[] memory _power)\n        public\n    {\n        for (uint256 i = 0; i < addresses.length; i++) {\n            if (enrolled[addresses[i]].power > 0) {\n                continue;\n            }\n            VoterStruct storage voter = enrolled[addresses[i]];\n            voter.power = _power[i];\n            _setupRole(VOTER_ROLE, addresses[i]);\n        }\n\n        emit Action(\n            address(this),\n            \"ADMIN_ROLE\",\n            \"Addresses added successfully\"\n        );\n    }\n}\n",
  "sourcePath": "/home/vishnu/Vishnu/Ibeto/UniDAO/contracts/UniDAO.sol",
  "compiler": {
    "name": "solc",
    "version": "0.8.17+commit.8df45f5f.Emscripten.clang"
  },
  "schemaVersion": "3.4.11",
  "updatedAt": "2023-02-25T14:56:05.619Z",
  "networkType": "ethereum",
  "devdoc": {
    "kind": "dev",
    "methods": {
      "getRoleAdmin(bytes32)": {
        "details": "Returns the admin role that controls `role`. See {grantRole} and {revokeRole}. To change a role's admin, use {_setRoleAdmin}."
      },
      "grantRole(bytes32,address)": {
        "details": "Grants `role` to `account`. If `account` had not been already granted `role`, emits a {RoleGranted} event. Requirements: - the caller must have ``role``'s admin role. May emit a {RoleGranted} event."
      },
      "hasRole(bytes32,address)": {
        "details": "Returns `true` if `account` has been granted `role`."
      },
      "renounceRole(bytes32,address)": {
        "details": "Revokes `role` from the calling account. Roles are often managed via {grantRole} and {revokeRole}: this function's purpose is to provide a mechanism for accounts to lose their privileges if they are compromised (such as when a trusted device is misplaced). If the calling account had been revoked `role`, emits a {RoleRevoked} event. Requirements: - the caller must be `account`. May emit a {RoleRevoked} event."
      },
      "revokeRole(bytes32,address)": {
        "details": "Revokes `role` from `account`. If `account` had been granted `role`, emits a {RoleRevoked} event. Requirements: - the caller must have ``role``'s admin role. May emit a {RoleRevoked} event."
      },
      "supportsInterface(bytes4)": {
        "details": "See {IERC165-supportsInterface}."
      }
    },
    "version": 1
  },
  "userdoc": {
    "kind": "user",
    "methods": {},
    "version": 1
  }
}