{
    "contractName": "UniDAO",
    "abi": [
        {
            "inputs": [
                {
                    "internalType": "address[]",
                    "name": "addr",
                    "type": "address[]"
                },
                {
                    "internalType": "address",
                    "name": "_trustedForwarder",
                    "type": "address"
                }
            ],
            "stateMutability": "nonpayable",
            "type": "constructor"
        },
        {
            "anonymous": false,
            "inputs": [
                {
                    "indexed": true,
                    "internalType": "address",
                    "name": "initiator",
                    "type": "address"
                },
                {
                    "indexed": false,
                    "internalType": "bytes32",
                    "name": "role",
                    "type": "bytes32"
                },
                {
                    "indexed": false,
                    "internalType": "string",
                    "name": "message",
                    "type": "string"
                }
            ],
            "name": "Action",
            "type": "event"
        },
        {
            "anonymous": false,
            "inputs": [
                {
                    "indexed": true,
                    "internalType": "bytes32",
                    "name": "role",
                    "type": "bytes32"
                },
                {
                    "indexed": true,
                    "internalType": "bytes32",
                    "name": "previousAdminRole",
                    "type": "bytes32"
                },
                {
                    "indexed": true,
                    "internalType": "bytes32",
                    "name": "newAdminRole",
                    "type": "bytes32"
                }
            ],
            "name": "RoleAdminChanged",
            "type": "event"
        },
        {
            "anonymous": false,
            "inputs": [
                {
                    "indexed": true,
                    "internalType": "bytes32",
                    "name": "role",
                    "type": "bytes32"
                },
                {
                    "indexed": true,
                    "internalType": "address",
                    "name": "account",
                    "type": "address"
                },
                {
                    "indexed": true,
                    "internalType": "address",
                    "name": "sender",
                    "type": "address"
                }
            ],
            "name": "RoleGranted",
            "type": "event"
        },
        {
            "anonymous": false,
            "inputs": [
                {
                    "indexed": true,
                    "internalType": "bytes32",
                    "name": "role",
                    "type": "bytes32"
                },
                {
                    "indexed": true,
                    "internalType": "address",
                    "name": "account",
                    "type": "address"
                },
                {
                    "indexed": true,
                    "internalType": "address",
                    "name": "sender",
                    "type": "address"
                }
            ],
            "name": "RoleRevoked",
            "type": "event"
        },
        {
            "inputs": [],
            "name": "DEFAULT_ADMIN_ROLE",
            "outputs": [
                {
                    "internalType": "bytes32",
                    "name": "",
                    "type": "bytes32"
                }
            ],
            "stateMutability": "view",
            "type": "function",
            "constant": true
        },
        {
            "inputs": [],
            "name": "admProposals",
            "outputs": [
                {
                    "internalType": "uint256",
                    "name": "",
                    "type": "uint256"
                }
            ],
            "stateMutability": "view",
            "type": "function",
            "constant": true
        },
        {
            "inputs": [
                {
                    "internalType": "bytes32",
                    "name": "role",
                    "type": "bytes32"
                }
            ],
            "name": "getRoleAdmin",
            "outputs": [
                {
                    "internalType": "bytes32",
                    "name": "",
                    "type": "bytes32"
                }
            ],
            "stateMutability": "view",
            "type": "function",
            "constant": true
        },
        {
            "inputs": [],
            "name": "getTrustedForwarder",
            "outputs": [
                {
                    "internalType": "address",
                    "name": "forwarder",
                    "type": "address"
                }
            ],
            "stateMutability": "view",
            "type": "function",
            "constant": true
        },
        {
            "inputs": [
                {
                    "internalType": "bytes32",
                    "name": "role",
                    "type": "bytes32"
                },
                {
                    "internalType": "address",
                    "name": "account",
                    "type": "address"
                }
            ],
            "name": "grantRole",
            "outputs": [],
            "stateMutability": "nonpayable",
            "type": "function"
        },
        {
            "inputs": [
                {
                    "internalType": "bytes32",
                    "name": "role",
                    "type": "bytes32"
                },
                {
                    "internalType": "address",
                    "name": "account",
                    "type": "address"
                }
            ],
            "name": "hasRole",
            "outputs": [
                {
                    "internalType": "bool",
                    "name": "",
                    "type": "bool"
                }
            ],
            "stateMutability": "view",
            "type": "function",
            "constant": true
        },
        {
            "inputs": [
                {
                    "internalType": "address",
                    "name": "forwarder",
                    "type": "address"
                }
            ],
            "name": "isTrustedForwarder",
            "outputs": [
                {
                    "internalType": "bool",
                    "name": "",
                    "type": "bool"
                }
            ],
            "stateMutability": "view",
            "type": "function",
            "constant": true
        },
        {
            "inputs": [
                {
                    "internalType": "bytes32",
                    "name": "role",
                    "type": "bytes32"
                },
                {
                    "internalType": "address",
                    "name": "account",
                    "type": "address"
                }
            ],
            "name": "renounceRole",
            "outputs": [],
            "stateMutability": "nonpayable",
            "type": "function"
        },
        {
            "inputs": [
                {
                    "internalType": "bytes32",
                    "name": "role",
                    "type": "bytes32"
                },
                {
                    "internalType": "address",
                    "name": "account",
                    "type": "address"
                }
            ],
            "name": "revokeRole",
            "outputs": [],
            "stateMutability": "nonpayable",
            "type": "function"
        },
        {
            "inputs": [
                {
                    "internalType": "bytes4",
                    "name": "interfaceId",
                    "type": "bytes4"
                }
            ],
            "name": "supportsInterface",
            "outputs": [
                {
                    "internalType": "bool",
                    "name": "",
                    "type": "bool"
                }
            ],
            "stateMutability": "view",
            "type": "function",
            "constant": true
        },
        {
            "inputs": [],
            "name": "totalProposal",
            "outputs": [
                {
                    "internalType": "uint256",
                    "name": "",
                    "type": "uint256"
                }
            ],
            "stateMutability": "view",
            "type": "function",
            "constant": true
        },
        {
            "inputs": [
                {
                    "internalType": "string",
                    "name": "_title",
                    "type": "string"
                },
                {
                    "internalType": "string",
                    "name": "_description",
                    "type": "string"
                },
                {
                    "internalType": "uint256",
                    "name": "_duration",
                    "type": "uint256"
                }
            ],
            "name": "createProposal",
            "outputs": [
                {
                    "components": [
                        {
                            "internalType": "uint256",
                            "name": "proposalId",
                            "type": "uint256"
                        },
                        {
                            "internalType": "string",
                            "name": "title",
                            "type": "string"
                        },
                        {
                            "internalType": "string",
                            "name": "description",
                            "type": "string"
                        },
                        {
                            "internalType": "uint256",
                            "name": "reactions",
                            "type": "uint256"
                        },
                        {
                            "internalType": "address",
                            "name": "proposer",
                            "type": "address"
                        },
                        {
                            "internalType": "uint256",
                            "name": "duration",
                            "type": "uint256"
                        },
                        {
                            "internalType": "bool",
                            "name": "passed",
                            "type": "bool"
                        },
                        {
                            "internalType": "uint256",
                            "name": "upvotes",
                            "type": "uint256"
                        },
                        {
                            "internalType": "uint256",
                            "name": "downvotes",
                            "type": "uint256"
                        },
                        {
                            "internalType": "bool",
                            "name": "enrol",
                            "type": "bool"
                        },
                        {
                            "internalType": "address[]",
                            "name": "change",
                            "type": "address[]"
                        },
                        {
                            "internalType": "uint256[]",
                            "name": "power",
                            "type": "uint256[]"
                        },
                        {
                            "internalType": "bool",
                            "name": "voter",
                            "type": "bool"
                        },
                        {
                            "internalType": "bool",
                            "name": "action",
                            "type": "bool"
                        }
                    ],
                    "internalType": "struct UniDAO.ProposalStruct",
                    "name": "",
                    "type": "tuple"
                }
            ],
            "stateMutability": "nonpayable",
            "type": "function"
        },
        {
            "inputs": [
                {
                    "internalType": "string",
                    "name": "_title",
                    "type": "string"
                },
                {
                    "internalType": "address[]",
                    "name": "addresses",
                    "type": "address[]"
                },
                {
                    "internalType": "uint256[]",
                    "name": "_power",
                    "type": "uint256[]"
                },
                {
                    "internalType": "bool",
                    "name": "_enrol",
                    "type": "bool"
                },
                {
                    "internalType": "bool",
                    "name": "_voter",
                    "type": "bool"
                }
            ],
            "name": "createAdminProposal",
            "outputs": [
                {
                    "components": [
                        {
                            "internalType": "uint256",
                            "name": "proposalId",
                            "type": "uint256"
                        },
                        {
                            "internalType": "string",
                            "name": "title",
                            "type": "string"
                        },
                        {
                            "internalType": "string",
                            "name": "description",
                            "type": "string"
                        },
                        {
                            "internalType": "uint256",
                            "name": "reactions",
                            "type": "uint256"
                        },
                        {
                            "internalType": "address",
                            "name": "proposer",
                            "type": "address"
                        },
                        {
                            "internalType": "uint256",
                            "name": "duration",
                            "type": "uint256"
                        },
                        {
                            "internalType": "bool",
                            "name": "passed",
                            "type": "bool"
                        },
                        {
                            "internalType": "uint256",
                            "name": "upvotes",
                            "type": "uint256"
                        },
                        {
                            "internalType": "uint256",
                            "name": "downvotes",
                            "type": "uint256"
                        },
                        {
                            "internalType": "bool",
                            "name": "enrol",
                            "type": "bool"
                        },
                        {
                            "internalType": "address[]",
                            "name": "change",
                            "type": "address[]"
                        },
                        {
                            "internalType": "uint256[]",
                            "name": "power",
                            "type": "uint256[]"
                        },
                        {
                            "internalType": "bool",
                            "name": "voter",
                            "type": "bool"
                        },
                        {
                            "internalType": "bool",
                            "name": "action",
                            "type": "bool"
                        }
                    ],
                    "internalType": "struct UniDAO.ProposalStruct",
                    "name": "",
                    "type": "tuple"
                }
            ],
            "stateMutability": "nonpayable",
            "type": "function"
        },
        {
            "inputs": [
                {
                    "internalType": "uint256",
                    "name": "_proposalId",
                    "type": "uint256"
                },
                {
                    "internalType": "uint256",
                    "name": "choosen",
                    "type": "uint256"
                }
            ],
            "name": "performAdminVote",
            "outputs": [],
            "stateMutability": "nonpayable",
            "type": "function"
        },
        {
            "inputs": [
                {
                    "internalType": "uint256",
                    "name": "_proposalId",
                    "type": "uint256"
                },
                {
                    "internalType": "uint256",
                    "name": "choosen",
                    "type": "uint256"
                }
            ],
            "name": "performVote",
            "outputs": [],
            "stateMutability": "nonpayable",
            "type": "function"
        },
        {
            "inputs": [],
            "name": "getProposals",
            "outputs": [
                {
                    "components": [
                        {
                            "internalType": "uint256",
                            "name": "proposalId",
                            "type": "uint256"
                        },
                        {
                            "internalType": "string",
                            "name": "title",
                            "type": "string"
                        },
                        {
                            "internalType": "string",
                            "name": "description",
                            "type": "string"
                        },
                        {
                            "internalType": "uint256",
                            "name": "reactions",
                            "type": "uint256"
                        },
                        {
                            "internalType": "address",
                            "name": "proposer",
                            "type": "address"
                        },
                        {
                            "internalType": "uint256",
                            "name": "duration",
                            "type": "uint256"
                        },
                        {
                            "internalType": "bool",
                            "name": "passed",
                            "type": "bool"
                        },
                        {
                            "internalType": "uint256",
                            "name": "upvotes",
                            "type": "uint256"
                        },
                        {
                            "internalType": "uint256",
                            "name": "downvotes",
                            "type": "uint256"
                        },
                        {
                            "internalType": "bool",
                            "name": "enrol",
                            "type": "bool"
                        },
                        {
                            "internalType": "address[]",
                            "name": "change",
                            "type": "address[]"
                        },
                        {
                            "internalType": "uint256[]",
                            "name": "power",
                            "type": "uint256[]"
                        },
                        {
                            "internalType": "bool",
                            "name": "voter",
                            "type": "bool"
                        },
                        {
                            "internalType": "bool",
                            "name": "action",
                            "type": "bool"
                        }
                    ],
                    "internalType": "struct UniDAO.ProposalStruct[]",
                    "name": "props",
                    "type": "tuple[]"
                }
            ],
            "stateMutability": "view",
            "type": "function",
            "constant": true
        },
        {
            "inputs": [
                {
                    "internalType": "uint256",
                    "name": "_proposalId",
                    "type": "uint256"
                }
            ],
            "name": "getProposal",
            "outputs": [
                {
                    "components": [
                        {
                            "internalType": "uint256",
                            "name": "proposalId",
                            "type": "uint256"
                        },
                        {
                            "internalType": "string",
                            "name": "title",
                            "type": "string"
                        },
                        {
                            "internalType": "string",
                            "name": "description",
                            "type": "string"
                        },
                        {
                            "internalType": "uint256",
                            "name": "reactions",
                            "type": "uint256"
                        },
                        {
                            "internalType": "address",
                            "name": "proposer",
                            "type": "address"
                        },
                        {
                            "internalType": "uint256",
                            "name": "duration",
                            "type": "uint256"
                        },
                        {
                            "internalType": "bool",
                            "name": "passed",
                            "type": "bool"
                        },
                        {
                            "internalType": "uint256",
                            "name": "upvotes",
                            "type": "uint256"
                        },
                        {
                            "internalType": "uint256",
                            "name": "downvotes",
                            "type": "uint256"
                        },
                        {
                            "internalType": "bool",
                            "name": "enrol",
                            "type": "bool"
                        },
                        {
                            "internalType": "address[]",
                            "name": "change",
                            "type": "address[]"
                        },
                        {
                            "internalType": "uint256[]",
                            "name": "power",
                            "type": "uint256[]"
                        },
                        {
                            "internalType": "bool",
                            "name": "voter",
                            "type": "bool"
                        },
                        {
                            "internalType": "bool",
                            "name": "action",
                            "type": "bool"
                        }
                    ],
                    "internalType": "struct UniDAO.ProposalStruct",
                    "name": "",
                    "type": "tuple"
                }
            ],
            "stateMutability": "view",
            "type": "function",
            "constant": true
        },
        {
            "inputs": [],
            "name": "isVoter",
            "outputs": [
                {
                    "internalType": "bool",
                    "name": "",
                    "type": "bool"
                }
            ],
            "stateMutability": "view",
            "type": "function",
            "constant": true
        },
        {
            "inputs": [],
            "name": "isAdmin",
            "outputs": [
                {
                    "internalType": "bool",
                    "name": "",
                    "type": "bool"
                }
            ],
            "stateMutability": "view",
            "type": "function",
            "constant": true
        },
        {
            "inputs": [],
            "name": "getAdminProposals",
            "outputs": [
                {
                    "components": [
                        {
                            "internalType": "uint256",
                            "name": "proposalId",
                            "type": "uint256"
                        },
                        {
                            "internalType": "string",
                            "name": "title",
                            "type": "string"
                        },
                        {
                            "internalType": "string",
                            "name": "description",
                            "type": "string"
                        },
                        {
                            "internalType": "uint256",
                            "name": "reactions",
                            "type": "uint256"
                        },
                        {
                            "internalType": "address",
                            "name": "proposer",
                            "type": "address"
                        },
                        {
                            "internalType": "uint256",
                            "name": "duration",
                            "type": "uint256"
                        },
                        {
                            "internalType": "bool",
                            "name": "passed",
                            "type": "bool"
                        },
                        {
                            "internalType": "uint256",
                            "name": "upvotes",
                            "type": "uint256"
                        },
                        {
                            "internalType": "uint256",
                            "name": "downvotes",
                            "type": "uint256"
                        },
                        {
                            "internalType": "bool",
                            "name": "enrol",
                            "type": "bool"
                        },
                        {
                            "internalType": "address[]",
                            "name": "change",
                            "type": "address[]"
                        },
                        {
                            "internalType": "uint256[]",
                            "name": "power",
                            "type": "uint256[]"
                        },
                        {
                            "internalType": "bool",
                            "name": "voter",
                            "type": "bool"
                        },
                        {
                            "internalType": "bool",
                            "name": "action",
                            "type": "bool"
                        }
                    ],
                    "internalType": "struct UniDAO.ProposalStruct[]",
                    "name": "props",
                    "type": "tuple[]"
                }
            ],
            "stateMutability": "view",
            "type": "function",
            "constant": true
        },
        {
            "inputs": [
                {
                    "internalType": "uint256",
                    "name": "_proposalId",
                    "type": "uint256"
                }
            ],
            "name": "getAdminProposal",
            "outputs": [
                {
                    "components": [
                        {
                            "internalType": "uint256",
                            "name": "proposalId",
                            "type": "uint256"
                        },
                        {
                            "internalType": "string",
                            "name": "title",
                            "type": "string"
                        },
                        {
                            "internalType": "string",
                            "name": "description",
                            "type": "string"
                        },
                        {
                            "internalType": "uint256",
                            "name": "reactions",
                            "type": "uint256"
                        },
                        {
                            "internalType": "address",
                            "name": "proposer",
                            "type": "address"
                        },
                        {
                            "internalType": "uint256",
                            "name": "duration",
                            "type": "uint256"
                        },
                        {
                            "internalType": "bool",
                            "name": "passed",
                            "type": "bool"
                        },
                        {
                            "internalType": "uint256",
                            "name": "upvotes",
                            "type": "uint256"
                        },
                        {
                            "internalType": "uint256",
                            "name": "downvotes",
                            "type": "uint256"
                        },
                        {
                            "internalType": "bool",
                            "name": "enrol",
                            "type": "bool"
                        },
                        {
                            "internalType": "address[]",
                            "name": "change",
                            "type": "address[]"
                        },
                        {
                            "internalType": "uint256[]",
                            "name": "power",
                            "type": "uint256[]"
                        },
                        {
                            "internalType": "bool",
                            "name": "voter",
                            "type": "bool"
                        },
                        {
                            "internalType": "bool",
                            "name": "action",
                            "type": "bool"
                        }
                    ],
                    "internalType": "struct UniDAO.ProposalStruct",
                    "name": "",
                    "type": "tuple"
                }
            ],
            "stateMutability": "view",
            "type": "function",
            "constant": true
        },
        {
            "inputs": [
                {
                    "internalType": "uint256",
                    "name": "_proposalId",
                    "type": "uint256"
                }
            ],
            "name": "performAction",
            "outputs": [],
            "stateMutability": "nonpayable",
            "type": "function"
        },
        {
            "inputs": [
                {
                    "internalType": "address[]",
                    "name": "addresses",
                    "type": "address[]"
                },
                {
                    "internalType": "uint256[]",
                    "name": "_power",
                    "type": "uint256[]"
                }
            ],
            "name": "enrollVoters",
            "outputs": [],
            "stateMutability": "nonpayable",
            "type": "function"
        }
    ],
    "bytecode": "0x6101006040527fdf8b4c520ffe197c5343c6f5aec59570151ef9a492f2c624fd45ddde6135ec426080908152507f15283fd96aa656c9df35ac2fcb112678a5f24f1ca97e591a97d1d16003dbfc9c60a090815250612a3063ffffffff1660c09063ffffffff16815250601e60e0908152503480156200007d57600080fd5b50604051620051ee380380620051ee8339818101604052810190620000a39190620006fb565b600160008190555060005b825181101562000285576005838281518110620000d057620000cf62000761565b5b60200260200101519080600181540180825580915050600190039060005260206000200160009091909190916101000a81548173ffffffffffffffffffffffffffffffffffffffff021916908373ffffffffffffffffffffffffffffffffffffffff1602179055506200016960805184838151811062000155576200015462000761565b5b60200260200101516200029f60201b60201c565b6200019a60a05184838151811062000186576200018562000761565b5b60200260200101516200029f60201b60201c565b6000600b6000858481518110620001b657620001b562000761565b5b602002602001015173ffffffffffffffffffffffffffffffffffffffff1673ffffffffffffffffffffffffffffffffffffffff16815260200190815260200160002060000154116200026f576000600b60008584815181106200021e576200021d62000761565b5b602002602001015173ffffffffffffffffffffffffffffffffffffffff1673ffffffffffffffffffffffffffffffffffffffff168152602001908152602001600020905060e0518160000181905550505b80806200027c90620007c9565b915050620000ae565b506200029781620002b560201b60201c565b505062000816565b620002b18282620002f960201b60201c565b5050565b80600260006101000a81548173ffffffffffffffffffffffffffffffffffffffff021916908373ffffffffffffffffffffffffffffffffffffffff16021790555050565b6200030b8282620003ea60201b60201c565b620003e657600180600084815260200190815260200160002060000160008373ffffffffffffffffffffffffffffffffffffffff1673ffffffffffffffffffffffffffffffffffffffff16815260200190815260200160002060006101000a81548160ff0219169083151502179055506200038b6200045560201b60201c565b73ffffffffffffffffffffffffffffffffffffffff168173ffffffffffffffffffffffffffffffffffffffff16837f2f8788117e7eff1d82e926ec794901d17c78024a50270940304540a733656f0d60405160405180910390a45b5050565b60006001600084815260200190815260200160002060000160008373ffffffffffffffffffffffffffffffffffffffff1673ffffffffffffffffffffffffffffffffffffffff16815260200190815260200160002060009054906101000a900460ff16905092915050565b60006200046c6200047160201b620025691760201c565b905090565b600060146000369050101580156200049657506200049533620004b360201b60201c565b5b15620004ac57601436033560601c9050620004b0565b3390505b90565b6000600260009054906101000a900473ffffffffffffffffffffffffffffffffffffffff1673ffffffffffffffffffffffffffffffffffffffff168273ffffffffffffffffffffffffffffffffffffffff16149050919050565b6000604051905090565b600080fd5b600080fd5b600080fd5b6000601f19601f8301169050919050565b7f4e487b7100000000000000000000000000000000000000000000000000000000600052604160045260246000fd5b620005718262000526565b810181811067ffffffffffffffff8211171562000593576200059262000537565b5b80604052505050565b6000620005a86200050d565b9050620005b6828262000566565b919050565b600067ffffffffffffffff821115620005d957620005d862000537565b5b602082029050602081019050919050565b600080fd5b600073ffffffffffffffffffffffffffffffffffffffff82169050919050565b60006200061c82620005ef565b9050919050565b6200062e816200060f565b81146200063a57600080fd5b50565b6000815190506200064e8162000623565b92915050565b60006200066b6200066584620005bb565b6200059c565b90508083825260208201905060208402830185811115620006915762000690620005ea565b5b835b81811015620006be5780620006a988826200063d565b84526020840193505060208101905062000693565b5050509392505050565b600082601f830112620006e057620006df62000521565b5b8151620006f284826020860162000654565b91505092915050565b6000806040838503121562000715576200071462000517565b5b600083015167ffffffffffffffff8111156200073657620007356200051c565b5b6200074485828601620006c8565b925050602062000757858286016200063d565b9150509250929050565b7f4e487b7100000000000000000000000000000000000000000000000000000000600052603260045260246000fd5b7f4e487b7100000000000000000000000000000000000000000000000000000000600052601160045260246000fd5b6000819050919050565b6000620007d682620007bf565b91507fffffffffffffffffffffffffffffffffffffffffffffffffffffffffffffffff82036200080b576200080a62000790565b5b600182019050919050565b60805160a05160c05160e0516149516200089d60003960006124800152600061084f0152600081816109c301528181610cc301528181610df201528181611fc001526124ac01526000818161050d015281816106940152818161070401528181611a0801528181611a3e01528181611c0901528181611ff601526122bf01526149516000f3fe608060405234801561001057600080fd5b506004361061014d5760003560e01c80636b3c6d6b116100c3578063c7f758a81161007c578063c7f758a8146103c4578063ce1b815f146103f4578063d547741f14610412578063d87c4be31461042e578063f004073a1461044c578063f1c5fd82146104685761014d565b80636b3c6d6b146102ee5780636e21721d1461031e57806391d148541461033c578063a217fddf1461036c578063b6db75a01461038a578063c5d06273146103a85761014d565b80632f2ff15d116101155780632f2ff15d1461023057806336568abe1461024c57806344eead951461026857806347b8ab3a14610284578063572b6c05146102a057806362564c48146102d05761014d565b806301ffc9a7146101525780630ce0ebf414610182578063240e31e9146101b2578063248a9ca3146101d057806327dafcf914610200575b600080fd5b61016c6004803603810190610167919061303a565b610486565b6040516101799190613082565b60405180910390f35b61019c60048036038101906101979190613219565b610500565b6040516101a99190613623565b60405180910390f35b6101ba6106d1565b6040516101c79190613654565b60405180910390f35b6101ea60048036038101906101e591906136a5565b6106d7565b6040516101f791906136e1565b60405180910390f35b61021a600480360381019061021591906138df565b6106f7565b6040516102279190613623565b60405180910390f35b61024a600480360381019061024591906139ae565b61091a565b005b610266600480360381019061026191906139ae565b61093b565b005b610282600480360381019061027d91906139ee565b6109be565b005b61029e60048036038101906102999190613a2e565b610cfd565b005b6102ba60048036038101906102b59190613aa6565b610e97565b6040516102c79190613082565b60405180910390f35b6102d8610ef1565b6040516102e59190613cd8565b60405180910390f35b61030860048036038101906103039190613cfa565b6112aa565b6040516103159190613623565b60405180910390f35b6103266115d6565b6040516103339190613cd8565b60405180910390f35b610356600480360381019061035191906139ae565b61198f565b6040516103639190613082565b60405180910390f35b6103746119fa565b60405161038191906136e1565b60405180910390f35b610392611a01565b60405161039f9190613082565b60405180910390f35b6103c260048036038101906103bd91906139ee565b611a39565b005b6103de60048036038101906103d99190613cfa565b611c42565b6040516103eb9190613623565b60405180910390f35b6103fc611f6e565b6040516104099190613d36565b60405180910390f35b61042c600480360381019061042791906139ae565b611f98565b005b610436611fb9565b6040516104439190613082565b60405180910390f35b61046660048036038101906104619190613cfa565b611ff1565b005b610470612563565b60405161047d9190613654565b60405180910390f35b60007f7965db0b000000000000000000000000000000000000000000000000000000007bffffffffffffffffffffffffffffffffffffffffffffffffffffffff1916827bffffffffffffffffffffffffffffffffffffffffffffffffffffffff191614806104f957506104f8826125a0565b5b9050919050565b610508612e4d565b6105397f000000000000000000000000000000000000000000000000000000000000000061053461260a565b61198f565b610578576040517f08c379a000000000000000000000000000000000000000000000000000000000815260040161056f90613dae565b60405180910390fd5b60006003600081548092919061058d90613dfd565b91905055905060006006600083815260200190815260200160002090508181600001819055506105bb61260a565b8160040160006101000a81548173ffffffffffffffffffffffffffffffffffffffff021916908373ffffffffffffffffffffffffffffffffffffffff1602179055508581600101908161060e9190614051565b50848160020190816106209190614051565b50834261062d9190614123565b816005018190555060008160030181905550600081600801819055506000816007018190555061065b61260a565b73ffffffffffffffffffffffffffffffffffffffff167ff4195914bd1a75ff318a3e75d2111a80cc0a9a8375aea50e407aec30082ea0e37f00000000000000000000000000000000000000000000000000000000000000006040516106c091906141a3565b60405180910390a250509392505050565b60045481565b600060016000838152602001908152602001600020600101549050919050565b6106ff612e4d565b6107307f000000000000000000000000000000000000000000000000000000000000000061072b61260a565b61198f565b61076f576040517f08c379a000000000000000000000000000000000000000000000000000000000815260040161076690613dae565b60405180910390fd5b60006004600081548092919061078490613dfd565b91905055905060006007600083815260200190815260200160002090508181600001819055506107b261260a565b8160040160006101000a81548173ffffffffffffffffffffffffffffffffffffffff021916908373ffffffffffffffffffffffffffffffffffffffff160217905550878160010190816108059190614051565b506040518060400160405280600b81526020017f61646d696e20766f74657300000000000000000000000000000000000000000081525081600201908161084c9190614051565b507f000000000000000000000000000000000000000000000000000000000000000063ffffffff164261087f9190614123565b81600501819055508681600a01908051906020019061089f929190612eda565b50848160090160006101000a81548160ff0219169083151502179055508381600c0160006101000a81548160ff0219169083151502179055506000816003018190555060008160080181905550600081600701819055508581600b01908051906020019061090e929190612f64565b50505095945050505050565b610923826106d7565b61092c81612619565b610936838361262d565b505050565b61094361260a565b73ffffffffffffffffffffffffffffffffffffffff168173ffffffffffffffffffffffffffffffffffffffff16146109b0576040517f08c379a00000000000000000000000000000000000000000000000000000000081526004016109a790614243565b60405180910390fd5b6109ba828261270d565b5050565b6109ef7f00000000000000000000000000000000000000000000000000000000000000006109ea61260a565b61198f565b610a2e576040517f08c379a0000000000000000000000000000000000000000000000000000000008152600401610a25906142d5565b60405180910390fd5b6000600660008481526020019081526020016000209050610a84816040518060400160405280600581526020017f766f7465720000000000000000000000000000000000000000000000000000008152506127ef565b6000600b6000610a9261260a565b73ffffffffffffffffffffffffffffffffffffffff1673ffffffffffffffffffffffffffffffffffffffff168152602001908152602001600020600001549050816003016000815480929190610ae790613dfd565b919050555060018303610b145780826007016000828254610b089190614123565b92505081905550610b30565b80826008016000828254610b289190614123565b925050819055505b60086000610b3c61260a565b73ffffffffffffffffffffffffffffffffffffffff1673ffffffffffffffffffffffffffffffffffffffff168152602001908152602001600020849080600181540180825580915050600190039060005260206000200160009091909190915055600a6000836000015481526020019081526020016000206040518060800160405280610bc761260a565b73ffffffffffffffffffffffffffffffffffffffff16815260200142815260200185815260200183815250908060018154018082558091505060019003906000526020600020906004020160009091909190915060008201518160000160006101000a81548173ffffffffffffffffffffffffffffffffffffffff021916908373ffffffffffffffffffffffffffffffffffffffff1602179055506020820151816001015560408201518160020155606082015181600301555050610c8a61260a565b73ffffffffffffffffffffffffffffffffffffffff167ff4195914bd1a75ff318a3e75d2111a80cc0a9a8375aea50e407aec30082ea0e37f0000000000000000000000000000000000000000000000000000000000000000604051610cef9190614341565b60405180910390a250505050565b60005b8251811015610e46576000600b6000858481518110610d2257610d2161436f565b5b602002602001015173ffffffffffffffffffffffffffffffffffffffff1673ffffffffffffffffffffffffffffffffffffffff1681526020019081526020016000206000015411610e33576000600b6000858481518110610d8657610d8561436f565b5b602002602001015173ffffffffffffffffffffffffffffffffffffffff1673ffffffffffffffffffffffffffffffffffffffff1681526020019081526020016000209050828281518110610ddd57610ddc61436f565b5b60200260200101518160000181905550610e317f0000000000000000000000000000000000000000000000000000000000000000858481518110610e2457610e2361436f565b5b6020026020010151612af8565b505b8080610e3e90613dfd565b915050610d00565b503073ffffffffffffffffffffffffffffffffffffffff167ff4195914bd1a75ff318a3e75d2111a80cc0a9a8375aea50e407aec30082ea0e3604051610e8b90614410565b60405180910390a25050565b6000600260009054906101000a900473ffffffffffffffffffffffffffffffffffffffff1673ffffffffffffffffffffffffffffffffffffffff168273ffffffffffffffffffffffffffffffffffffffff16149050919050565b606060035467ffffffffffffffff811115610f0f57610f0e6130b8565b5b604051908082528060200260200182016040528015610f4857816020015b610f35612e4d565b815260200190600190039081610f2d5790505b50905060005b6003548110156112a65760066000828152602001908152602001600020604051806101c001604052908160008201548152602001600182018054610f9190613e74565b80601f0160208091040260200160405190810160405280929190818152602001828054610fbd90613e74565b801561100a5780601f10610fdf5761010080835404028352916020019161100a565b820191906000526020600020905b815481529060010190602001808311610fed57829003601f168201915b5050505050815260200160028201805461102390613e74565b80601f016020809104026020016040519081016040528092919081815260200182805461104f90613e74565b801561109c5780601f106110715761010080835404028352916020019161109c565b820191906000526020600020905b81548152906001019060200180831161107f57829003601f168201915b50505050508152602001600382015481526020016004820160009054906101000a900473ffffffffffffffffffffffffffffffffffffffff1673ffffffffffffffffffffffffffffffffffffffff1673ffffffffffffffffffffffffffffffffffffffff168152602001600582015481526020016006820160009054906101000a900460ff1615151515815260200160078201548152602001600882015481526020016009820160009054906101000a900460ff16151515158152602001600a82018054806020026020016040519081016040528092919081815260200182805480156111de57602002820191906000526020600020905b8160009054906101000a900473ffffffffffffffffffffffffffffffffffffffff1673ffffffffffffffffffffffffffffffffffffffff1681526020019060010190808311611194575b50505050508152602001600b820180548060200260200160405190810160405280929190818152602001828054801561123657602002820191906000526020600020905b815481526020019060010190808311611222575b50505050508152602001600c820160009054906101000a900460ff16151515158152602001600c820160019054906101000a900460ff1615151515815250508282815181106112885761128761436f565b5b6020026020010181905250808061129e90613dfd565b915050610f4e565b5090565b6112b2612e4d565b60076000838152602001908152602001600020604051806101c0016040529081600082015481526020016001820180546112eb90613e74565b80601f016020809104026020016040519081016040528092919081815260200182805461131790613e74565b80156113645780601f1061133957610100808354040283529160200191611364565b820191906000526020600020905b81548152906001019060200180831161134757829003601f168201915b5050505050815260200160028201805461137d90613e74565b80601f01602080910402602001604051908101604052809291908181526020018280546113a990613e74565b80156113f65780601f106113cb576101008083540402835291602001916113f6565b820191906000526020600020905b8154815290600101906020018083116113d957829003601f168201915b50505050508152602001600382015481526020016004820160009054906101000a900473ffffffffffffffffffffffffffffffffffffffff1673ffffffffffffffffffffffffffffffffffffffff1673ffffffffffffffffffffffffffffffffffffffff168152602001600582015481526020016006820160009054906101000a900460ff1615151515815260200160078201548152602001600882015481526020016009820160009054906101000a900460ff16151515158152602001600a820180548060200260200160405190810160405280929190818152602001828054801561153857602002820191906000526020600020905b8160009054906101000a900473ffffffffffffffffffffffffffffffffffffffff1673ffffffffffffffffffffffffffffffffffffffff16815260200190600101908083116114ee575b50505050508152602001600b820180548060200260200160405190810160405280929190818152602001828054801561159057602002820191906000526020600020905b81548152602001906001019080831161157c575b50505050508152602001600c820160009054906101000a900460ff16151515158152602001600c820160019054906101000a900460ff1615151515815250509050919050565b606060035467ffffffffffffffff8111156115f4576115f36130b8565b5b60405190808252806020026020018201604052801561162d57816020015b61161a612e4d565b8152602001906001900390816116125790505b50905060005b60035481101561198b5760076000828152602001908152602001600020604051806101c00160405290816000820154815260200160018201805461167690613e74565b80601f01602080910402602001604051908101604052809291908181526020018280546116a290613e74565b80156116ef5780601f106116c4576101008083540402835291602001916116ef565b820191906000526020600020905b8154815290600101906020018083116116d257829003601f168201915b5050505050815260200160028201805461170890613e74565b80601f016020809104026020016040519081016040528092919081815260200182805461173490613e74565b80156117815780601f1061175657610100808354040283529160200191611781565b820191906000526020600020905b81548152906001019060200180831161176457829003601f168201915b50505050508152602001600382015481526020016004820160009054906101000a900473ffffffffffffffffffffffffffffffffffffffff1673ffffffffffffffffffffffffffffffffffffffff1673ffffffffffffffffffffffffffffffffffffffff168152602001600582015481526020016006820160009054906101000a900460ff1615151515815260200160078201548152602001600882015481526020016009820160009054906101000a900460ff16151515158152602001600a82018054806020026020016040519081016040528092919081815260200182805480156118c357602002820191906000526020600020905b8160009054906101000a900473ffffffffffffffffffffffffffffffffffffffff1673ffffffffffffffffffffffffffffffffffffffff1681526020019060010190808311611879575b50505050508152602001600b820180548060200260200160405190810160405280929190818152602001828054801561191b57602002820191906000526020600020905b815481526020019060010190808311611907575b50505050508152602001600c820160009054906101000a900460ff16151515158152602001600c820160019054906101000a900460ff16151515158152505082828151811061196d5761196c61436f565b5b6020026020010181905250808061198390613dfd565b915050611633565b5090565b60006001600084815260200190815260200160002060000160008373ffffffffffffffffffffffffffffffffffffffff1673ffffffffffffffffffffffffffffffffffffffff16815260200190815260200160002060009054906101000a900460ff16905092915050565b6000801b81565b6000611a347f0000000000000000000000000000000000000000000000000000000000000000611a2f61260a565b61198f565b905090565b611a6a7f0000000000000000000000000000000000000000000000000000000000000000611a6561260a565b61198f565b611aa9576040517f08c379a0000000000000000000000000000000000000000000000000000000008152600401611aa090613dae565b60405180910390fd5b6000600760008481526020019081526020016000209050611aff816040518060400160405280600581526020017f61646d696e0000000000000000000000000000000000000000000000000000008152506127ef565b806003016000815480929190611b1490613dfd565b919050555060018203611b4057806007016000815480929190611b3690613dfd565b9190505550611b5b565b806008016000815480929190611b5590613dfd565b91905055505b60096000611b6761260a565b73ffffffffffffffffffffffffffffffffffffffff1673ffffffffffffffffffffffffffffffffffffffff168152602001908152602001600020839080600181540180825580915050600190039060005260206000200160009091909190915055611bd061260a565b73ffffffffffffffffffffffffffffffffffffffff167ff4195914bd1a75ff318a3e75d2111a80cc0a9a8375aea50e407aec30082ea0e37f0000000000000000000000000000000000000000000000000000000000000000604051611c359190614341565b60405180910390a2505050565b611c4a612e4d565b60066000838152602001908152602001600020604051806101c001604052908160008201548152602001600182018054611c8390613e74565b80601f0160208091040260200160405190810160405280929190818152602001828054611caf90613e74565b8015611cfc5780601f10611cd157610100808354040283529160200191611cfc565b820191906000526020600020905b815481529060010190602001808311611cdf57829003601f168201915b50505050508152602001600282018054611d1590613e74565b80601f0160208091040260200160405190810160405280929190818152602001828054611d4190613e74565b8015611d8e5780601f10611d6357610100808354040283529160200191611d8e565b820191906000526020600020905b815481529060010190602001808311611d7157829003601f168201915b50505050508152602001600382015481526020016004820160009054906101000a900473ffffffffffffffffffffffffffffffffffffffff1673ffffffffffffffffffffffffffffffffffffffff1673ffffffffffffffffffffffffffffffffffffffff168152602001600582015481526020016006820160009054906101000a900460ff1615151515815260200160078201548152602001600882015481526020016009820160009054906101000a900460ff16151515158152602001600a8201805480602002602001604051908101604052809291908181526020018280548015611ed057602002820191906000526020600020905b8160009054906101000a900473ffffffffffffffffffffffffffffffffffffffff1673ffffffffffffffffffffffffffffffffffffffff1681526020019060010190808311611e86575b50505050508152602001600b8201805480602002602001604051908101604052809291908181526020018280548015611f2857602002820191906000526020600020905b815481526020019060010190808311611f14575b50505050508152602001600c820160009054906101000a900460ff16151515158152602001600c820160019054906101000a900460ff1615151515815250509050919050565b6000600260009054906101000a900473ffffffffffffffffffffffffffffffffffffffff16905090565b611fa1826106d7565b611faa81612619565b611fb4838361270d565b505050565b6000611fec7f0000000000000000000000000000000000000000000000000000000000000000611fe761260a565b61198f565b905090565b6120227f000000000000000000000000000000000000000000000000000000000000000061201d61260a565b61198f565b612061576040517f08c379a000000000000000000000000000000000000000000000000000000000815260040161205890613dae565b60405180910390fd5b612069612b06565b600060076000838152602001908152602001600020905080600c0160019054906101000a900460ff16156120d2576040517f08c379a00000000000000000000000000000000000000000000000000000000081526004016120c990614488565b60405180910390fd5b80600701548160080154111561211d576040517f08c379a0000000000000000000000000000000000000000000000000000000008152600401612114906144f4565b60405180910390fd5b600181600c0160016101000a81548160ff02191690831515021790555080600c0160009054906101000a900460ff1615612291578060090160009054906101000a900460ff16156122515761224c81600a018054806020026020016040519081016040528092919081815260200182805480156121ef57602002820191906000526020600020905b8160009054906101000a900473ffffffffffffffffffffffffffffffffffffffff1673ffffffffffffffffffffffffffffffffffffffff16815260200190600101908083116121a5575b505050505082600b0180548060200260200160405190810160405280929190818152602001828054801561224257602002820191906000526020600020905b81548152602001906001019080831161222e575b5050505050610cfd565b61228c565b6040517f08c379a000000000000000000000000000000000000000000000000000000000815260040161228390614560565b60405180910390fd5b612557565b8060090160009054906101000a900460ff161561251b5760005b81600a0180549050811015612515576123247f000000000000000000000000000000000000000000000000000000000000000083600a0183815481106122f4576122f361436f565b5b9060005260206000200160009054906101000a900473ffffffffffffffffffffffffffffffffffffffff16612af8565b600082600a018054806020026020016040519081016040528092919081815260200182805480156123aa57602002820191906000526020600020905b8160009054906101000a900473ffffffffffffffffffffffffffffffffffffffff1673ffffffffffffffffffffffffffffffffffffffff1681526020019060010190808311612360575b5050505050905060005b8151811015612500576000600b60008484815181106123d6576123d561436f565b5b602002602001015173ffffffffffffffffffffffffffffffffffffffff1673ffffffffffffffffffffffffffffffffffffffff16815260200190815260200160002060000154116124ed576000600b600084848151811061243a5761243961436f565b5b602002602001015173ffffffffffffffffffffffffffffffffffffffff1673ffffffffffffffffffffffffffffffffffffffff16815260200190815260200160002090507f000000000000000000000000000000000000000000000000000000000000000081600001819055506124eb7f00000000000000000000000000000000000000000000000000000000000000008484815181106124de576124dd61436f565b5b6020026020010151612af8565b505b80806124f890613dfd565b9150506123b4565b5050808061250d90613dfd565b9150506122ab565b50612556565b6040517f08c379a000000000000000000000000000000000000000000000000000000000815260040161254d90614560565b60405180910390fd5b5b50612560612b55565b50565b60035481565b60006014600036905010158015612585575061258433610e97565b5b1561259957601436033560601c905061259d565b3390505b90565b60007f01ffc9a7000000000000000000000000000000000000000000000000000000007bffffffffffffffffffffffffffffffffffffffffffffffffffffffff1916827bffffffffffffffffffffffffffffffffffffffffffffffffffffffff1916149050919050565b6000612614612569565b905090565b61262a8161262561260a565b612b5f565b50565b612637828261198f565b61270957600180600084815260200190815260200160002060000160008373ffffffffffffffffffffffffffffffffffffffff1673ffffffffffffffffffffffffffffffffffffffff16815260200190815260200160002060006101000a81548160ff0219169083151502179055506126ae61260a565b73ffffffffffffffffffffffffffffffffffffffff168173ffffffffffffffffffffffffffffffffffffffff16837f2f8788117e7eff1d82e926ec794901d17c78024a50270940304540a733656f0d60405160405180910390a45b5050565b612717828261198f565b156127eb5760006001600084815260200190815260200160002060000160008373ffffffffffffffffffffffffffffffffffffffff1673ffffffffffffffffffffffffffffffffffffffff16815260200190815260200160002060006101000a81548160ff02191690831515021790555061279061260a565b73ffffffffffffffffffffffffffffffffffffffff168173ffffffffffffffffffffffffffffffffffffffff16837ff6391f5c32d9c69d2a47ea670b442974b53935d1edc7fd64eb21e047a839171b60405160405180910390a45b5050565b8160060160009054906101000a900460ff1680612810575042826005015411155b1561286d5760018260060160006101000a81548160ff0219169083151502179055506040517f08c379a0000000000000000000000000000000000000000000000000000000008152600401612864906145cc565b60405180910390fd5b7ff23ec0bb4210edd5cba85afd05127efcd2fc6a781bfed49188da1081670b22d88160405160200161289f9190614628565b60405160208183030381529060405280519060200120036129d9576000600960006128c861260a565b73ffffffffffffffffffffffffffffffffffffffff1673ffffffffffffffffffffffffffffffffffffffff16815260200190815260200160002080548060200260200160405190810160405280929190818152602001828054801561294c57602002820191906000526020600020905b815481526020019060010190808311612938575b5050505050905060005b81518110156129d2578181815181106129725761297161436f565b5b60200260200101518460000154036129bf576040517f08c379a00000000000000000000000000000000000000000000000000000000081526004016129b69061468b565b60405180910390fd5b80806129ca90613dfd565b915050612956565b5050612af4565b6000600860006129e761260a565b73ffffffffffffffffffffffffffffffffffffffff1673ffffffffffffffffffffffffffffffffffffffff168152602001908152602001600020805480602002602001604051908101604052809291908181526020018280548015612a6b57602002820191906000526020600020905b815481526020019060010190808311612a57575b5050505050905060005b8151811015612af157818181518110612a9157612a9061436f565b5b6020026020010151846000015403612ade576040517f08c379a0000000000000000000000000000000000000000000000000000000008152600401612ad59061468b565b60405180910390fd5b8080612ae990613dfd565b915050612a75565b50505b5050565b612b02828261262d565b5050565b600260005403612b4b576040517f08c379a0000000000000000000000000000000000000000000000000000000008152600401612b42906146f7565b60405180910390fd5b6002600081905550565b6001600081905550565b612b69828261198f565b612be057612b7681612be4565b612b848360001c6020612c11565b604051602001612b959291906147af565b6040516020818303038152906040526040517f08c379a0000000000000000000000000000000000000000000000000000000008152600401612bd79190614822565b60405180910390fd5b5050565b6060612c0a8273ffffffffffffffffffffffffffffffffffffffff16601460ff16612c11565b9050919050565b606060006002836002612c249190614844565b612c2e9190614123565b67ffffffffffffffff811115612c4757612c466130b8565b5b6040519080825280601f01601f191660200182016040528015612c795781602001600182028036833780820191505090505b5090507f300000000000000000000000000000000000000000000000000000000000000081600081518110612cb157612cb061436f565b5b60200101907effffffffffffffffffffffffffffffffffffffffffffffffffffffffffffff1916908160001a9053507f780000000000000000000000000000000000000000000000000000000000000081600181518110612d1557612d1461436f565b5b60200101907effffffffffffffffffffffffffffffffffffffffffffffffffffffffffffff1916908160001a90535060006001846002612d559190614844565b612d5f9190614123565b90505b6001811115612dff577f3031323334353637383961626364656600000000000000000000000000000000600f861660108110612da157612da061436f565b5b1a60f81b828281518110612db857612db761436f565b5b60200101907effffffffffffffffffffffffffffffffffffffffffffffffffffffffffffff1916908160001a905350600485901c945080612df890614886565b9050612d62565b5060008414612e43576040517f08c379a0000000000000000000000000000000000000000000000000000000008152600401612e3a906148fb565b60405180910390fd5b8091505092915050565b604051806101c0016040528060008152602001606081526020016060815260200160008152602001600073ffffffffffffffffffffffffffffffffffffffff16815260200160008152602001600015158152602001600081526020016000815260200160001515815260200160608152602001606081526020016000151581526020016000151581525090565b828054828255906000526020600020908101928215612f53579160200282015b82811115612f525782518260006101000a81548173ffffffffffffffffffffffffffffffffffffffff021916908373ffffffffffffffffffffffffffffffffffffffff16021790555091602001919060010190612efa565b5b509050612f609190612fb1565b5090565b828054828255906000526020600020908101928215612fa0579160200282015b82811115612f9f578251825591602001919060010190612f84565b5b509050612fad9190612fb1565b5090565b5b80821115612fca576000816000905550600101612fb2565b5090565b6000604051905090565b600080fd5b600080fd5b60007fffffffff0000000000000000000000000000000000000000000000000000000082169050919050565b61301781612fe2565b811461302257600080fd5b50565b6000813590506130348161300e565b92915050565b6000602082840312156130505761304f612fd8565b5b600061305e84828501613025565b91505092915050565b60008115159050919050565b61307c81613067565b82525050565b60006020820190506130976000830184613073565b92915050565b600080fd5b600080fd5b6000601f19601f8301169050919050565b7f4e487b7100000000000000000000000000000000000000000000000000000000600052604160045260246000fd5b6130f0826130a7565b810181811067ffffffffffffffff8211171561310f5761310e6130b8565b5b80604052505050565b6000613122612fce565b905061312e82826130e7565b919050565b600067ffffffffffffffff82111561314e5761314d6130b8565b5b613157826130a7565b9050602081019050919050565b82818337600083830152505050565b600061318661318184613133565b613118565b9050828152602081018484840111156131a2576131a16130a2565b5b6131ad848285613164565b509392505050565b600082601f8301126131ca576131c961309d565b5b81356131da848260208601613173565b91505092915050565b6000819050919050565b6131f6816131e3565b811461320157600080fd5b50565b600081359050613213816131ed565b92915050565b60008060006060848603121561323257613231612fd8565b5b600084013567ffffffffffffffff8111156132505761324f612fdd565b5b61325c868287016131b5565b935050602084013567ffffffffffffffff81111561327d5761327c612fdd565b5b613289868287016131b5565b925050604061329a86828701613204565b9150509250925092565b6132ad816131e3565b82525050565b600081519050919050565b600082825260208201905092915050565b60005b838110156132ed5780820151818401526020810190506132d2565b60008484015250505050565b6000613304826132b3565b61330e81856132be565b935061331e8185602086016132cf565b613327816130a7565b840191505092915050565b600073ffffffffffffffffffffffffffffffffffffffff82169050919050565b600061335d82613332565b9050919050565b61336d81613352565b82525050565b61337c81613067565b82525050565b600081519050919050565b600082825260208201905092915050565b6000819050602082019050919050565b60006133ba8383613364565b60208301905092915050565b6000602082019050919050565b60006133de82613382565b6133e8818561338d565b93506133f38361339e565b8060005b8381101561342457815161340b88826133ae565b9750613416836133c6565b9250506001810190506133f7565b5085935050505092915050565b600081519050919050565b600082825260208201905092915050565b6000819050602082019050919050565b600061346983836132a4565b60208301905092915050565b6000602082019050919050565b600061348d82613431565b613497818561343c565b93506134a28361344d565b8060005b838110156134d35781516134ba888261345d565b97506134c583613475565b9250506001810190506134a6565b5085935050505092915050565b60006101c0830160008301516134f960008601826132a4565b506020830151848203602086015261351182826132f9565b9150506040830151848203604086015261352b82826132f9565b915050606083015161354060608601826132a4565b5060808301516135536080860182613364565b5060a083015161356660a08601826132a4565b5060c083015161357960c0860182613373565b5060e083015161358c60e08601826132a4565b506101008301516135a16101008601826132a4565b506101208301516135b6610120860182613373565b506101408301518482036101408601526135d082826133d3565b9150506101608301518482036101608601526135ec8282613482565b915050610180830151613603610180860182613373565b506101a08301516136186101a0860182613373565b508091505092915050565b6000602082019050818103600083015261363d81846134e0565b905092915050565b61364e816131e3565b82525050565b60006020820190506136696000830184613645565b92915050565b6000819050919050565b6136828161366f565b811461368d57600080fd5b50565b60008135905061369f81613679565b92915050565b6000602082840312156136bb576136ba612fd8565b5b60006136c984828501613690565b91505092915050565b6136db8161366f565b82525050565b60006020820190506136f660008301846136d2565b92915050565b600067ffffffffffffffff821115613717576137166130b8565b5b602082029050602081019050919050565b600080fd5b61373681613352565b811461374157600080fd5b50565b6000813590506137538161372d565b92915050565b600061376c613767846136fc565b613118565b9050808382526020820190506020840283018581111561378f5761378e613728565b5b835b818110156137b857806137a48882613744565b845260208401935050602081019050613791565b5050509392505050565b600082601f8301126137d7576137d661309d565b5b81356137e7848260208601613759565b91505092915050565b600067ffffffffffffffff82111561380b5761380a6130b8565b5b602082029050602081019050919050565b600061382f61382a846137f0565b613118565b9050808382526020820190506020840283018581111561385257613851613728565b5b835b8181101561387b57806138678882613204565b845260208401935050602081019050613854565b5050509392505050565b600082601f83011261389a5761389961309d565b5b81356138aa84826020860161381c565b91505092915050565b6138bc81613067565b81146138c757600080fd5b50565b6000813590506138d9816138b3565b92915050565b600080600080600060a086880312156138fb576138fa612fd8565b5b600086013567ffffffffffffffff81111561391957613918612fdd565b5b613925888289016131b5565b955050602086013567ffffffffffffffff81111561394657613945612fdd565b5b613952888289016137c2565b945050604086013567ffffffffffffffff81111561397357613972612fdd565b5b61397f88828901613885565b9350506060613990888289016138ca565b92505060806139a1888289016138ca565b9150509295509295909350565b600080604083850312156139c5576139c4612fd8565b5b60006139d385828601613690565b92505060206139e485828601613744565b9150509250929050565b60008060408385031215613a0557613a04612fd8565b5b6000613a1385828601613204565b9250506020613a2485828601613204565b9150509250929050565b60008060408385031215613a4557613a44612fd8565b5b600083013567ffffffffffffffff811115613a6357613a62612fdd565b5b613a6f858286016137c2565b925050602083013567ffffffffffffffff811115613a9057613a8f612fdd565b5b613a9c85828601613885565b9150509250929050565b600060208284031215613abc57613abb612fd8565b5b6000613aca84828501613744565b91505092915050565b600081519050919050565b600082825260208201905092915050565b6000819050602082019050919050565b60006101c083016000830151613b1860008601826132a4565b5060208301518482036020860152613b3082826132f9565b91505060408301518482036040860152613b4a82826132f9565b9150506060830151613b5f60608601826132a4565b506080830151613b726080860182613364565b5060a0830151613b8560a08601826132a4565b5060c0830151613b9860c0860182613373565b5060e0830151613bab60e08601826132a4565b50610100830151613bc06101008601826132a4565b50610120830151613bd5610120860182613373565b50610140830151848203610140860152613bef82826133d3565b915050610160830151848203610160860152613c0b8282613482565b915050610180830151613c22610180860182613373565b506101a0830151613c376101a0860182613373565b508091505092915050565b6000613c4e8383613aff565b905092915050565b6000602082019050919050565b6000613c6e82613ad3565b613c788185613ade565b935083602082028501613c8a85613aef565b8060005b85811015613cc65784840389528151613ca78582613c42565b9450613cb283613c56565b925060208a01995050600181019050613c8e565b50829750879550505050505092915050565b60006020820190508181036000830152613cf28184613c63565b905092915050565b600060208284031215613d1057613d0f612fd8565b5b6000613d1e84828501613204565b91505092915050565b613d3081613352565b82525050565b6000602082019050613d4b6000830184613d27565b92915050565b600082825260208201905092915050565b7f556e617574686f72697a6564203a206f6e6c7920666f722061646d696e000000600082015250565b6000613d98601d83613d51565b9150613da382613d62565b602082019050919050565b60006020820190508181036000830152613dc781613d8b565b9050919050565b7f4e487b7100000000000000000000000000000000000000000000000000000000600052601160045260246000fd5b6000613e08826131e3565b91507fffffffffffffffffffffffffffffffffffffffffffffffffffffffffffffffff8203613e3a57613e39613dce565b5b600182019050919050565b7f4e487b7100000000000000000000000000000000000000000000000000000000600052602260045260246000fd5b60006002820490506001821680613e8c57607f821691505b602082108103613e9f57613e9e613e45565b5b50919050565b60008190508160005260206000209050919050565b60006020601f8301049050919050565b600082821b905092915050565b600060088302613f077fffffffffffffffffffffffffffffffffffffffffffffffffffffffffffffffff82613eca565b613f118683613eca565b95508019841693508086168417925050509392505050565b6000819050919050565b6000613f4e613f49613f44846131e3565b613f29565b6131e3565b9050919050565b6000819050919050565b613f6883613f33565b613f7c613f7482613f55565b848454613ed7565b825550505050565b600090565b613f91613f84565b613f9c818484613f5f565b505050565b5b81811015613fc057613fb5600082613f89565b600181019050613fa2565b5050565b601f82111561400557613fd681613ea5565b613fdf84613eba565b81016020851015613fee578190505b614002613ffa85613eba565b830182613fa1565b50505b505050565b600082821c905092915050565b60006140286000198460080261400a565b1980831691505092915050565b60006140418383614017565b9150826002028217905092915050565b61405a826132b3565b67ffffffffffffffff811115614073576140726130b8565b5b61407d8254613e74565b614088828285613fc4565b600060209050601f8311600181146140bb57600084156140a9578287015190505b6140b38582614035565b86555061411b565b601f1984166140c986613ea5565b60005b828110156140f1578489015182556001820191506020850194506020810190506140cc565b8683101561410e578489015161410a601f891682614017565b8355505b6001600288020188555050505b505050505050565b600061412e826131e3565b9150614139836131e3565b925082820190508082111561415157614150613dce565b5b92915050565b7f50726f706f73616c207261697365640000000000000000000000000000000000600082015250565b600061418d600f83613d51565b915061419882614157565b602082019050919050565b60006040820190506141b860008301846136d2565b81810360208301526141c981614180565b905092915050565b7f416363657373436f6e74726f6c3a2063616e206f6e6c792072656e6f756e636560008201527f20726f6c657320666f722073656c660000000000000000000000000000000000602082015250565b600061422d602f83613d51565b9150614238826141d1565b604082019050919050565b6000602082019050818103600083015261425c81614220565b9050919050565b7f556e617574686f72697a6564203a206f6e6c7920666f722070656f706c65206560008201527f6e726f6c6c656420696e207468697320696e737469747574696f6e0000000000602082015250565b60006142bf603b83613d51565b91506142ca82614263565b604082019050919050565b600060208201905081810360008301526142ee816142b2565b9050919050565b7f766f746564000000000000000000000000000000000000000000000000000000600082015250565b600061432b600583613d51565b9150614336826142f5565b602082019050919050565b600060408201905061435660008301846136d2565b81810360208301526143678161431e565b905092915050565b7f4e487b7100000000000000000000000000000000000000000000000000000000600052603260045260246000fd5b7f41444d494e5f524f4c4500000000000000000000000000000000000000000000815250565b7f416464726573736573206164646564207375636365737366756c6c7900000000600082015250565b60006143fa601c83613d51565b9150614405826143c4565b602082019050919050565b60006040820190506144246000830161439e565b8181036020830152614435816143ed565b9050919050565b7f416374696f6e20616c726561647920706572666f726d65640000000000000000600082015250565b6000614472601883613d51565b915061447d8261443c565b602082019050919050565b600060208201905081810360008301526144a181614465565b9050919050565b7f496e73756666696369656e7420766f7465730000000000000000000000000000600082015250565b60006144de601283613d51565b91506144e9826144a8565b602082019050919050565b6000602082019050818103600083015261450d816144d1565b9050919050565b7f436f6d696e6720736f6f6e000000000000000000000000000000000000000000600082015250565b600061454a600b83613d51565b915061455582614514565b602082019050919050565b600060208201905081810360008301526145798161453d565b9050919050565b7f50726f706f73616c206861732065787069726564000000000000000000000000600082015250565b60006145b6601483613d51565b91506145c182614580565b602082019050919050565b600060208201905081810360008301526145e5816145a9565b9050919050565b600081905092915050565b6000614602826132b3565b61460c81856145ec565b935061461c8185602086016132cf565b80840191505092915050565b600061463482846145f7565b915081905092915050565b7f596f75206861766520616c726561647920766f74656400000000000000000000600082015250565b6000614675601683613d51565b91506146808261463f565b602082019050919050565b600060208201905081810360008301526146a481614668565b9050919050565b7f5265656e7472616e637947756172643a207265656e7472616e742063616c6c00600082015250565b60006146e1601f83613d51565b91506146ec826146ab565b602082019050919050565b60006020820190508181036000830152614710816146d4565b9050919050565b7f416363657373436f6e74726f6c3a206163636f756e7420000000000000000000600082015250565b600061474d6017836145ec565b915061475882614717565b601782019050919050565b7f206973206d697373696e6720726f6c6520000000000000000000000000000000600082015250565b60006147996011836145ec565b91506147a482614763565b601182019050919050565b60006147ba82614740565b91506147c682856145f7565b91506147d18261478c565b91506147dd82846145f7565b91508190509392505050565b60006147f4826132b3565b6147fe8185613d51565b935061480e8185602086016132cf565b614817816130a7565b840191505092915050565b6000602082019050818103600083015261483c81846147e9565b905092915050565b600061484f826131e3565b915061485a836131e3565b9250828202614868816131e3565b9150828204841483151761487f5761487e613dce565b5b5092915050565b6000614891826131e3565b9150600082036148a4576148a3613dce565b5b600182039050919050565b7f537472696e67733a20686578206c656e67746820696e73756666696369656e74600082015250565b60006148e5602083613d51565b91506148f0826148af565b602082019050919050565b60006020820190508181036000830152614914816148d8565b905091905056fea264697066735822122080f014d7f356c984c0de45821d9815919ff6a8043f48250a84b3fcfc4c6c56e364736f6c63430008110033",
    "immutableReferences": {
        "1716": [
            {
                "length": 32,
                "start": 1293
            },
            {
                "length": 32,
                "start": 1684
            },
            {
                "length": 32,
                "start": 1796
            },
            {
                "length": 32,
                "start": 6664
            },
            {
                "length": 32,
                "start": 6718
            },
            {
                "length": 32,
                "start": 7177
            },
            {
                "length": 32,
                "start": 8182
            },
            {
                "length": 32,
                "start": 8895
            }
        ],
        "1721": [
            {
                "length": 32,
                "start": 2499
            },
            {
                "length": 32,
                "start": 3267
            },
            {
                "length": 32,
                "start": 3570
            },
            {
                "length": 32,
                "start": 8128
            },
            {
                "length": 32,
                "start": 9388
            }
        ],
        "1728": [
            {
                "length": 32,
                "start": 2127
            }
        ],
        "1731": [
            {
                "length": 32,
                "start": 9344
            }
        ]
    },
    "source": "    // SPDX-License-Identifier: MIT\n    pragma solidity >=0.4.22 <0.9.0;\n\n    import \"@openzeppelin/contracts/security/ReentrancyGuard.sol\";\n    import \"@openzeppelin/contracts/access/AccessControl.sol\";\n    import \"@opengsn/contracts/src/ERC2771Recipient.sol\";\n\n\n    contract UniDAO is ReentrancyGuard, AccessControl,ERC2771Recipient {\n        bytes32 private immutable ADMIN_ROLE = keccak256(\"ADMIN\");\n        bytes32 private immutable VOTER_ROLE = keccak256(\"VOTER\");\n\n        uint256 public totalProposal;\n        uint256 public admProposals;\n        uint32 immutable MIN_VOTE_DURATION = 180 minutes;\n        uint256 immutable ADMIN_POWER = 30;\n\n        address[] adminAddresses;\n\n        mapping(uint256 => ProposalStruct) private raisedProposals;\n        mapping(uint256 => ProposalStruct) private changeAdminProposals;\n\n        mapping(address => uint256[]) private VoterVotes;\n        mapping(address => uint256[]) private AdminVotes;\n        mapping(uint256 => VotedStruct[]) private VotedOn;\n        mapping(address => VoterStruct) private enrolled;\n\n    \n\n        //structs\n        struct ProposalStruct {\n            uint256 proposalId;\n            string title;\n            string description;\n            uint256 reactions;\n            address proposer;\n            uint256 duration;\n            bool passed;\n            uint256 upvotes;\n            uint256 downvotes;\n            bool enrol;\n            address[] change;\n            uint256[] power;\n            bool voter;\n            bool action;\n        }\n\n        struct VotedStruct {\n            address voter;\n            uint256 timestamp;\n            uint256 choosen;\n            uint256 power;\n        }\n\n        struct VoterStruct {\n            uint256 power;\n        }\n\n        //events\n        event Action(address indexed initiator, bytes32 role, string message);\n\n        constructor(address[] memory addr,address _trustedForwarder)   {\n            for (uint256 i = 0; i < addr.length; i++) {\n                adminAddresses.push(addr[i]);\n                _setupRole(ADMIN_ROLE, addr[i]);\n                _setupRole(VOTER_ROLE, addr[i]);\n                if (enrolled[addr[i]].power > 0) {\n                                continue;\n                            }\n                            VoterStruct storage voter = enrolled[addr[i]];\n                            voter.power = ADMIN_POWER;\n            }\n            _setTrustedForwarder(_trustedForwarder);\n            \n        }\n        \n\n        \n        //modifiers\n        /// @inheritdoc IERC2771Recipient\n        function _msgSender() internal override(Context,ERC2771Recipient) virtual view returns (address ret) {\n            return ERC2771Recipient._msgSender();\n        }\n\n        /// @inheritdoc IERC2771Recipient\n        function _msgData() internal override(Context,ERC2771Recipient) virtual view returns (bytes calldata ret) {\n            return ERC2771Recipient._msgData();\n        }\n        \n\n        modifier AdminOnly() {\n            require(\n                hasRole(ADMIN_ROLE, _msgSender()),\n                \"Unauthorized : only for admin\"\n            );\n            _;\n        }\n\n        modifier VoterOnly() {\n            require(\n                hasRole(VOTER_ROLE, _msgSender()),\n                \"Unauthorized : only for people enrolled in this institution\"\n            );\n            _;\n        }\n        \n        function createProposal(\n            string memory _title,\n            string memory _description,\n            uint256 _duration\n        ) external AdminOnly returns (ProposalStruct memory) {\n            uint256 _proposalId = totalProposal++;\n            ProposalStruct storage proposal = raisedProposals[_proposalId];\n\n            proposal.proposalId = _proposalId;\n            proposal.proposer = _msgSender();\n            proposal.title = _title;\n            proposal.description = _description;\n            proposal.duration = block.timestamp + _duration;\n            proposal.reactions = 0;\n            proposal.downvotes = 0;\n            proposal.upvotes = 0;\n\n            emit Action(_msgSender(), ADMIN_ROLE, \"Proposal raised\");\n        }\n\n        // admin proposal : entrol : true ---> to enroll new address : false ---> delete ::: voter : true ----> enrol or delete a voter : false ---> enrol or delete admin\n\n        function createAdminProposal(\n            string memory _title,\n            address[] memory addresses,\n            uint256[] memory _power,\n            bool _enrol,\n            bool _voter\n        ) public AdminOnly returns (ProposalStruct memory) {\n            uint256 _admProposals = admProposals++;\n            ProposalStruct storage proposal = changeAdminProposals[_admProposals];\n\n            proposal.proposalId = _admProposals;\n            proposal.proposer = _msgSender();\n            proposal.title = _title;\n            proposal.description = \"admin votes\";\n            proposal.duration = block.timestamp + MIN_VOTE_DURATION;\n            proposal.change = addresses;\n            proposal.enrol = _enrol;\n            proposal.voter = _voter;\n            proposal.reactions = 0;\n            proposal.downvotes = 0;\n            proposal.upvotes = 0;\n            proposal.power = _power;\n        }\n\n        function performAdminVote(uint256 _proposalId, uint256 choosen)\n            public\n            AdminOnly\n        {\n            ProposalStruct storage proposal = changeAdminProposals[_proposalId];\n            handleVoting(proposal, \"admin\");\n            proposal.reactions++;\n            if (choosen == 1) proposal.upvotes++;\n            else proposal.downvotes++;\n\n            AdminVotes[_msgSender()].push(_proposalId);\n\n            emit Action(_msgSender(), ADMIN_ROLE, \"voted\");\n        }\n\n        function performVote(uint256 _proposalId, uint256 choosen)\n            public\n            VoterOnly\n        {\n            ProposalStruct storage proposal = raisedProposals[_proposalId];\n            handleVoting(proposal, \"voter\");\n            uint256 _power = enrolled[_msgSender()].power;\n            proposal.reactions++;\n            if (choosen == 1) proposal.upvotes += _power;\n            else proposal.downvotes += _power;\n\n            VoterVotes[_msgSender()].push(_proposalId);\n\n            VotedOn[proposal.proposalId].push(\n                VotedStruct(payable(_msgSender()), block.timestamp, choosen, _power)\n            );\n\n            emit Action(_msgSender(), VOTER_ROLE, \"voted\");\n        }\n\n        function handleVoting(ProposalStruct storage proposal, string memory adm)\n            private\n        {\n            if (proposal.passed || proposal.duration <= block.timestamp) {\n                proposal.passed = true;\n                revert(\"Proposal has expired\");\n            }\n            if (keccak256(abi.encodePacked(adm)) == keccak256(\"admin\")) {\n                uint256[] memory tempVotes = AdminVotes[_msgSender()];\n                for (uint256 votes = 0; votes < tempVotes.length; votes++) {\n                    if (proposal.proposalId == tempVotes[votes]) {\n                        revert(\"You have already voted\");\n                    }\n                }\n            } else {\n                uint256[] memory tempVotes = VoterVotes[_msgSender()];\n                for (uint256 votes = 0; votes < tempVotes.length; votes++) {\n                    if (proposal.proposalId == tempVotes[votes]) {\n                        revert(\"You have already voted\");\n                    }\n                }\n            }\n        }\n\n        function getProposals()\n            public\n            view\n            returns (ProposalStruct[] memory props)\n        {\n            props = new ProposalStruct[](totalProposal);\n\n            for (uint256 i = 0; i < totalProposal; i++) {\n                props[i] = raisedProposals[i];\n            }\n        }\n\n        function getProposal(uint256 _proposalId)\n            public\n            view\n            returns (ProposalStruct memory)\n        {\n            return raisedProposals[_proposalId];\n        }\n\n        function isVoter() public view returns (bool) {\n            return hasRole(VOTER_ROLE, _msgSender());\n        }\n\n        function isAdmin() public view returns (bool) {\n            return hasRole(ADMIN_ROLE, _msgSender());\n        }\n\n        function getAdminProposals()\n            public\n            view\n            returns (ProposalStruct[] memory props)\n        {\n            props = new ProposalStruct[](totalProposal);\n\n            for (uint256 i = 0; i < totalProposal; i++) {\n                props[i] = changeAdminProposals[i];\n            }\n        }\n\n        function getAdminProposal(uint256 _proposalId)\n            public\n            view\n            returns (ProposalStruct memory)\n        {\n            return changeAdminProposals[_proposalId];\n        }\n\n        //perform enroll and deroll\n\n        function performAction(uint256 _proposalId) public AdminOnly nonReentrant {\n            ProposalStruct storage proposal = changeAdminProposals[_proposalId];\n            if (proposal.action) revert(\"Action already performed\");\n            if (proposal.downvotes > proposal.upvotes) revert(\"Insufficient votes\");\n            proposal.action = true;\n            if (proposal.voter) {\n                if (proposal.enrol) {\n                    enrollVoters(proposal.change, proposal.power);\n                } else revert(\"Coming soon\");\n            } else {\n                if (proposal.enrol) {\n                    for (uint256 i = 0; i < proposal.change.length; i++) {\n                        _setupRole(ADMIN_ROLE, proposal.change[i]);\n                        address[] memory addresses = proposal.change;\n                        for (uint256 i = 0; i < addresses.length; i++) {\n                            if (enrolled[addresses[i]].power > 0) {\n                                continue;\n                            }\n                            VoterStruct storage voter = enrolled[addresses[i]];\n                            voter.power = ADMIN_POWER;\n                            _setupRole(VOTER_ROLE, addresses[i]);\n                        }\n                    }\n                } else revert(\"Coming soon\");\n            }\n        }\n\n        //  enroll new voters\n\n        function enrollVoters(address[] memory addresses, uint256[] memory _power)\n            public\n        {\n            for (uint256 i = 0; i < addresses.length; i++) {\n                if (enrolled[addresses[i]].power > 0) {\n                    continue;\n                }\n                VoterStruct storage voter = enrolled[addresses[i]];\n                voter.power = _power[i];\n                _setupRole(VOTER_ROLE, addresses[i]);\n            }\n\n            emit Action(\n                address(this),\n                \"ADMIN_ROLE\",\n                \"Addresses added successfully\"\n            );\n        }\n    }\n",
    "sourcePath": "/home/vishnu/Vishnu/Ibeto/UniDAO/contracts/UniDAO.sol",
    "compiler": {
        "name": "solc",
        "version": "0.8.17+commit.8df45f5f.Emscripten.clang"
    },
    "schemaVersion": "3.4.11",
    "updatedAt": "2023-03-06T18:47:51.168Z",
    "networkType": "ethereum",
    "devdoc": {
        "kind": "dev",
        "methods": {
            "getRoleAdmin(bytes32)": {
                "details": "Returns the admin role that controls `role`. See {grantRole} and {revokeRole}. To change a role's admin, use {_setRoleAdmin}."
            },
            "getTrustedForwarder()": {
                "returns": {
                    "forwarder": "The address of the Forwarder contract that is being used."
                }
            },
            "grantRole(bytes32,address)": {
                "details": "Grants `role` to `account`. If `account` had not been already granted `role`, emits a {RoleGranted} event. Requirements: - the caller must have ``role``'s admin role. May emit a {RoleGranted} event."
            },
            "hasRole(bytes32,address)": {
                "details": "Returns `true` if `account` has been granted `role`."
            },
            "isTrustedForwarder(address)": {
                "params": {
                    "forwarder": "The address of the Forwarder contract that is being used."
                },
                "returns": {
                    "_0": "isTrustedForwarder `true` if the Forwarder is trusted to forward relayed transactions by this Recipient."
                }
            },
            "renounceRole(bytes32,address)": {
                "details": "Revokes `role` from the calling account. Roles are often managed via {grantRole} and {revokeRole}: this function's purpose is to provide a mechanism for accounts to lose their privileges if they are compromised (such as when a trusted device is misplaced). If the calling account had been revoked `role`, emits a {RoleRevoked} event. Requirements: - the caller must be `account`. May emit a {RoleRevoked} event."
            },
            "revokeRole(bytes32,address)": {
                "details": "Revokes `role` from `account`. If `account` had been granted `role`, emits a {RoleRevoked} event. Requirements: - the caller must have ``role``'s admin role. May emit a {RoleRevoked} event."
            },
            "supportsInterface(bytes4)": {
                "details": "See {IERC165-supportsInterface}."
            }
        },
        "version": 1
    },
    "userdoc": {
        "kind": "user",
        "methods": {
            "getTrustedForwarder()": {
                "notice": ":warning: **Warning** :warning: The Forwarder can have a full control over your Recipient. Only trust verified Forwarder.Method is not a required method to allow Recipients to trust multiple Forwarders. Not recommended yet."
            },
            "isTrustedForwarder(address)": {
                "notice": ":warning: **Warning** :warning: The Forwarder can have a full control over your Recipient. Only trust verified Forwarder."
            }
        },
        "version": 1
    }
}