{
  "contractName": "UniDAO",
  "abi": [
    {
      "inputs": [
        {
          "internalType": "address[]",
          "name": "addr",
          "type": "address[]"
        }
      ],
      "stateMutability": "nonpayable",
      "type": "constructor"
    },
    {
      "anonymous": false,
      "inputs": [
        {
          "indexed": true,
          "internalType": "address",
          "name": "initiator",
          "type": "address"
        },
        {
          "indexed": false,
          "internalType": "bytes32",
          "name": "role",
          "type": "bytes32"
        },
        {
          "indexed": false,
          "internalType": "string",
          "name": "message",
          "type": "string"
        }
      ],
      "name": "Action",
      "type": "event"
    },
    {
      "anonymous": false,
      "inputs": [
        {
          "indexed": true,
          "internalType": "bytes32",
          "name": "role",
          "type": "bytes32"
        },
        {
          "indexed": true,
          "internalType": "bytes32",
          "name": "previousAdminRole",
          "type": "bytes32"
        },
        {
          "indexed": true,
          "internalType": "bytes32",
          "name": "newAdminRole",
          "type": "bytes32"
        }
      ],
      "name": "RoleAdminChanged",
      "type": "event"
    },
    {
      "anonymous": false,
      "inputs": [
        {
          "indexed": true,
          "internalType": "bytes32",
          "name": "role",
          "type": "bytes32"
        },
        {
          "indexed": true,
          "internalType": "address",
          "name": "account",
          "type": "address"
        },
        {
          "indexed": true,
          "internalType": "address",
          "name": "sender",
          "type": "address"
        }
      ],
      "name": "RoleGranted",
      "type": "event"
    },
    {
      "anonymous": false,
      "inputs": [
        {
          "indexed": true,
          "internalType": "bytes32",
          "name": "role",
          "type": "bytes32"
        },
        {
          "indexed": true,
          "internalType": "address",
          "name": "account",
          "type": "address"
        },
        {
          "indexed": true,
          "internalType": "address",
          "name": "sender",
          "type": "address"
        }
      ],
      "name": "RoleRevoked",
      "type": "event"
    },
    {
      "inputs": [],
      "name": "DEFAULT_ADMIN_ROLE",
      "outputs": [
        {
          "internalType": "bytes32",
          "name": "",
          "type": "bytes32"
        }
      ],
      "stateMutability": "view",
      "type": "function",
      "constant": true
    },
    {
      "inputs": [],
      "name": "admProposals",
      "outputs": [
        {
          "internalType": "uint256",
          "name": "",
          "type": "uint256"
        }
      ],
      "stateMutability": "view",
      "type": "function",
      "constant": true
    },
    {
      "inputs": [
        {
          "internalType": "bytes32",
          "name": "role",
          "type": "bytes32"
        }
      ],
      "name": "getRoleAdmin",
      "outputs": [
        {
          "internalType": "bytes32",
          "name": "",
          "type": "bytes32"
        }
      ],
      "stateMutability": "view",
      "type": "function",
      "constant": true
    },
    {
      "inputs": [
        {
          "internalType": "bytes32",
          "name": "role",
          "type": "bytes32"
        },
        {
          "internalType": "address",
          "name": "account",
          "type": "address"
        }
      ],
      "name": "grantRole",
      "outputs": [],
      "stateMutability": "nonpayable",
      "type": "function"
    },
    {
      "inputs": [
        {
          "internalType": "bytes32",
          "name": "role",
          "type": "bytes32"
        },
        {
          "internalType": "address",
          "name": "account",
          "type": "address"
        }
      ],
      "name": "hasRole",
      "outputs": [
        {
          "internalType": "bool",
          "name": "",
          "type": "bool"
        }
      ],
      "stateMutability": "view",
      "type": "function",
      "constant": true
    },
    {
      "inputs": [
        {
          "internalType": "bytes32",
          "name": "role",
          "type": "bytes32"
        },
        {
          "internalType": "address",
          "name": "account",
          "type": "address"
        }
      ],
      "name": "renounceRole",
      "outputs": [],
      "stateMutability": "nonpayable",
      "type": "function"
    },
    {
      "inputs": [
        {
          "internalType": "bytes32",
          "name": "role",
          "type": "bytes32"
        },
        {
          "internalType": "address",
          "name": "account",
          "type": "address"
        }
      ],
      "name": "revokeRole",
      "outputs": [],
      "stateMutability": "nonpayable",
      "type": "function"
    },
    {
      "inputs": [
        {
          "internalType": "bytes4",
          "name": "interfaceId",
          "type": "bytes4"
        }
      ],
      "name": "supportsInterface",
      "outputs": [
        {
          "internalType": "bool",
          "name": "",
          "type": "bool"
        }
      ],
      "stateMutability": "view",
      "type": "function",
      "constant": true
    },
    {
      "inputs": [],
      "name": "totalProposal",
      "outputs": [
        {
          "internalType": "uint256",
          "name": "",
          "type": "uint256"
        }
      ],
      "stateMutability": "view",
      "type": "function",
      "constant": true
    },
    {
      "inputs": [
        {
          "internalType": "string",
          "name": "_title",
          "type": "string"
        },
        {
          "internalType": "string",
          "name": "_description",
          "type": "string"
        },
        {
          "internalType": "uint256",
          "name": "_duration",
          "type": "uint256"
        }
      ],
      "name": "createProposal",
      "outputs": [
        {
          "components": [
            {
              "internalType": "uint256",
              "name": "proposalId",
              "type": "uint256"
            },
            {
              "internalType": "string",
              "name": "title",
              "type": "string"
            },
            {
              "internalType": "string",
              "name": "description",
              "type": "string"
            },
            {
              "internalType": "uint256",
              "name": "reactions",
              "type": "uint256"
            },
            {
              "internalType": "address",
              "name": "proposer",
              "type": "address"
            },
            {
              "internalType": "uint256",
              "name": "duration",
              "type": "uint256"
            },
            {
              "internalType": "bool",
              "name": "passed",
              "type": "bool"
            },
            {
              "internalType": "uint256",
              "name": "upvotes",
              "type": "uint256"
            },
            {
              "internalType": "uint256",
              "name": "downvotes",
              "type": "uint256"
            },
            {
              "internalType": "bool",
              "name": "enrol",
              "type": "bool"
            },
            {
              "internalType": "address[]",
              "name": "change",
              "type": "address[]"
            },
            {
              "internalType": "uint256[]",
              "name": "power",
              "type": "uint256[]"
            },
            {
              "internalType": "bool",
              "name": "voter",
              "type": "bool"
            },
            {
              "internalType": "bool",
              "name": "action",
              "type": "bool"
            }
          ],
          "internalType": "struct UniDAO.ProposalStruct",
          "name": "",
          "type": "tuple"
        }
      ],
      "stateMutability": "nonpayable",
      "type": "function"
    },
    {
      "inputs": [
        {
          "internalType": "string",
          "name": "_title",
          "type": "string"
        },
        {
          "internalType": "address[]",
          "name": "addresses",
          "type": "address[]"
        },
        {
          "internalType": "uint256[]",
          "name": "_power",
          "type": "uint256[]"
        },
        {
          "internalType": "bool",
          "name": "_enrol",
          "type": "bool"
        },
        {
          "internalType": "bool",
          "name": "_voter",
          "type": "bool"
        }
      ],
      "name": "createAdminProposal",
      "outputs": [
        {
          "components": [
            {
              "internalType": "uint256",
              "name": "proposalId",
              "type": "uint256"
            },
            {
              "internalType": "string",
              "name": "title",
              "type": "string"
            },
            {
              "internalType": "string",
              "name": "description",
              "type": "string"
            },
            {
              "internalType": "uint256",
              "name": "reactions",
              "type": "uint256"
            },
            {
              "internalType": "address",
              "name": "proposer",
              "type": "address"
            },
            {
              "internalType": "uint256",
              "name": "duration",
              "type": "uint256"
            },
            {
              "internalType": "bool",
              "name": "passed",
              "type": "bool"
            },
            {
              "internalType": "uint256",
              "name": "upvotes",
              "type": "uint256"
            },
            {
              "internalType": "uint256",
              "name": "downvotes",
              "type": "uint256"
            },
            {
              "internalType": "bool",
              "name": "enrol",
              "type": "bool"
            },
            {
              "internalType": "address[]",
              "name": "change",
              "type": "address[]"
            },
            {
              "internalType": "uint256[]",
              "name": "power",
              "type": "uint256[]"
            },
            {
              "internalType": "bool",
              "name": "voter",
              "type": "bool"
            },
            {
              "internalType": "bool",
              "name": "action",
              "type": "bool"
            }
          ],
          "internalType": "struct UniDAO.ProposalStruct",
          "name": "",
          "type": "tuple"
        }
      ],
      "stateMutability": "nonpayable",
      "type": "function"
    },
    {
      "inputs": [
        {
          "internalType": "uint256",
          "name": "_proposalId",
          "type": "uint256"
        },
        {
          "internalType": "uint256",
          "name": "choosen",
          "type": "uint256"
        }
      ],
      "name": "performAdminVote",
      "outputs": [],
      "stateMutability": "nonpayable",
      "type": "function"
    },
    {
      "inputs": [
        {
          "internalType": "uint256",
          "name": "_proposalId",
          "type": "uint256"
        },
        {
          "internalType": "uint256",
          "name": "choosen",
          "type": "uint256"
        }
      ],
      "name": "performVote",
      "outputs": [],
      "stateMutability": "nonpayable",
      "type": "function"
    },
    {
      "inputs": [],
      "name": "getProposals",
      "outputs": [
        {
          "components": [
            {
              "internalType": "uint256",
              "name": "proposalId",
              "type": "uint256"
            },
            {
              "internalType": "string",
              "name": "title",
              "type": "string"
            },
            {
              "internalType": "string",
              "name": "description",
              "type": "string"
            },
            {
              "internalType": "uint256",
              "name": "reactions",
              "type": "uint256"
            },
            {
              "internalType": "address",
              "name": "proposer",
              "type": "address"
            },
            {
              "internalType": "uint256",
              "name": "duration",
              "type": "uint256"
            },
            {
              "internalType": "bool",
              "name": "passed",
              "type": "bool"
            },
            {
              "internalType": "uint256",
              "name": "upvotes",
              "type": "uint256"
            },
            {
              "internalType": "uint256",
              "name": "downvotes",
              "type": "uint256"
            },
            {
              "internalType": "bool",
              "name": "enrol",
              "type": "bool"
            },
            {
              "internalType": "address[]",
              "name": "change",
              "type": "address[]"
            },
            {
              "internalType": "uint256[]",
              "name": "power",
              "type": "uint256[]"
            },
            {
              "internalType": "bool",
              "name": "voter",
              "type": "bool"
            },
            {
              "internalType": "bool",
              "name": "action",
              "type": "bool"
            }
          ],
          "internalType": "struct UniDAO.ProposalStruct[]",
          "name": "props",
          "type": "tuple[]"
        }
      ],
      "stateMutability": "view",
      "type": "function",
      "constant": true
    },
    {
      "inputs": [
        {
          "internalType": "uint256",
          "name": "_proposalId",
          "type": "uint256"
        }
      ],
      "name": "getProposal",
      "outputs": [
        {
          "components": [
            {
              "internalType": "uint256",
              "name": "proposalId",
              "type": "uint256"
            },
            {
              "internalType": "string",
              "name": "title",
              "type": "string"
            },
            {
              "internalType": "string",
              "name": "description",
              "type": "string"
            },
            {
              "internalType": "uint256",
              "name": "reactions",
              "type": "uint256"
            },
            {
              "internalType": "address",
              "name": "proposer",
              "type": "address"
            },
            {
              "internalType": "uint256",
              "name": "duration",
              "type": "uint256"
            },
            {
              "internalType": "bool",
              "name": "passed",
              "type": "bool"
            },
            {
              "internalType": "uint256",
              "name": "upvotes",
              "type": "uint256"
            },
            {
              "internalType": "uint256",
              "name": "downvotes",
              "type": "uint256"
            },
            {
              "internalType": "bool",
              "name": "enrol",
              "type": "bool"
            },
            {
              "internalType": "address[]",
              "name": "change",
              "type": "address[]"
            },
            {
              "internalType": "uint256[]",
              "name": "power",
              "type": "uint256[]"
            },
            {
              "internalType": "bool",
              "name": "voter",
              "type": "bool"
            },
            {
              "internalType": "bool",
              "name": "action",
              "type": "bool"
            }
          ],
          "internalType": "struct UniDAO.ProposalStruct",
          "name": "",
          "type": "tuple"
        }
      ],
      "stateMutability": "view",
      "type": "function",
      "constant": true
    },
    {
      "inputs": [],
      "name": "isVoter",
      "outputs": [
        {
          "internalType": "bool",
          "name": "",
          "type": "bool"
        }
      ],
      "stateMutability": "view",
      "type": "function",
      "constant": true
    },
    {
      "inputs": [],
      "name": "isAdmin",
      "outputs": [
        {
          "internalType": "bool",
          "name": "",
          "type": "bool"
        }
      ],
      "stateMutability": "view",
      "type": "function",
      "constant": true
    },
    {
      "inputs": [],
      "name": "getAdminProposals",
      "outputs": [
        {
          "components": [
            {
              "internalType": "uint256",
              "name": "proposalId",
              "type": "uint256"
            },
            {
              "internalType": "string",
              "name": "title",
              "type": "string"
            },
            {
              "internalType": "string",
              "name": "description",
              "type": "string"
            },
            {
              "internalType": "uint256",
              "name": "reactions",
              "type": "uint256"
            },
            {
              "internalType": "address",
              "name": "proposer",
              "type": "address"
            },
            {
              "internalType": "uint256",
              "name": "duration",
              "type": "uint256"
            },
            {
              "internalType": "bool",
              "name": "passed",
              "type": "bool"
            },
            {
              "internalType": "uint256",
              "name": "upvotes",
              "type": "uint256"
            },
            {
              "internalType": "uint256",
              "name": "downvotes",
              "type": "uint256"
            },
            {
              "internalType": "bool",
              "name": "enrol",
              "type": "bool"
            },
            {
              "internalType": "address[]",
              "name": "change",
              "type": "address[]"
            },
            {
              "internalType": "uint256[]",
              "name": "power",
              "type": "uint256[]"
            },
            {
              "internalType": "bool",
              "name": "voter",
              "type": "bool"
            },
            {
              "internalType": "bool",
              "name": "action",
              "type": "bool"
            }
          ],
          "internalType": "struct UniDAO.ProposalStruct[]",
          "name": "props",
          "type": "tuple[]"
        }
      ],
      "stateMutability": "view",
      "type": "function",
      "constant": true
    },
    {
      "inputs": [
        {
          "internalType": "uint256",
          "name": "_proposalId",
          "type": "uint256"
        }
      ],
      "name": "getAdminProposal",
      "outputs": [
        {
          "components": [
            {
              "internalType": "uint256",
              "name": "proposalId",
              "type": "uint256"
            },
            {
              "internalType": "string",
              "name": "title",
              "type": "string"
            },
            {
              "internalType": "string",
              "name": "description",
              "type": "string"
            },
            {
              "internalType": "uint256",
              "name": "reactions",
              "type": "uint256"
            },
            {
              "internalType": "address",
              "name": "proposer",
              "type": "address"
            },
            {
              "internalType": "uint256",
              "name": "duration",
              "type": "uint256"
            },
            {
              "internalType": "bool",
              "name": "passed",
              "type": "bool"
            },
            {
              "internalType": "uint256",
              "name": "upvotes",
              "type": "uint256"
            },
            {
              "internalType": "uint256",
              "name": "downvotes",
              "type": "uint256"
            },
            {
              "internalType": "bool",
              "name": "enrol",
              "type": "bool"
            },
            {
              "internalType": "address[]",
              "name": "change",
              "type": "address[]"
            },
            {
              "internalType": "uint256[]",
              "name": "power",
              "type": "uint256[]"
            },
            {
              "internalType": "bool",
              "name": "voter",
              "type": "bool"
            },
            {
              "internalType": "bool",
              "name": "action",
              "type": "bool"
            }
          ],
          "internalType": "struct UniDAO.ProposalStruct",
          "name": "",
          "type": "tuple"
        }
      ],
      "stateMutability": "view",
      "type": "function",
      "constant": true
    },
    {
      "inputs": [
        {
          "internalType": "uint256",
          "name": "_proposalId",
          "type": "uint256"
        }
      ],
      "name": "performAction",
      "outputs": [],
      "stateMutability": "nonpayable",
      "type": "function"
    },
    {
      "inputs": [
        {
          "internalType": "address[]",
          "name": "addresses",
          "type": "address[]"
        },
        {
          "internalType": "uint256[]",
          "name": "_power",
          "type": "uint256[]"
        }
      ],
      "name": "enrollVoters",
      "outputs": [],
      "stateMutability": "nonpayable",
      "type": "function"
    }
  ],
  "bytecode": "0x6101006040527fdf8b4c520ffe197c5343c6f5aec59570151ef9a492f2c624fd45ddde6135ec426080908152507f15283fd96aa656c9df35ac2fcb112678a5f24f1ca97e591a97d1d16003dbfc9c60a090815250612a3063ffffffff1660c09063ffffffff16815250601e60e0908152503480156200007d57600080fd5b5060405162004ed838038062004ed88339818101604052810190620000a39190620005f5565b600160008190555060005b815181101562000285576004828281518110620000d057620000cf62000646565b5b60200260200101519080600181540180825580915050600190039060005260206000200160009091909190916101000a81548173ffffffffffffffffffffffffffffffffffffffff021916908373ffffffffffffffffffffffffffffffffffffffff1602179055506200016960805183838151811062000155576200015462000646565b5b60200260200101516200028d60201b60201c565b6200019a60a05183838151811062000186576200018562000646565b5b60200260200101516200028d60201b60201c565b6000600a6000848481518110620001b657620001b562000646565b5b602002602001015173ffffffffffffffffffffffffffffffffffffffff1673ffffffffffffffffffffffffffffffffffffffff16815260200190815260200160002060000154116200026f576000600a60008484815181106200021e576200021d62000646565b5b602002602001015173ffffffffffffffffffffffffffffffffffffffff1673ffffffffffffffffffffffffffffffffffffffff168152602001908152602001600020905060e0518160000181905550505b80806200027c90620006ae565b915050620000ae565b5050620006fb565b6200029f8282620002a360201b60201c565b5050565b620002b582826200039460201b60201c565b6200039057600180600084815260200190815260200160002060000160008373ffffffffffffffffffffffffffffffffffffffff1673ffffffffffffffffffffffffffffffffffffffff16815260200190815260200160002060006101000a81548160ff02191690831515021790555062000335620003ff60201b60201c565b73ffffffffffffffffffffffffffffffffffffffff168173ffffffffffffffffffffffffffffffffffffffff16837f2f8788117e7eff1d82e926ec794901d17c78024a50270940304540a733656f0d60405160405180910390a45b5050565b60006001600084815260200190815260200160002060000160008373ffffffffffffffffffffffffffffffffffffffff1673ffffffffffffffffffffffffffffffffffffffff16815260200190815260200160002060009054906101000a900460ff16905092915050565b600033905090565b6000604051905090565b600080fd5b600080fd5b600080fd5b6000601f19601f8301169050919050565b7f4e487b7100000000000000000000000000000000000000000000000000000000600052604160045260246000fd5b6200046b8262000420565b810181811067ffffffffffffffff821117156200048d576200048c62000431565b5b80604052505050565b6000620004a262000407565b9050620004b0828262000460565b919050565b600067ffffffffffffffff821115620004d357620004d262000431565b5b602082029050602081019050919050565b600080fd5b600073ffffffffffffffffffffffffffffffffffffffff82169050919050565b60006200051682620004e9565b9050919050565b620005288162000509565b81146200053457600080fd5b50565b60008151905062000548816200051d565b92915050565b6000620005656200055f84620004b5565b62000496565b905080838252602082019050602084028301858111156200058b576200058a620004e4565b5b835b81811015620005b85780620005a3888262000537565b8452602084019350506020810190506200058d565b5050509392505050565b600082601f830112620005da57620005d96200041b565b5b8151620005ec8482602086016200054e565b91505092915050565b6000602082840312156200060e576200060d62000411565b5b600082015167ffffffffffffffff8111156200062f576200062e62000416565b5b6200063d84828501620005c2565b91505092915050565b7f4e487b7100000000000000000000000000000000000000000000000000000000600052603260045260246000fd5b7f4e487b7100000000000000000000000000000000000000000000000000000000600052601160045260246000fd5b6000819050919050565b6000620006bb82620006a4565b91507fffffffffffffffffffffffffffffffffffffffffffffffffffffffffffffffff8203620006f057620006ef62000675565b5b600182019050919050565b60805160a05160c05160e051614756620007826000396000612328015260006107c801526000818161093c01528181610c1901528181610d4801528181611e7601526123540152600081816104a90152818161061b0152818161068b015281816119040152818161193301528181611ae901528181611ea5015261216701526147566000f3fe608060405234801561001057600080fd5b50600436106101375760003560e01c80636b3c6d6b116100b8578063c5d062731161007c578063c5d0627314610362578063c7f758a81461037e578063d547741f146103ae578063d87c4be3146103ca578063f004073a146103e8578063f1c5fd821461040457610137565b80636b3c6d6b146102a85780636e21721d146102d857806391d14854146102f6578063a217fddf14610326578063b6db75a01461034457610137565b80632f2ff15d116100ff5780632f2ff15d1461021a57806336568abe1461023657806344eead951461025257806347b8ab3a1461026e57806362564c481461028a57610137565b806301ffc9a71461013c5780630ce0ebf41461016c578063240e31e91461019c578063248a9ca3146101ba57806327dafcf9146101ea575b600080fd5b61015660048036038101906101519190612e96565b610422565b6040516101639190612ede565b60405180910390f35b61018660048036038101906101819190613075565b61049c565b604051610193919061347f565b60405180910390f35b6101a4610658565b6040516101b191906134b0565b60405180910390f35b6101d460048036038101906101cf9190613501565b61065e565b6040516101e1919061353d565b60405180910390f35b61020460048036038101906101ff919061373b565b61067e565b604051610211919061347f565b60405180910390f35b610234600480360381019061022f919061380a565b610893565b005b610250600480360381019061024b919061380a565b6108b4565b005b61026c6004803603810190610267919061384a565b610937565b005b6102886004803603810190610283919061388a565b610c53565b005b610292610ded565b60405161029f9190613b07565b60405180910390f35b6102c260048036038101906102bd9190613b29565b6111a6565b6040516102cf919061347f565b60405180910390f35b6102e06114d2565b6040516102ed9190613b07565b60405180910390f35b610310600480360381019061030b919061380a565b61188b565b60405161031d9190612ede565b60405180910390f35b61032e6118f6565b60405161033b919061353d565b60405180910390f35b61034c6118fd565b6040516103599190612ede565b60405180910390f35b61037c6004803603810190610377919061384a565b61192e565b005b61039860048036038101906103939190613b29565b611b22565b6040516103a5919061347f565b60405180910390f35b6103c860048036038101906103c3919061380a565b611e4e565b005b6103d2611e6f565b6040516103df9190612ede565b60405180910390f35b61040260048036038101906103fd9190613b29565b611ea0565b005b61040c61240b565b60405161041991906134b0565b60405180910390f35b60007f7965db0b000000000000000000000000000000000000000000000000000000007bffffffffffffffffffffffffffffffffffffffffffffffffffffffff1916827bffffffffffffffffffffffffffffffffffffffffffffffffffffffff19161480610495575061049482612411565b5b9050919050565b6104a4612ca9565b6104ce7f00000000000000000000000000000000000000000000000000000000000000003361188b565b61050d576040517f08c379a000000000000000000000000000000000000000000000000000000000815260040161050490613bb3565b60405180910390fd5b60006002600081548092919061052290613c02565b9190505590506000600560008381526020019081526020016000209050818160000181905550338160040160006101000a81548173ffffffffffffffffffffffffffffffffffffffff021916908373ffffffffffffffffffffffffffffffffffffffff1602179055508581600101908161059c9190613e56565b50848160020190816105ae9190613e56565b5083426105bb9190613f28565b81600501819055506000816003018190555060008160080181905550600081600701819055503373ffffffffffffffffffffffffffffffffffffffff167ff4195914bd1a75ff318a3e75d2111a80cc0a9a8375aea50e407aec30082ea0e37f00000000000000000000000000000000000000000000000000000000000000006040516106479190613fa8565b60405180910390a250509392505050565b60035481565b600060016000838152602001908152602001600020600101549050919050565b610686612ca9565b6106b07f00000000000000000000000000000000000000000000000000000000000000003361188b565b6106ef576040517f08c379a00000000000000000000000000000000000000000000000000000000081526004016106e690613bb3565b60405180910390fd5b60006003600081548092919061070490613c02565b9190505590506000600660008381526020019081526020016000209050818160000181905550338160040160006101000a81548173ffffffffffffffffffffffffffffffffffffffff021916908373ffffffffffffffffffffffffffffffffffffffff1602179055508781600101908161077e9190613e56565b506040518060400160405280600b81526020017f61646d696e20766f7465730000000000000000000000000000000000000000008152508160020190816107c59190613e56565b507f000000000000000000000000000000000000000000000000000000000000000063ffffffff16426107f89190613f28565b81600501819055508681600a019080519060200190610818929190612d36565b50848160090160006101000a81548160ff0219169083151502179055508381600c0160006101000a81548160ff0219169083151502179055506000816003018190555060008160080181905550600081600701819055508581600b019080519060200190610887929190612dc0565b50505095945050505050565b61089c8261065e565b6108a58161247b565b6108af838361248f565b505050565b6108bc61256f565b73ffffffffffffffffffffffffffffffffffffffff168173ffffffffffffffffffffffffffffffffffffffff1614610929576040517f08c379a000000000000000000000000000000000000000000000000000000000815260040161092090614048565b60405180910390fd5b6109338282612577565b5050565b6109617f00000000000000000000000000000000000000000000000000000000000000003361188b565b6109a0576040517f08c379a0000000000000000000000000000000000000000000000000000000008152600401610997906140da565b60405180910390fd5b60006005600084815260200190815260200160002090506109f6816040518060400160405280600581526020017f766f746572000000000000000000000000000000000000000000000000000000815250612659565b6000600a60003373ffffffffffffffffffffffffffffffffffffffff1673ffffffffffffffffffffffffffffffffffffffff168152602001908152602001600020600001549050816003016000815480929190610a5290613c02565b919050555060018303610a7f5780826007016000828254610a739190613f28565b92505081905550610a9b565b80826008016000828254610a939190613f28565b925050819055505b600760003373ffffffffffffffffffffffffffffffffffffffff1673ffffffffffffffffffffffffffffffffffffffff168152602001908152602001600020849080600181540180825580915050600190039060005260206000200160009091909190915055600960008360000154815260200190815260200160002060405180608001604052803373ffffffffffffffffffffffffffffffffffffffff16815260200142815260200185815260200183815250908060018154018082558091505060019003906000526020600020906004020160009091909190915060008201518160000160006101000a81548173ffffffffffffffffffffffffffffffffffffffff021916908373ffffffffffffffffffffffffffffffffffffffff16021790555060208201518160010155604082015181600201556060820151816003015550503373ffffffffffffffffffffffffffffffffffffffff167ff4195914bd1a75ff318a3e75d2111a80cc0a9a8375aea50e407aec30082ea0e37f0000000000000000000000000000000000000000000000000000000000000000604051610c459190614146565b60405180910390a250505050565b60005b8251811015610d9c576000600a6000858481518110610c7857610c77614174565b5b602002602001015173ffffffffffffffffffffffffffffffffffffffff1673ffffffffffffffffffffffffffffffffffffffff1681526020019081526020016000206000015411610d89576000600a6000858481518110610cdc57610cdb614174565b5b602002602001015173ffffffffffffffffffffffffffffffffffffffff1673ffffffffffffffffffffffffffffffffffffffff1681526020019081526020016000209050828281518110610d3357610d32614174565b5b60200260200101518160000181905550610d877f0000000000000000000000000000000000000000000000000000000000000000858481518110610d7a57610d79614174565b5b6020026020010151612954565b505b8080610d9490613c02565b915050610c56565b503073ffffffffffffffffffffffffffffffffffffffff167ff4195914bd1a75ff318a3e75d2111a80cc0a9a8375aea50e407aec30082ea0e3604051610de190614215565b60405180910390a25050565b606060025467ffffffffffffffff811115610e0b57610e0a612f14565b5b604051908082528060200260200182016040528015610e4457816020015b610e31612ca9565b815260200190600190039081610e295790505b50905060005b6002548110156111a25760056000828152602001908152602001600020604051806101c001604052908160008201548152602001600182018054610e8d90613c79565b80601f0160208091040260200160405190810160405280929190818152602001828054610eb990613c79565b8015610f065780601f10610edb57610100808354040283529160200191610f06565b820191906000526020600020905b815481529060010190602001808311610ee957829003601f168201915b50505050508152602001600282018054610f1f90613c79565b80601f0160208091040260200160405190810160405280929190818152602001828054610f4b90613c79565b8015610f985780601f10610f6d57610100808354040283529160200191610f98565b820191906000526020600020905b815481529060010190602001808311610f7b57829003601f168201915b50505050508152602001600382015481526020016004820160009054906101000a900473ffffffffffffffffffffffffffffffffffffffff1673ffffffffffffffffffffffffffffffffffffffff1673ffffffffffffffffffffffffffffffffffffffff168152602001600582015481526020016006820160009054906101000a900460ff1615151515815260200160078201548152602001600882015481526020016009820160009054906101000a900460ff16151515158152602001600a82018054806020026020016040519081016040528092919081815260200182805480156110da57602002820191906000526020600020905b8160009054906101000a900473ffffffffffffffffffffffffffffffffffffffff1673ffffffffffffffffffffffffffffffffffffffff1681526020019060010190808311611090575b50505050508152602001600b820180548060200260200160405190810160405280929190818152602001828054801561113257602002820191906000526020600020905b81548152602001906001019080831161111e575b50505050508152602001600c820160009054906101000a900460ff16151515158152602001600c820160019054906101000a900460ff16151515158152505082828151811061118457611183614174565b5b6020026020010181905250808061119a90613c02565b915050610e4a565b5090565b6111ae612ca9565b60066000838152602001908152602001600020604051806101c0016040529081600082015481526020016001820180546111e790613c79565b80601f016020809104026020016040519081016040528092919081815260200182805461121390613c79565b80156112605780601f1061123557610100808354040283529160200191611260565b820191906000526020600020905b81548152906001019060200180831161124357829003601f168201915b5050505050815260200160028201805461127990613c79565b80601f01602080910402602001604051908101604052809291908181526020018280546112a590613c79565b80156112f25780601f106112c7576101008083540402835291602001916112f2565b820191906000526020600020905b8154815290600101906020018083116112d557829003601f168201915b50505050508152602001600382015481526020016004820160009054906101000a900473ffffffffffffffffffffffffffffffffffffffff1673ffffffffffffffffffffffffffffffffffffffff1673ffffffffffffffffffffffffffffffffffffffff168152602001600582015481526020016006820160009054906101000a900460ff1615151515815260200160078201548152602001600882015481526020016009820160009054906101000a900460ff16151515158152602001600a820180548060200260200160405190810160405280929190818152602001828054801561143457602002820191906000526020600020905b8160009054906101000a900473ffffffffffffffffffffffffffffffffffffffff1673ffffffffffffffffffffffffffffffffffffffff16815260200190600101908083116113ea575b50505050508152602001600b820180548060200260200160405190810160405280929190818152602001828054801561148c57602002820191906000526020600020905b815481526020019060010190808311611478575b50505050508152602001600c820160009054906101000a900460ff16151515158152602001600c820160019054906101000a900460ff1615151515815250509050919050565b606060025467ffffffffffffffff8111156114f0576114ef612f14565b5b60405190808252806020026020018201604052801561152957816020015b611516612ca9565b81526020019060019003908161150e5790505b50905060005b6002548110156118875760066000828152602001908152602001600020604051806101c00160405290816000820154815260200160018201805461157290613c79565b80601f016020809104026020016040519081016040528092919081815260200182805461159e90613c79565b80156115eb5780601f106115c0576101008083540402835291602001916115eb565b820191906000526020600020905b8154815290600101906020018083116115ce57829003601f168201915b5050505050815260200160028201805461160490613c79565b80601f016020809104026020016040519081016040528092919081815260200182805461163090613c79565b801561167d5780601f106116525761010080835404028352916020019161167d565b820191906000526020600020905b81548152906001019060200180831161166057829003601f168201915b50505050508152602001600382015481526020016004820160009054906101000a900473ffffffffffffffffffffffffffffffffffffffff1673ffffffffffffffffffffffffffffffffffffffff1673ffffffffffffffffffffffffffffffffffffffff168152602001600582015481526020016006820160009054906101000a900460ff1615151515815260200160078201548152602001600882015481526020016009820160009054906101000a900460ff16151515158152602001600a82018054806020026020016040519081016040528092919081815260200182805480156117bf57602002820191906000526020600020905b8160009054906101000a900473ffffffffffffffffffffffffffffffffffffffff1673ffffffffffffffffffffffffffffffffffffffff1681526020019060010190808311611775575b50505050508152602001600b820180548060200260200160405190810160405280929190818152602001828054801561181757602002820191906000526020600020905b815481526020019060010190808311611803575b50505050508152602001600c820160009054906101000a900460ff16151515158152602001600c820160019054906101000a900460ff16151515158152505082828151811061186957611868614174565b5b6020026020010181905250808061187f90613c02565b91505061152f565b5090565b60006001600084815260200190815260200160002060000160008373ffffffffffffffffffffffffffffffffffffffff1673ffffffffffffffffffffffffffffffffffffffff16815260200190815260200160002060009054906101000a900460ff16905092915050565b6000801b81565b60006119297f00000000000000000000000000000000000000000000000000000000000000003361188b565b905090565b6119587f00000000000000000000000000000000000000000000000000000000000000003361188b565b611997576040517f08c379a000000000000000000000000000000000000000000000000000000000815260040161198e90613bb3565b60405180910390fd5b60006006600084815260200190815260200160002090506119ed816040518060400160405280600581526020017f61646d696e000000000000000000000000000000000000000000000000000000815250612659565b806003016000815480929190611a0290613c02565b919050555060018203611a2e57806007016000815480929190611a2490613c02565b9190505550611a49565b806008016000815480929190611a4390613c02565b91905055505b600860003373ffffffffffffffffffffffffffffffffffffffff1673ffffffffffffffffffffffffffffffffffffffff1681526020019081526020016000208390806001815401808255809150506001900390600052602060002001600090919091909150553373ffffffffffffffffffffffffffffffffffffffff167ff4195914bd1a75ff318a3e75d2111a80cc0a9a8375aea50e407aec30082ea0e37f0000000000000000000000000000000000000000000000000000000000000000604051611b159190614146565b60405180910390a2505050565b611b2a612ca9565b60056000838152602001908152602001600020604051806101c001604052908160008201548152602001600182018054611b6390613c79565b80601f0160208091040260200160405190810160405280929190818152602001828054611b8f90613c79565b8015611bdc5780601f10611bb157610100808354040283529160200191611bdc565b820191906000526020600020905b815481529060010190602001808311611bbf57829003601f168201915b50505050508152602001600282018054611bf590613c79565b80601f0160208091040260200160405190810160405280929190818152602001828054611c2190613c79565b8015611c6e5780601f10611c4357610100808354040283529160200191611c6e565b820191906000526020600020905b815481529060010190602001808311611c5157829003601f168201915b50505050508152602001600382015481526020016004820160009054906101000a900473ffffffffffffffffffffffffffffffffffffffff1673ffffffffffffffffffffffffffffffffffffffff1673ffffffffffffffffffffffffffffffffffffffff168152602001600582015481526020016006820160009054906101000a900460ff1615151515815260200160078201548152602001600882015481526020016009820160009054906101000a900460ff16151515158152602001600a8201805480602002602001604051908101604052809291908181526020018280548015611db057602002820191906000526020600020905b8160009054906101000a900473ffffffffffffffffffffffffffffffffffffffff1673ffffffffffffffffffffffffffffffffffffffff1681526020019060010190808311611d66575b50505050508152602001600b8201805480602002602001604051908101604052809291908181526020018280548015611e0857602002820191906000526020600020905b815481526020019060010190808311611df4575b50505050508152602001600c820160009054906101000a900460ff16151515158152602001600c820160019054906101000a900460ff1615151515815250509050919050565b611e578261065e565b611e608161247b565b611e6a8383612577565b505050565b6000611e9b7f00000000000000000000000000000000000000000000000000000000000000003361188b565b905090565b611eca7f00000000000000000000000000000000000000000000000000000000000000003361188b565b611f09576040517f08c379a0000000000000000000000000000000000000000000000000000000008152600401611f0090613bb3565b60405180910390fd5b611f11612962565b600060066000838152602001908152602001600020905080600c0160019054906101000a900460ff1615611f7a576040517f08c379a0000000000000000000000000000000000000000000000000000000008152600401611f719061428d565b60405180910390fd5b806007015481600801541115611fc5576040517f08c379a0000000000000000000000000000000000000000000000000000000008152600401611fbc906142f9565b60405180910390fd5b600181600c0160016101000a81548160ff02191690831515021790555080600c0160009054906101000a900460ff1615612139578060090160009054906101000a900460ff16156120f9576120f481600a0180548060200260200160405190810160405280929190818152602001828054801561209757602002820191906000526020600020905b8160009054906101000a900473ffffffffffffffffffffffffffffffffffffffff1673ffffffffffffffffffffffffffffffffffffffff168152602001906001019080831161204d575b505050505082600b018054806020026020016040519081016040528092919081815260200182805480156120ea57602002820191906000526020600020905b8154815260200190600101908083116120d6575b5050505050610c53565b612134565b6040517f08c379a000000000000000000000000000000000000000000000000000000000815260040161212b90614365565b60405180910390fd5b6123ff565b8060090160009054906101000a900460ff16156123c35760005b81600a01805490508110156123bd576121cc7f000000000000000000000000000000000000000000000000000000000000000083600a01838154811061219c5761219b614174565b5b9060005260206000200160009054906101000a900473ffffffffffffffffffffffffffffffffffffffff16612954565b600082600a0180548060200260200160405190810160405280929190818152602001828054801561225257602002820191906000526020600020905b8160009054906101000a900473ffffffffffffffffffffffffffffffffffffffff1673ffffffffffffffffffffffffffffffffffffffff1681526020019060010190808311612208575b5050505050905060005b81518110156123a8576000600a600084848151811061227e5761227d614174565b5b602002602001015173ffffffffffffffffffffffffffffffffffffffff1673ffffffffffffffffffffffffffffffffffffffff1681526020019081526020016000206000015411612395576000600a60008484815181106122e2576122e1614174565b5b602002602001015173ffffffffffffffffffffffffffffffffffffffff1673ffffffffffffffffffffffffffffffffffffffff16815260200190815260200160002090507f000000000000000000000000000000000000000000000000000000000000000081600001819055506123937f000000000000000000000000000000000000000000000000000000000000000084848151811061238657612385614174565b5b6020026020010151612954565b505b80806123a090613c02565b91505061225c565b505080806123b590613c02565b915050612153565b506123fe565b6040517f08c379a00000000000000000000000000000000000000000000000000000000081526004016123f590614365565b60405180910390fd5b5b506124086129b1565b50565b60025481565b60007f01ffc9a7000000000000000000000000000000000000000000000000000000007bffffffffffffffffffffffffffffffffffffffffffffffffffffffff1916827bffffffffffffffffffffffffffffffffffffffffffffffffffffffff1916149050919050565b61248c8161248761256f565b6129bb565b50565b612499828261188b565b61256b57600180600084815260200190815260200160002060000160008373ffffffffffffffffffffffffffffffffffffffff1673ffffffffffffffffffffffffffffffffffffffff16815260200190815260200160002060006101000a81548160ff02191690831515021790555061251061256f565b73ffffffffffffffffffffffffffffffffffffffff168173ffffffffffffffffffffffffffffffffffffffff16837f2f8788117e7eff1d82e926ec794901d17c78024a50270940304540a733656f0d60405160405180910390a45b5050565b600033905090565b612581828261188b565b156126555760006001600084815260200190815260200160002060000160008373ffffffffffffffffffffffffffffffffffffffff1673ffffffffffffffffffffffffffffffffffffffff16815260200190815260200160002060006101000a81548160ff0219169083151502179055506125fa61256f565b73ffffffffffffffffffffffffffffffffffffffff168173ffffffffffffffffffffffffffffffffffffffff16837ff6391f5c32d9c69d2a47ea670b442974b53935d1edc7fd64eb21e047a839171b60405160405180910390a45b5050565b8160060160009054906101000a900460ff168061267a575042826005015411155b156126d75760018260060160006101000a81548160ff0219169083151502179055506040517f08c379a00000000000000000000000000000000000000000000000000000000081526004016126ce906143d1565b60405180910390fd5b7ff23ec0bb4210edd5cba85afd05127efcd2fc6a781bfed49188da1081670b22d881604051602001612709919061442d565b604051602081830303815290604052805190602001200361283c576000600860003373ffffffffffffffffffffffffffffffffffffffff1673ffffffffffffffffffffffffffffffffffffffff1681526020019081526020016000208054806020026020016040519081016040528092919081815260200182805480156127af57602002820191906000526020600020905b81548152602001906001019080831161279b575b5050505050905060005b8151811015612835578181815181106127d5576127d4614174565b5b6020026020010151846000015403612822576040517f08c379a000000000000000000000000000000000000000000000000000000000815260040161281990614490565b60405180910390fd5b808061282d90613c02565b9150506127b9565b5050612950565b6000600760003373ffffffffffffffffffffffffffffffffffffffff1673ffffffffffffffffffffffffffffffffffffffff1681526020019081526020016000208054806020026020016040519081016040528092919081815260200182805480156128c757602002820191906000526020600020905b8154815260200190600101908083116128b3575b5050505050905060005b815181101561294d578181815181106128ed576128ec614174565b5b602002602001015184600001540361293a576040517f08c379a000000000000000000000000000000000000000000000000000000000815260040161293190614490565b60405180910390fd5b808061294590613c02565b9150506128d1565b50505b5050565b61295e828261248f565b5050565b6002600054036129a7576040517f08c379a000000000000000000000000000000000000000000000000000000000815260040161299e906144fc565b60405180910390fd5b6002600081905550565b6001600081905550565b6129c5828261188b565b612a3c576129d281612a40565b6129e08360001c6020612a6d565b6040516020016129f19291906145b4565b6040516020818303038152906040526040517f08c379a0000000000000000000000000000000000000000000000000000000008152600401612a339190614627565b60405180910390fd5b5050565b6060612a668273ffffffffffffffffffffffffffffffffffffffff16601460ff16612a6d565b9050919050565b606060006002836002612a809190614649565b612a8a9190613f28565b67ffffffffffffffff811115612aa357612aa2612f14565b5b6040519080825280601f01601f191660200182016040528015612ad55781602001600182028036833780820191505090505b5090507f300000000000000000000000000000000000000000000000000000000000000081600081518110612b0d57612b0c614174565b5b60200101907effffffffffffffffffffffffffffffffffffffffffffffffffffffffffffff1916908160001a9053507f780000000000000000000000000000000000000000000000000000000000000081600181518110612b7157612b70614174565b5b60200101907effffffffffffffffffffffffffffffffffffffffffffffffffffffffffffff1916908160001a90535060006001846002612bb19190614649565b612bbb9190613f28565b90505b6001811115612c5b577f3031323334353637383961626364656600000000000000000000000000000000600f861660108110612bfd57612bfc614174565b5b1a60f81b828281518110612c1457612c13614174565b5b60200101907effffffffffffffffffffffffffffffffffffffffffffffffffffffffffffff1916908160001a905350600485901c945080612c549061468b565b9050612bbe565b5060008414612c9f576040517f08c379a0000000000000000000000000000000000000000000000000000000008152600401612c9690614700565b60405180910390fd5b8091505092915050565b604051806101c0016040528060008152602001606081526020016060815260200160008152602001600073ffffffffffffffffffffffffffffffffffffffff16815260200160008152602001600015158152602001600081526020016000815260200160001515815260200160608152602001606081526020016000151581526020016000151581525090565b828054828255906000526020600020908101928215612daf579160200282015b82811115612dae5782518260006101000a81548173ffffffffffffffffffffffffffffffffffffffff021916908373ffffffffffffffffffffffffffffffffffffffff16021790555091602001919060010190612d56565b5b509050612dbc9190612e0d565b5090565b828054828255906000526020600020908101928215612dfc579160200282015b82811115612dfb578251825591602001919060010190612de0565b5b509050612e099190612e0d565b5090565b5b80821115612e26576000816000905550600101612e0e565b5090565b6000604051905090565b600080fd5b600080fd5b60007fffffffff0000000000000000000000000000000000000000000000000000000082169050919050565b612e7381612e3e565b8114612e7e57600080fd5b50565b600081359050612e9081612e6a565b92915050565b600060208284031215612eac57612eab612e34565b5b6000612eba84828501612e81565b91505092915050565b60008115159050919050565b612ed881612ec3565b82525050565b6000602082019050612ef36000830184612ecf565b92915050565b600080fd5b600080fd5b6000601f19601f8301169050919050565b7f4e487b7100000000000000000000000000000000000000000000000000000000600052604160045260246000fd5b612f4c82612f03565b810181811067ffffffffffffffff82111715612f6b57612f6a612f14565b5b80604052505050565b6000612f7e612e2a565b9050612f8a8282612f43565b919050565b600067ffffffffffffffff821115612faa57612fa9612f14565b5b612fb382612f03565b9050602081019050919050565b82818337600083830152505050565b6000612fe2612fdd84612f8f565b612f74565b905082815260208101848484011115612ffe57612ffd612efe565b5b613009848285612fc0565b509392505050565b600082601f83011261302657613025612ef9565b5b8135613036848260208601612fcf565b91505092915050565b6000819050919050565b6130528161303f565b811461305d57600080fd5b50565b60008135905061306f81613049565b92915050565b60008060006060848603121561308e5761308d612e34565b5b600084013567ffffffffffffffff8111156130ac576130ab612e39565b5b6130b886828701613011565b935050602084013567ffffffffffffffff8111156130d9576130d8612e39565b5b6130e586828701613011565b92505060406130f686828701613060565b9150509250925092565b6131098161303f565b82525050565b600081519050919050565b600082825260208201905092915050565b60005b8381101561314957808201518184015260208101905061312e565b60008484015250505050565b60006131608261310f565b61316a818561311a565b935061317a81856020860161312b565b61318381612f03565b840191505092915050565b600073ffffffffffffffffffffffffffffffffffffffff82169050919050565b60006131b98261318e565b9050919050565b6131c9816131ae565b82525050565b6131d881612ec3565b82525050565b600081519050919050565b600082825260208201905092915050565b6000819050602082019050919050565b600061321683836131c0565b60208301905092915050565b6000602082019050919050565b600061323a826131de565b61324481856131e9565b935061324f836131fa565b8060005b83811015613280578151613267888261320a565b975061327283613222565b925050600181019050613253565b5085935050505092915050565b600081519050919050565b600082825260208201905092915050565b6000819050602082019050919050565b60006132c58383613100565b60208301905092915050565b6000602082019050919050565b60006132e98261328d565b6132f38185613298565b93506132fe836132a9565b8060005b8381101561332f57815161331688826132b9565b9750613321836132d1565b925050600181019050613302565b5085935050505092915050565b60006101c0830160008301516133556000860182613100565b506020830151848203602086015261336d8282613155565b915050604083015184820360408601526133878282613155565b915050606083015161339c6060860182613100565b5060808301516133af60808601826131c0565b5060a08301516133c260a0860182613100565b5060c08301516133d560c08601826131cf565b5060e08301516133e860e0860182613100565b506101008301516133fd610100860182613100565b506101208301516134126101208601826131cf565b5061014083015184820361014086015261342c828261322f565b91505061016083015184820361016086015261344882826132de565b91505061018083015161345f6101808601826131cf565b506101a08301516134746101a08601826131cf565b508091505092915050565b60006020820190508181036000830152613499818461333c565b905092915050565b6134aa8161303f565b82525050565b60006020820190506134c560008301846134a1565b92915050565b6000819050919050565b6134de816134cb565b81146134e957600080fd5b50565b6000813590506134fb816134d5565b92915050565b60006020828403121561351757613516612e34565b5b6000613525848285016134ec565b91505092915050565b613537816134cb565b82525050565b6000602082019050613552600083018461352e565b92915050565b600067ffffffffffffffff82111561357357613572612f14565b5b602082029050602081019050919050565b600080fd5b613592816131ae565b811461359d57600080fd5b50565b6000813590506135af81613589565b92915050565b60006135c86135c384613558565b612f74565b905080838252602082019050602084028301858111156135eb576135ea613584565b5b835b81811015613614578061360088826135a0565b8452602084019350506020810190506135ed565b5050509392505050565b600082601f83011261363357613632612ef9565b5b81356136438482602086016135b5565b91505092915050565b600067ffffffffffffffff82111561366757613666612f14565b5b602082029050602081019050919050565b600061368b6136868461364c565b612f74565b905080838252602082019050602084028301858111156136ae576136ad613584565b5b835b818110156136d757806136c38882613060565b8452602084019350506020810190506136b0565b5050509392505050565b600082601f8301126136f6576136f5612ef9565b5b8135613706848260208601613678565b91505092915050565b61371881612ec3565b811461372357600080fd5b50565b6000813590506137358161370f565b92915050565b600080600080600060a0868803121561375757613756612e34565b5b600086013567ffffffffffffffff81111561377557613774612e39565b5b61378188828901613011565b955050602086013567ffffffffffffffff8111156137a2576137a1612e39565b5b6137ae8882890161361e565b945050604086013567ffffffffffffffff8111156137cf576137ce612e39565b5b6137db888289016136e1565b93505060606137ec88828901613726565b92505060806137fd88828901613726565b9150509295509295909350565b6000806040838503121561382157613820612e34565b5b600061382f858286016134ec565b9250506020613840858286016135a0565b9150509250929050565b6000806040838503121561386157613860612e34565b5b600061386f85828601613060565b925050602061388085828601613060565b9150509250929050565b600080604083850312156138a1576138a0612e34565b5b600083013567ffffffffffffffff8111156138bf576138be612e39565b5b6138cb8582860161361e565b925050602083013567ffffffffffffffff8111156138ec576138eb612e39565b5b6138f8858286016136e1565b9150509250929050565b600081519050919050565b600082825260208201905092915050565b6000819050602082019050919050565b60006101c0830160008301516139476000860182613100565b506020830151848203602086015261395f8282613155565b915050604083015184820360408601526139798282613155565b915050606083015161398e6060860182613100565b5060808301516139a160808601826131c0565b5060a08301516139b460a0860182613100565b5060c08301516139c760c08601826131cf565b5060e08301516139da60e0860182613100565b506101008301516139ef610100860182613100565b50610120830151613a046101208601826131cf565b50610140830151848203610140860152613a1e828261322f565b915050610160830151848203610160860152613a3a82826132de565b915050610180830151613a516101808601826131cf565b506101a0830151613a666101a08601826131cf565b508091505092915050565b6000613a7d838361392e565b905092915050565b6000602082019050919050565b6000613a9d82613902565b613aa7818561390d565b935083602082028501613ab98561391e565b8060005b85811015613af55784840389528151613ad68582613a71565b9450613ae183613a85565b925060208a01995050600181019050613abd565b50829750879550505050505092915050565b60006020820190508181036000830152613b218184613a92565b905092915050565b600060208284031215613b3f57613b3e612e34565b5b6000613b4d84828501613060565b91505092915050565b600082825260208201905092915050565b7f556e617574686f72697a6564203a206f6e6c7920666f722061646d696e000000600082015250565b6000613b9d601d83613b56565b9150613ba882613b67565b602082019050919050565b60006020820190508181036000830152613bcc81613b90565b9050919050565b7f4e487b7100000000000000000000000000000000000000000000000000000000600052601160045260246000fd5b6000613c0d8261303f565b91507fffffffffffffffffffffffffffffffffffffffffffffffffffffffffffffffff8203613c3f57613c3e613bd3565b5b600182019050919050565b7f4e487b7100000000000000000000000000000000000000000000000000000000600052602260045260246000fd5b60006002820490506001821680613c9157607f821691505b602082108103613ca457613ca3613c4a565b5b50919050565b60008190508160005260206000209050919050565b60006020601f8301049050919050565b600082821b905092915050565b600060088302613d0c7fffffffffffffffffffffffffffffffffffffffffffffffffffffffffffffffff82613ccf565b613d168683613ccf565b95508019841693508086168417925050509392505050565b6000819050919050565b6000613d53613d4e613d498461303f565b613d2e565b61303f565b9050919050565b6000819050919050565b613d6d83613d38565b613d81613d7982613d5a565b848454613cdc565b825550505050565b600090565b613d96613d89565b613da1818484613d64565b505050565b5b81811015613dc557613dba600082613d8e565b600181019050613da7565b5050565b601f821115613e0a57613ddb81613caa565b613de484613cbf565b81016020851015613df3578190505b613e07613dff85613cbf565b830182613da6565b50505b505050565b600082821c905092915050565b6000613e2d60001984600802613e0f565b1980831691505092915050565b6000613e468383613e1c565b9150826002028217905092915050565b613e5f8261310f565b67ffffffffffffffff811115613e7857613e77612f14565b5b613e828254613c79565b613e8d828285613dc9565b600060209050601f831160018114613ec05760008415613eae578287015190505b613eb88582613e3a565b865550613f20565b601f198416613ece86613caa565b60005b82811015613ef657848901518255600182019150602085019450602081019050613ed1565b86831015613f135784890151613f0f601f891682613e1c565b8355505b6001600288020188555050505b505050505050565b6000613f338261303f565b9150613f3e8361303f565b9250828201905080821115613f5657613f55613bd3565b5b92915050565b7f50726f706f73616c207261697365640000000000000000000000000000000000600082015250565b6000613f92600f83613b56565b9150613f9d82613f5c565b602082019050919050565b6000604082019050613fbd600083018461352e565b8181036020830152613fce81613f85565b905092915050565b7f416363657373436f6e74726f6c3a2063616e206f6e6c792072656e6f756e636560008201527f20726f6c657320666f722073656c660000000000000000000000000000000000602082015250565b6000614032602f83613b56565b915061403d82613fd6565b604082019050919050565b6000602082019050818103600083015261406181614025565b9050919050565b7f556e617574686f72697a6564203a206f6e6c7920666f722070656f706c65206560008201527f6e726f6c6c656420696e207468697320696e737469747574696f6e0000000000602082015250565b60006140c4603b83613b56565b91506140cf82614068565b604082019050919050565b600060208201905081810360008301526140f3816140b7565b9050919050565b7f766f746564000000000000000000000000000000000000000000000000000000600082015250565b6000614130600583613b56565b915061413b826140fa565b602082019050919050565b600060408201905061415b600083018461352e565b818103602083015261416c81614123565b905092915050565b7f4e487b7100000000000000000000000000000000000000000000000000000000600052603260045260246000fd5b7f41444d494e5f524f4c4500000000000000000000000000000000000000000000815250565b7f416464726573736573206164646564207375636365737366756c6c7900000000600082015250565b60006141ff601c83613b56565b915061420a826141c9565b602082019050919050565b6000604082019050614229600083016141a3565b818103602083015261423a816141f2565b9050919050565b7f416374696f6e20616c726561647920706572666f726d65640000000000000000600082015250565b6000614277601883613b56565b915061428282614241565b602082019050919050565b600060208201905081810360008301526142a68161426a565b9050919050565b7f496e73756666696369656e7420766f7465730000000000000000000000000000600082015250565b60006142e3601283613b56565b91506142ee826142ad565b602082019050919050565b60006020820190508181036000830152614312816142d6565b9050919050565b7f436f6d696e6720736f6f6e000000000000000000000000000000000000000000600082015250565b600061434f600b83613b56565b915061435a82614319565b602082019050919050565b6000602082019050818103600083015261437e81614342565b9050919050565b7f50726f706f73616c206861732065787069726564000000000000000000000000600082015250565b60006143bb601483613b56565b91506143c682614385565b602082019050919050565b600060208201905081810360008301526143ea816143ae565b9050919050565b600081905092915050565b60006144078261310f565b61441181856143f1565b935061442181856020860161312b565b80840191505092915050565b600061443982846143fc565b915081905092915050565b7f596f75206861766520616c726561647920766f74656400000000000000000000600082015250565b600061447a601683613b56565b915061448582614444565b602082019050919050565b600060208201905081810360008301526144a98161446d565b9050919050565b7f5265656e7472616e637947756172643a207265656e7472616e742063616c6c00600082015250565b60006144e6601f83613b56565b91506144f1826144b0565b602082019050919050565b60006020820190508181036000830152614515816144d9565b9050919050565b7f416363657373436f6e74726f6c3a206163636f756e7420000000000000000000600082015250565b60006145526017836143f1565b915061455d8261451c565b601782019050919050565b7f206973206d697373696e6720726f6c6520000000000000000000000000000000600082015250565b600061459e6011836143f1565b91506145a982614568565b601182019050919050565b60006145bf82614545565b91506145cb82856143fc565b91506145d682614591565b91506145e282846143fc565b91508190509392505050565b60006145f98261310f565b6146038185613b56565b935061461381856020860161312b565b61461c81612f03565b840191505092915050565b6000602082019050818103600083015261464181846145ee565b905092915050565b60006146548261303f565b915061465f8361303f565b925082820261466d8161303f565b9150828204841483151761468457614683613bd3565b5b5092915050565b60006146968261303f565b9150600082036146a9576146a8613bd3565b5b600182039050919050565b7f537472696e67733a20686578206c656e67746820696e73756666696369656e74600082015250565b60006146ea602083613b56565b91506146f5826146b4565b602082019050919050565b60006020820190508181036000830152614719816146dd565b905091905056fea26469706673582212200371775b7c8a67b9d4b9807327349af4bc31c3c356dfe20ffc8175fd17bdce5664736f6c63430008110033",
  "immutableReferences": {
    "1586": [
      {
        "length": 32,
        "start": 1193
      },
      {
        "length": 32,
        "start": 1563
      },
      {
        "length": 32,
        "start": 1675
      },
      {
        "length": 32,
        "start": 6404
      },
      {
        "length": 32,
        "start": 6451
      },
      {
        "length": 32,
        "start": 6889
      },
      {
        "length": 32,
        "start": 7845
      },
      {
        "length": 32,
        "start": 8551
      }
    ],
    "1591": [
      {
        "length": 32,
        "start": 2364
      },
      {
        "length": 32,
        "start": 3097
      },
      {
        "length": 32,
        "start": 3400
      },
      {
        "length": 32,
        "start": 7798
      },
      {
        "length": 32,
        "start": 9044
      }
    ],
    "1598": [
      {
        "length": 32,
        "start": 1992
      }
    ],
    "1601": [
      {
        "length": 32,
        "start": 9000
      }
    ]
  },
  "source": "// SPDX-License-Identifier: MIT\npragma solidity ^0.8.7;\n\nimport \"@openzeppelin/contracts/security/ReentrancyGuard.sol\";\nimport \"@openzeppelin/contracts/access/AccessControl.sol\";\n\ncontract UniDAO is ReentrancyGuard, AccessControl {\n    bytes32 private immutable ADMIN_ROLE = keccak256(\"ADMIN\");\n    bytes32 private immutable VOTER_ROLE = keccak256(\"VOTER\");\n\n    uint256 public totalProposal;\n    uint256 public admProposals;\n    uint32 immutable MIN_VOTE_DURATION = 180 minutes;\n    uint256 immutable ADMIN_POWER = 30;\n\n    address[] adminAddresses;\n\n    mapping(uint256 => ProposalStruct) private raisedProposals;\n    mapping(uint256 => ProposalStruct) private changeAdminProposals;\n\n    mapping(address => uint256[]) private VoterVotes;\n    mapping(address => uint256[]) private AdminVotes;\n    mapping(uint256 => VotedStruct[]) private VotedOn;\n    mapping(address => VoterStruct) private enrolled;\n\n  \n\n    //structs\n    struct ProposalStruct {\n        uint256 proposalId;\n        string title;\n        string description;\n        uint256 reactions;\n        address proposer;\n        uint256 duration;\n        bool passed;\n        uint256 upvotes;\n        uint256 downvotes;\n        bool enrol;\n        address[] change;\n        uint256[] power;\n        bool voter;\n        bool action;\n    }\n\n    struct VotedStruct {\n        address voter;\n        uint256 timestamp;\n        uint256 choosen;\n        uint256 power;\n    }\n\n    struct VoterStruct {\n        uint256 power;\n    }\n\n    //events\n    event Action(address indexed initiator, bytes32 role, string message);\n\n    constructor(address[] memory addr) public {\n        for (uint256 i = 0; i < addr.length; i++) {\n            adminAddresses.push(addr[i]);\n             _setupRole(ADMIN_ROLE, addr[i]);\n              _setupRole(VOTER_ROLE, addr[i]);\n              if (enrolled[addr[i]].power > 0) {\n                            continue;\n                        }\n                        VoterStruct storage voter = enrolled[addr[i]];\n                        voter.power = ADMIN_POWER;\n        }\n    }\n\n    //modifiers\n\n    modifier AdminOnly() {\n        require(\n            hasRole(ADMIN_ROLE, msg.sender),\n            \"Unauthorized : only for admin\"\n        );\n        _;\n    }\n\n    modifier VoterOnly() {\n        require(\n            hasRole(VOTER_ROLE, msg.sender),\n            \"Unauthorized : only for people enrolled in this institution\"\n        );\n        _;\n    }\n    \n    function createProposal(\n        string memory _title,\n        string memory _description,\n        uint256 _duration\n    ) external AdminOnly returns (ProposalStruct memory) {\n        uint256 _proposalId = totalProposal++;\n        ProposalStruct storage proposal = raisedProposals[_proposalId];\n\n        proposal.proposalId = _proposalId;\n        proposal.proposer = msg.sender;\n        proposal.title = _title;\n        proposal.description = _description;\n        proposal.duration = block.timestamp + _duration;\n        proposal.reactions = 0;\n        proposal.downvotes = 0;\n        proposal.upvotes = 0;\n\n        emit Action(msg.sender, ADMIN_ROLE, \"Proposal raised\");\n    }\n\n    // admin proposal : entrol : true ---> to enroll new address : false ---> delete ::: voter : true ----> enrol or delete a voter : false ---> enrol or delete admin\n\n    function createAdminProposal(\n        string memory _title,\n        address[] memory addresses,\n        uint256[] memory _power,\n        bool _enrol,\n        bool _voter\n    ) public AdminOnly returns (ProposalStruct memory) {\n        uint256 _admProposals = admProposals++;\n        ProposalStruct storage proposal = changeAdminProposals[_admProposals];\n\n        proposal.proposalId = _admProposals;\n        proposal.proposer = msg.sender;\n        proposal.title = _title;\n        proposal.description = \"admin votes\";\n        proposal.duration = block.timestamp + MIN_VOTE_DURATION;\n        proposal.change = addresses;\n        proposal.enrol = _enrol;\n        proposal.voter = _voter;\n        proposal.reactions = 0;\n        proposal.downvotes = 0;\n        proposal.upvotes = 0;\n        proposal.power = _power;\n    }\n\n    function performAdminVote(uint256 _proposalId, uint256 choosen)\n        public\n        AdminOnly\n    {\n        ProposalStruct storage proposal = changeAdminProposals[_proposalId];\n        handleVoting(proposal, \"admin\");\n        proposal.reactions++;\n        if (choosen == 1) proposal.upvotes++;\n        else proposal.downvotes++;\n\n        AdminVotes[msg.sender].push(_proposalId);\n\n        emit Action(msg.sender, ADMIN_ROLE, \"voted\");\n    }\n\n    function performVote(uint256 _proposalId, uint256 choosen)\n        public\n        VoterOnly\n    {\n        ProposalStruct storage proposal = raisedProposals[_proposalId];\n        handleVoting(proposal, \"voter\");\n        uint256 _power = enrolled[msg.sender].power;\n        proposal.reactions++;\n        if (choosen == 1) proposal.upvotes += _power;\n        else proposal.downvotes += _power;\n\n        VoterVotes[msg.sender].push(_proposalId);\n\n        VotedOn[proposal.proposalId].push(\n            VotedStruct(payable(msg.sender), block.timestamp, choosen, _power)\n        );\n\n        emit Action(msg.sender, VOTER_ROLE, \"voted\");\n    }\n\n    function handleVoting(ProposalStruct storage proposal, string memory adm)\n        private\n    {\n        if (proposal.passed || proposal.duration <= block.timestamp) {\n            proposal.passed = true;\n            revert(\"Proposal has expired\");\n        }\n        if (keccak256(abi.encodePacked(adm)) == keccak256(\"admin\")) {\n            uint256[] memory tempVotes = AdminVotes[msg.sender];\n            for (uint256 votes = 0; votes < tempVotes.length; votes++) {\n                if (proposal.proposalId == tempVotes[votes]) {\n                    revert(\"You have already voted\");\n                }\n            }\n        } else {\n            uint256[] memory tempVotes = VoterVotes[msg.sender];\n            for (uint256 votes = 0; votes < tempVotes.length; votes++) {\n                if (proposal.proposalId == tempVotes[votes]) {\n                    revert(\"You have already voted\");\n                }\n            }\n        }\n    }\n\n    function getProposals()\n        public\n        view\n        returns (ProposalStruct[] memory props)\n    {\n        props = new ProposalStruct[](totalProposal);\n\n        for (uint256 i = 0; i < totalProposal; i++) {\n            props[i] = raisedProposals[i];\n        }\n    }\n\n    function getProposal(uint256 _proposalId)\n        public\n        view\n        returns (ProposalStruct memory)\n    {\n        return raisedProposals[_proposalId];\n    }\n\n    function isVoter() public view returns (bool) {\n        return hasRole(VOTER_ROLE, msg.sender);\n    }\n\n    function isAdmin() public view returns (bool) {\n        return hasRole(ADMIN_ROLE, msg.sender);\n    }\n\n    function getAdminProposals()\n        public\n        view\n        returns (ProposalStruct[] memory props)\n    {\n        props = new ProposalStruct[](totalProposal);\n\n        for (uint256 i = 0; i < totalProposal; i++) {\n            props[i] = changeAdminProposals[i];\n        }\n    }\n\n    function getAdminProposal(uint256 _proposalId)\n        public\n        view\n        returns (ProposalStruct memory)\n    {\n        return changeAdminProposals[_proposalId];\n    }\n\n    //perform enroll and deroll\n\n    function performAction(uint256 _proposalId) public AdminOnly nonReentrant {\n        ProposalStruct storage proposal = changeAdminProposals[_proposalId];\n        if (proposal.action) revert(\"Action already performed\");\n        if (proposal.downvotes > proposal.upvotes) revert(\"Insufficient votes\");\n        proposal.action = true;\n        if (proposal.voter) {\n            if (proposal.enrol) {\n                enrollVoters(proposal.change, proposal.power);\n            } else revert(\"Coming soon\");\n        } else {\n            if (proposal.enrol) {\n                for (uint256 i = 0; i < proposal.change.length; i++) {\n                    _setupRole(ADMIN_ROLE, proposal.change[i]);\n                    address[] memory addresses = proposal.change;\n                    for (uint256 i = 0; i < addresses.length; i++) {\n                        if (enrolled[addresses[i]].power > 0) {\n                            continue;\n                        }\n                        VoterStruct storage voter = enrolled[addresses[i]];\n                        voter.power = ADMIN_POWER;\n                        _setupRole(VOTER_ROLE, addresses[i]);\n                    }\n                }\n            } else revert(\"Coming soon\");\n        }\n    }\n\n    //  enroll new voters\n\n    function enrollVoters(address[] memory addresses, uint256[] memory _power)\n        public\n    {\n        for (uint256 i = 0; i < addresses.length; i++) {\n            if (enrolled[addresses[i]].power > 0) {\n                continue;\n            }\n            VoterStruct storage voter = enrolled[addresses[i]];\n            voter.power = _power[i];\n            _setupRole(VOTER_ROLE, addresses[i]);\n        }\n\n        emit Action(\n            address(this),\n            \"ADMIN_ROLE\",\n            \"Addresses added successfully\"\n        );\n    }\n}\n",
  "sourcePath": "/home/vishnu/Vishnu/Ibeto/UniDAO/contracts/UniDAO.sol",
  "compiler": {
    "name": "solc",
    "version": "0.8.17+commit.8df45f5f.Emscripten.clang"
  },
  "schemaVersion": "3.4.11",
  "updatedAt": "2023-03-08T15:39:27.939Z",
  "networkType": "ethereum",
  "devdoc": {
    "kind": "dev",
    "methods": {
      "getRoleAdmin(bytes32)": {
        "details": "Returns the admin role that controls `role`. See {grantRole} and {revokeRole}. To change a role's admin, use {_setRoleAdmin}."
      },
      "grantRole(bytes32,address)": {
        "details": "Grants `role` to `account`. If `account` had not been already granted `role`, emits a {RoleGranted} event. Requirements: - the caller must have ``role``'s admin role. May emit a {RoleGranted} event."
      },
      "hasRole(bytes32,address)": {
        "details": "Returns `true` if `account` has been granted `role`."
      },
      "renounceRole(bytes32,address)": {
        "details": "Revokes `role` from the calling account. Roles are often managed via {grantRole} and {revokeRole}: this function's purpose is to provide a mechanism for accounts to lose their privileges if they are compromised (such as when a trusted device is misplaced). If the calling account had been revoked `role`, emits a {RoleRevoked} event. Requirements: - the caller must be `account`. May emit a {RoleRevoked} event."
      },
      "revokeRole(bytes32,address)": {
        "details": "Revokes `role` from `account`. If `account` had been granted `role`, emits a {RoleRevoked} event. Requirements: - the caller must have ``role``'s admin role. May emit a {RoleRevoked} event."
      },
      "supportsInterface(bytes4)": {
        "details": "See {IERC165-supportsInterface}."
      }
    },
    "version": 1
  },
  "userdoc": {
    "kind": "user",
    "methods": {},
    "version": 1
  }
}