{
  "contractName": "UniDAO",
  "contract-address": "0x085ce9B11C7C9EAb7B5bbCB4E4765E88bC44Ae05",
  "abi": [
    {
      "inputs": [
        {
          "internalType": "address[]",
          "name": "addr",
          "type": "address[]"
        }
      ],
      "stateMutability": "nonpayable",
      "type": "constructor"
    },
    {
      "anonymous": false,
      "inputs": [
        {
          "indexed": true,
          "internalType": "address",
          "name": "initiator",
          "type": "address"
        },
        {
          "indexed": false,
          "internalType": "bytes32",
          "name": "role",
          "type": "bytes32"
        },
        {
          "indexed": false,
          "internalType": "string",
          "name": "message",
          "type": "string"
        }
      ],
      "name": "Action",
      "type": "event"
    },
    {
      "anonymous": false,
      "inputs": [
        {
          "indexed": true,
          "internalType": "bytes32",
          "name": "role",
          "type": "bytes32"
        },
        {
          "indexed": true,
          "internalType": "bytes32",
          "name": "previousAdminRole",
          "type": "bytes32"
        },
        {
          "indexed": true,
          "internalType": "bytes32",
          "name": "newAdminRole",
          "type": "bytes32"
        }
      ],
      "name": "RoleAdminChanged",
      "type": "event"
    },
    {
      "anonymous": false,
      "inputs": [
        {
          "indexed": true,
          "internalType": "bytes32",
          "name": "role",
          "type": "bytes32"
        },
        {
          "indexed": true,
          "internalType": "address",
          "name": "account",
          "type": "address"
        },
        {
          "indexed": true,
          "internalType": "address",
          "name": "sender",
          "type": "address"
        }
      ],
      "name": "RoleGranted",
      "type": "event"
    },
    {
      "anonymous": false,
      "inputs": [
        {
          "indexed": true,
          "internalType": "bytes32",
          "name": "role",
          "type": "bytes32"
        },
        {
          "indexed": true,
          "internalType": "address",
          "name": "account",
          "type": "address"
        },
        {
          "indexed": true,
          "internalType": "address",
          "name": "sender",
          "type": "address"
        }
      ],
      "name": "RoleRevoked",
      "type": "event"
    },
    {
      "inputs": [],
      "name": "DEFAULT_ADMIN_ROLE",
      "outputs": [
        {
          "internalType": "bytes32",
          "name": "",
          "type": "bytes32"
        }
      ],
      "stateMutability": "view",
      "type": "function",
      "constant": true
    },
    {
      "inputs": [],
      "name": "admProposals",
      "outputs": [
        {
          "internalType": "uint256",
          "name": "",
          "type": "uint256"
        }
      ],
      "stateMutability": "view",
      "type": "function",
      "constant": true
    },
    {
      "inputs": [
        {
          "internalType": "bytes32",
          "name": "role",
          "type": "bytes32"
        }
      ],
      "name": "getRoleAdmin",
      "outputs": [
        {
          "internalType": "bytes32",
          "name": "",
          "type": "bytes32"
        }
      ],
      "stateMutability": "view",
      "type": "function",
      "constant": true
    },
    {
      "inputs": [
        {
          "internalType": "bytes32",
          "name": "role",
          "type": "bytes32"
        },
        {
          "internalType": "address",
          "name": "account",
          "type": "address"
        }
      ],
      "name": "grantRole",
      "outputs": [],
      "stateMutability": "nonpayable",
      "type": "function"
    },
    {
      "inputs": [
        {
          "internalType": "bytes32",
          "name": "role",
          "type": "bytes32"
        },
        {
          "internalType": "address",
          "name": "account",
          "type": "address"
        }
      ],
      "name": "hasRole",
      "outputs": [
        {
          "internalType": "bool",
          "name": "",
          "type": "bool"
        }
      ],
      "stateMutability": "view",
      "type": "function",
      "constant": true
    },
    {
      "inputs": [
        {
          "internalType": "bytes32",
          "name": "role",
          "type": "bytes32"
        },
        {
          "internalType": "address",
          "name": "account",
          "type": "address"
        }
      ],
      "name": "renounceRole",
      "outputs": [],
      "stateMutability": "nonpayable",
      "type": "function"
    },
    {
      "inputs": [
        {
          "internalType": "bytes32",
          "name": "role",
          "type": "bytes32"
        },
        {
          "internalType": "address",
          "name": "account",
          "type": "address"
        }
      ],
      "name": "revokeRole",
      "outputs": [],
      "stateMutability": "nonpayable",
      "type": "function"
    },
    {
      "inputs": [
        {
          "internalType": "bytes4",
          "name": "interfaceId",
          "type": "bytes4"
        }
      ],
      "name": "supportsInterface",
      "outputs": [
        {
          "internalType": "bool",
          "name": "",
          "type": "bool"
        }
      ],
      "stateMutability": "view",
      "type": "function",
      "constant": true
    },
    {
      "inputs": [],
      "name": "totalProposal",
      "outputs": [
        {
          "internalType": "uint256",
          "name": "",
          "type": "uint256"
        }
      ],
      "stateMutability": "view",
      "type": "function",
      "constant": true
    },
    {
      "inputs": [],
      "name": "setAdminRole",
      "outputs": [],
      "stateMutability": "nonpayable",
      "type": "function"
    },
    {
      "inputs": [
        {
          "internalType": "address",
          "name": "addr",
          "type": "address"
        }
      ],
      "name": "setnewAdmin",
      "outputs": [],
      "stateMutability": "nonpayable",
      "type": "function"
    },
    {
      "inputs": [
        {
          "internalType": "string",
          "name": "_title",
          "type": "string"
        },
        {
          "internalType": "string",
          "name": "_description",
          "type": "string"
        },
        {
          "internalType": "uint256",
          "name": "_duration",
          "type": "uint256"
        }
      ],
      "name": "createProposal",
      "outputs": [
        {
          "components": [
            {
              "internalType": "uint256",
              "name": "proposalId",
              "type": "uint256"
            },
            {
              "internalType": "string",
              "name": "title",
              "type": "string"
            },
            {
              "internalType": "string",
              "name": "description",
              "type": "string"
            },
            {
              "internalType": "uint256",
              "name": "reactions",
              "type": "uint256"
            },
            {
              "internalType": "address",
              "name": "proposer",
              "type": "address"
            },
            {
              "internalType": "uint256",
              "name": "duration",
              "type": "uint256"
            },
            {
              "internalType": "bool",
              "name": "passed",
              "type": "bool"
            },
            {
              "internalType": "uint256",
              "name": "upvotes",
              "type": "uint256"
            },
            {
              "internalType": "uint256",
              "name": "downvotes",
              "type": "uint256"
            },
            {
              "internalType": "bool",
              "name": "enrol",
              "type": "bool"
            },
            {
              "internalType": "address[]",
              "name": "change",
              "type": "address[]"
            },
            {
              "internalType": "uint256[]",
              "name": "power",
              "type": "uint256[]"
            },
            {
              "internalType": "bool",
              "name": "voter",
              "type": "bool"
            },
            {
              "internalType": "bool",
              "name": "action",
              "type": "bool"
            }
          ],
          "internalType": "struct UniDAO.ProposalStruct",
          "name": "",
          "type": "tuple"
        }
      ],
      "stateMutability": "nonpayable",
      "type": "function"
    },
    {
      "inputs": [
        {
          "internalType": "string",
          "name": "_title",
          "type": "string"
        },
        {
          "internalType": "uint256",
          "name": "_duration",
          "type": "uint256"
        },
        {
          "internalType": "address[]",
          "name": "addresses",
          "type": "address[]"
        },
        {
          "internalType": "uint256[]",
          "name": "_power",
          "type": "uint256[]"
        },
        {
          "internalType": "bool",
          "name": "_enrol",
          "type": "bool"
        },
        {
          "internalType": "bool",
          "name": "_voter",
          "type": "bool"
        }
      ],
      "name": "createAdminProposal",
      "outputs": [
        {
          "components": [
            {
              "internalType": "uint256",
              "name": "proposalId",
              "type": "uint256"
            },
            {
              "internalType": "string",
              "name": "title",
              "type": "string"
            },
            {
              "internalType": "string",
              "name": "description",
              "type": "string"
            },
            {
              "internalType": "uint256",
              "name": "reactions",
              "type": "uint256"
            },
            {
              "internalType": "address",
              "name": "proposer",
              "type": "address"
            },
            {
              "internalType": "uint256",
              "name": "duration",
              "type": "uint256"
            },
            {
              "internalType": "bool",
              "name": "passed",
              "type": "bool"
            },
            {
              "internalType": "uint256",
              "name": "upvotes",
              "type": "uint256"
            },
            {
              "internalType": "uint256",
              "name": "downvotes",
              "type": "uint256"
            },
            {
              "internalType": "bool",
              "name": "enrol",
              "type": "bool"
            },
            {
              "internalType": "address[]",
              "name": "change",
              "type": "address[]"
            },
            {
              "internalType": "uint256[]",
              "name": "power",
              "type": "uint256[]"
            },
            {
              "internalType": "bool",
              "name": "voter",
              "type": "bool"
            },
            {
              "internalType": "bool",
              "name": "action",
              "type": "bool"
            }
          ],
          "internalType": "struct UniDAO.ProposalStruct",
          "name": "",
          "type": "tuple"
        }
      ],
      "stateMutability": "nonpayable",
      "type": "function"
    },
    {
      "inputs": [
        {
          "internalType": "uint256",
          "name": "_proposalId",
          "type": "uint256"
        },
        {
          "internalType": "uint256",
          "name": "choosen",
          "type": "uint256"
        }
      ],
      "name": "performAdminVote",
      "outputs": [],
      "stateMutability": "nonpayable",
      "type": "function"
    },
    {
      "inputs": [
        {
          "internalType": "uint256",
          "name": "_proposalId",
          "type": "uint256"
        },
        {
          "internalType": "uint256",
          "name": "choosen",
          "type": "uint256"
        }
      ],
      "name": "performVote",
      "outputs": [],
      "stateMutability": "nonpayable",
      "type": "function"
    },
    {
      "inputs": [],
      "name": "getProposals",
      "outputs": [
        {
          "components": [
            {
              "internalType": "uint256",
              "name": "proposalId",
              "type": "uint256"
            },
            {
              "internalType": "string",
              "name": "title",
              "type": "string"
            },
            {
              "internalType": "string",
              "name": "description",
              "type": "string"
            },
            {
              "internalType": "uint256",
              "name": "reactions",
              "type": "uint256"
            },
            {
              "internalType": "address",
              "name": "proposer",
              "type": "address"
            },
            {
              "internalType": "uint256",
              "name": "duration",
              "type": "uint256"
            },
            {
              "internalType": "bool",
              "name": "passed",
              "type": "bool"
            },
            {
              "internalType": "uint256",
              "name": "upvotes",
              "type": "uint256"
            },
            {
              "internalType": "uint256",
              "name": "downvotes",
              "type": "uint256"
            },
            {
              "internalType": "bool",
              "name": "enrol",
              "type": "bool"
            },
            {
              "internalType": "address[]",
              "name": "change",
              "type": "address[]"
            },
            {
              "internalType": "uint256[]",
              "name": "power",
              "type": "uint256[]"
            },
            {
              "internalType": "bool",
              "name": "voter",
              "type": "bool"
            },
            {
              "internalType": "bool",
              "name": "action",
              "type": "bool"
            }
          ],
          "internalType": "struct UniDAO.ProposalStruct[]",
          "name": "props",
          "type": "tuple[]"
        }
      ],
      "stateMutability": "view",
      "type": "function",
      "constant": true
    },
    {
      "inputs": [
        {
          "internalType": "uint256",
          "name": "_proposalId",
          "type": "uint256"
        }
      ],
      "name": "getProposal",
      "outputs": [
        {
          "components": [
            {
              "internalType": "uint256",
              "name": "proposalId",
              "type": "uint256"
            },
            {
              "internalType": "string",
              "name": "title",
              "type": "string"
            },
            {
              "internalType": "string",
              "name": "description",
              "type": "string"
            },
            {
              "internalType": "uint256",
              "name": "reactions",
              "type": "uint256"
            },
            {
              "internalType": "address",
              "name": "proposer",
              "type": "address"
            },
            {
              "internalType": "uint256",
              "name": "duration",
              "type": "uint256"
            },
            {
              "internalType": "bool",
              "name": "passed",
              "type": "bool"
            },
            {
              "internalType": "uint256",
              "name": "upvotes",
              "type": "uint256"
            },
            {
              "internalType": "uint256",
              "name": "downvotes",
              "type": "uint256"
            },
            {
              "internalType": "bool",
              "name": "enrol",
              "type": "bool"
            },
            {
              "internalType": "address[]",
              "name": "change",
              "type": "address[]"
            },
            {
              "internalType": "uint256[]",
              "name": "power",
              "type": "uint256[]"
            },
            {
              "internalType": "bool",
              "name": "voter",
              "type": "bool"
            },
            {
              "internalType": "bool",
              "name": "action",
              "type": "bool"
            }
          ],
          "internalType": "struct UniDAO.ProposalStruct",
          "name": "",
          "type": "tuple"
        }
      ],
      "stateMutability": "view",
      "type": "function",
      "constant": true
    },
    {
      "inputs": [],
      "name": "isVoter",
      "outputs": [
        {
          "internalType": "bool",
          "name": "",
          "type": "bool"
        }
      ],
      "stateMutability": "view",
      "type": "function",
      "constant": true
    },
    {
      "inputs": [
        {
          "internalType": "uint256",
          "name": "_proposalId",
          "type": "uint256"
        }
      ],
      "name": "performAction",
      "outputs": [],
      "stateMutability": "nonpayable",
      "type": "function"
    },
    {
      "inputs": [
        {
          "internalType": "address[]",
          "name": "addresses",
          "type": "address[]"
        },
        {
          "internalType": "uint256[]",
          "name": "_power",
          "type": "uint256[]"
        }
      ],
      "name": "enrollVoters",
      "outputs": [],
      "stateMutability": "nonpayable",
      "type": "function"
    }
  ],
  "bytecode": "0x60e06040527fdf8b4c520ffe197c5343c6f5aec59570151ef9a492f2c624fd45ddde6135ec426080908152507f15283fd96aa656c9df35ac2fcb112678a5f24f1ca97e591a97d1d16003dbfc9c60a09081525061012c63ffffffff1660c09063ffffffff168152506001600b60006101000a81548160ff0219169083151502179055503480156200008f57600080fd5b5060405162004567380380620045678339818101604052810190620000b5919062000356565b600160008190555060005b815181101562000160576004828281518110620000e257620000e1620003a7565b5b60200260200101519080600181540180825580915050600190039060005260206000200160009091909190916101000a81548173ffffffffffffffffffffffffffffffffffffffff021916908373ffffffffffffffffffffffffffffffffffffffff160217905550808062000157906200040f565b915050620000c0565b50506200045c565b6000604051905090565b600080fd5b600080fd5b600080fd5b6000601f19601f8301169050919050565b7f4e487b7100000000000000000000000000000000000000000000000000000000600052604160045260246000fd5b620001cc8262000181565b810181811067ffffffffffffffff82111715620001ee57620001ed62000192565b5b80604052505050565b60006200020362000168565b9050620002118282620001c1565b919050565b600067ffffffffffffffff82111562000234576200023362000192565b5b602082029050602081019050919050565b600080fd5b600073ffffffffffffffffffffffffffffffffffffffff82169050919050565b600062000277826200024a565b9050919050565b62000289816200026a565b81146200029557600080fd5b50565b600081519050620002a9816200027e565b92915050565b6000620002c6620002c08462000216565b620001f7565b90508083825260208201905060208402830185811115620002ec57620002eb62000245565b5b835b8181101562000319578062000304888262000298565b845260208401935050602081019050620002ee565b5050509392505050565b600082601f8301126200033b576200033a6200017c565b5b81516200034d848260208601620002af565b91505092915050565b6000602082840312156200036f576200036e62000172565b5b600082015167ffffffffffffffff81111562000390576200038f62000177565b5b6200039e8482850162000323565b91505092915050565b7f4e487b7100000000000000000000000000000000000000000000000000000000600052603260045260246000fd5b7f4e487b7100000000000000000000000000000000000000000000000000000000600052601160045260246000fd5b6000819050919050565b60006200041c8262000405565b91507fffffffffffffffffffffffffffffffffffffffffffffffffffffffffffffffff8203620004515762000450620003d6565b5b600182019050919050565b60805160a05160c051614083620004e460003960005050600081816107690152818161084201528181610b1f01528181610c4e015281816116da0152611c06015260008181610458015281816105ca0152818161070101528181611123015281816112d9015281816116b00152818161170f015281816118f70152611b9c01526140836000f3fe608060405234801561001057600080fd5b506004361061012c5760003560e01c806391d14854116100ad578063d87c4be311610071578063d87c4be31461032d578063df57f7221461034b578063ec1b373314610367578063f004073a14610397578063f1c5fd82146103b35761012c565b806391d1485414610277578063a217fddf146102a7578063c5d06273146102c5578063c7f758a8146102e1578063d547741f146103115761012c565b806336568abe116100f457806336568abe146101fb578063374de2181461021757806344eead951461022157806347b8ab3a1461023d57806362564c48146102595761012c565b806301ffc9a7146101315780630ce0ebf414610161578063240e31e914610191578063248a9ca3146101af5780632f2ff15d146101df575b600080fd5b61014b60048036038101906101469190612718565b6103d1565b6040516101589190612760565b60405180910390f35b61017b600480360381019061017691906128f7565b61044b565b6040516101889190612d01565b60405180910390f35b610199610607565b6040516101a69190612d32565b60405180910390f35b6101c960048036038101906101c49190612d83565b61060d565b6040516101d69190612dbf565b60405180910390f35b6101f960048036038101906101f49190612e06565b61062d565b005b61021560048036038101906102109190612e06565b61064e565b005b61021f6106d1565b005b61023b60048036038101906102369190612e46565b61083d565b005b61025760048036038101906102529190613011565b610b59565b005b610261610cf3565b60405161026e919061328e565b60405180910390f35b610291600480360381019061028c9190612e06565b6110ac565b60405161029e9190612760565b60405180910390f35b6102af611117565b6040516102bc9190612dbf565b60405180910390f35b6102df60048036038101906102da9190612e46565b61111e565b005b6102fb60048036038101906102f691906132b0565b611312565b6040516103089190612d01565b60405180910390f35b61032b60048036038101906103269190612e06565b61163e565b005b61033561165f565b6040516103429190612760565b60405180910390f35b610365600480360381019061036091906132dd565b6116ab565b005b610381600480360381019061037c9190613336565b611702565b60405161038e9190612d01565b60405180910390f35b6103b160048036038101906103ac91906132b0565b6118f2565b005b6103bb611c8d565b6040516103c89190612d32565b60405180910390f35b60007f7965db0b000000000000000000000000000000000000000000000000000000007bffffffffffffffffffffffffffffffffffffffffffffffffffffffff1916827bffffffffffffffffffffffffffffffffffffffffffffffffffffffff19161480610444575061044382611c93565b5b9050919050565b61045361252b565b61047d7f0000000000000000000000000000000000000000000000000000000000000000336110ac565b6104bc576040517f08c379a00000000000000000000000000000000000000000000000000000000081526004016104b390613474565b60405180910390fd5b6000600260008154809291906104d1906134c3565b9190505590506000600560008381526020019081526020016000209050818160000181905550338160040160006101000a81548173ffffffffffffffffffffffffffffffffffffffff021916908373ffffffffffffffffffffffffffffffffffffffff1602179055508581600101908161054b9190613717565b508481600201908161055d9190613717565b50834261056a91906137e9565b81600501819055506000816003018190555060008160080181905550600081600701819055503373ffffffffffffffffffffffffffffffffffffffff167ff4195914bd1a75ff318a3e75d2111a80cc0a9a8375aea50e407aec30082ea0e37f00000000000000000000000000000000000000000000000000000000000000006040516105f69190613869565b60405180910390a250509392505050565b60035481565b600060016000838152602001908152602001600020600101549050919050565b6106368261060d565b61063f81611cfd565b6106498383611d11565b505050565b610656611df1565b73ffffffffffffffffffffffffffffffffffffffff168173ffffffffffffffffffffffffffffffffffffffff16146106c3576040517f08c379a00000000000000000000000000000000000000000000000000000000081526004016106ba90613909565b60405180910390fd5b6106cd8282611df9565b5050565b60011515600b60009054906101000a900460ff161515036108005760005b6004805490508110156107df576107647f00000000000000000000000000000000000000000000000000000000000000006004838154811061073457610733613929565b5b9060005260206000200160009054906101000a900473ffffffffffffffffffffffffffffffffffffffff16611edb565b6107cc7f00000000000000000000000000000000000000000000000000000000000000006004838154811061079c5761079b613929565b5b9060005260206000200160009054906101000a900473ffffffffffffffffffffffffffffffffffffffff16611edb565b80806107d7906134c3565b9150506106ef565b506000600b60006101000a81548160ff02191690831515021790555061083b565b6040517f08c379a0000000000000000000000000000000000000000000000000000000008152600401610832906139a4565b60405180910390fd5b565b6108677f0000000000000000000000000000000000000000000000000000000000000000336110ac565b6108a6576040517f08c379a000000000000000000000000000000000000000000000000000000000815260040161089d90613a36565b60405180910390fd5b60006005600084815260200190815260200160002090506108fc816040518060400160405280600581526020017f766f746572000000000000000000000000000000000000000000000000000000815250611ee9565b6000600a60003373ffffffffffffffffffffffffffffffffffffffff1673ffffffffffffffffffffffffffffffffffffffff168152602001908152602001600020600001549050816003016000815480929190610958906134c3565b919050555060018303610985578082600701600082825461097991906137e9565b925050819055506109a1565b8082600801600082825461099991906137e9565b925050819055505b600760003373ffffffffffffffffffffffffffffffffffffffff1673ffffffffffffffffffffffffffffffffffffffff168152602001908152602001600020849080600181540180825580915050600190039060005260206000200160009091909190915055600960008360000154815260200190815260200160002060405180608001604052803373ffffffffffffffffffffffffffffffffffffffff16815260200142815260200185815260200183815250908060018154018082558091505060019003906000526020600020906004020160009091909190915060008201518160000160006101000a81548173ffffffffffffffffffffffffffffffffffffffff021916908373ffffffffffffffffffffffffffffffffffffffff16021790555060208201518160010155604082015181600201556060820151816003015550503373ffffffffffffffffffffffffffffffffffffffff167ff4195914bd1a75ff318a3e75d2111a80cc0a9a8375aea50e407aec30082ea0e37f0000000000000000000000000000000000000000000000000000000000000000604051610b4b9190613aa2565b60405180910390a250505050565b60005b8251811015610ca2576000600a6000858481518110610b7e57610b7d613929565b5b602002602001015173ffffffffffffffffffffffffffffffffffffffff1673ffffffffffffffffffffffffffffffffffffffff1681526020019081526020016000206000015411610c8f576000600a6000858481518110610be257610be1613929565b5b602002602001015173ffffffffffffffffffffffffffffffffffffffff1673ffffffffffffffffffffffffffffffffffffffff1681526020019081526020016000209050828281518110610c3957610c38613929565b5b60200260200101518160000181905550610c8d7f0000000000000000000000000000000000000000000000000000000000000000858481518110610c8057610c7f613929565b5b6020026020010151611edb565b505b8080610c9a906134c3565b915050610b5c565b503073ffffffffffffffffffffffffffffffffffffffff167ff4195914bd1a75ff318a3e75d2111a80cc0a9a8375aea50e407aec30082ea0e3604051610ce790613b42565b60405180910390a25050565b606060025467ffffffffffffffff811115610d1157610d10612796565b5b604051908082528060200260200182016040528015610d4a57816020015b610d3761252b565b815260200190600190039081610d2f5790505b50905060005b6002548110156110a85760056000828152602001908152602001600020604051806101c001604052908160008201548152602001600182018054610d939061353a565b80601f0160208091040260200160405190810160405280929190818152602001828054610dbf9061353a565b8015610e0c5780601f10610de157610100808354040283529160200191610e0c565b820191906000526020600020905b815481529060010190602001808311610def57829003601f168201915b50505050508152602001600282018054610e259061353a565b80601f0160208091040260200160405190810160405280929190818152602001828054610e519061353a565b8015610e9e5780601f10610e7357610100808354040283529160200191610e9e565b820191906000526020600020905b815481529060010190602001808311610e8157829003601f168201915b50505050508152602001600382015481526020016004820160009054906101000a900473ffffffffffffffffffffffffffffffffffffffff1673ffffffffffffffffffffffffffffffffffffffff1673ffffffffffffffffffffffffffffffffffffffff168152602001600582015481526020016006820160009054906101000a900460ff1615151515815260200160078201548152602001600882015481526020016009820160009054906101000a900460ff16151515158152602001600a8201805480602002602001604051908101604052809291908181526020018280548015610fe057602002820191906000526020600020905b8160009054906101000a900473ffffffffffffffffffffffffffffffffffffffff1673ffffffffffffffffffffffffffffffffffffffff1681526020019060010190808311610f96575b50505050508152602001600b820180548060200260200160405190810160405280929190818152602001828054801561103857602002820191906000526020600020905b815481526020019060010190808311611024575b50505050508152602001600c820160009054906101000a900460ff16151515158152602001600c820160019054906101000a900460ff16151515158152505082828151811061108a57611089613929565b5b602002602001018190525080806110a0906134c3565b915050610d50565b5090565b60006001600084815260200190815260200160002060000160008373ffffffffffffffffffffffffffffffffffffffff1673ffffffffffffffffffffffffffffffffffffffff16815260200190815260200160002060009054906101000a900460ff16905092915050565b6000801b81565b6111487f0000000000000000000000000000000000000000000000000000000000000000336110ac565b611187576040517f08c379a000000000000000000000000000000000000000000000000000000000815260040161117e90613474565b60405180910390fd5b60006006600084815260200190815260200160002090506111dd816040518060400160405280600581526020017f61646d696e000000000000000000000000000000000000000000000000000000815250611ee9565b8060030160008154809291906111f2906134c3565b91905055506001820361121e57806007016000815480929190611214906134c3565b9190505550611239565b806008016000815480929190611233906134c3565b91905055505b600860003373ffffffffffffffffffffffffffffffffffffffff1673ffffffffffffffffffffffffffffffffffffffff1681526020019081526020016000208390806001815401808255809150506001900390600052602060002001600090919091909150553373ffffffffffffffffffffffffffffffffffffffff167ff4195914bd1a75ff318a3e75d2111a80cc0a9a8375aea50e407aec30082ea0e37f00000000000000000000000000000000000000000000000000000000000000006040516113059190613aa2565b60405180910390a2505050565b61131a61252b565b60056000838152602001908152602001600020604051806101c0016040529081600082015481526020016001820180546113539061353a565b80601f016020809104026020016040519081016040528092919081815260200182805461137f9061353a565b80156113cc5780601f106113a1576101008083540402835291602001916113cc565b820191906000526020600020905b8154815290600101906020018083116113af57829003601f168201915b505050505081526020016002820180546113e59061353a565b80601f01602080910402602001604051908101604052809291908181526020018280546114119061353a565b801561145e5780601f106114335761010080835404028352916020019161145e565b820191906000526020600020905b81548152906001019060200180831161144157829003601f168201915b50505050508152602001600382015481526020016004820160009054906101000a900473ffffffffffffffffffffffffffffffffffffffff1673ffffffffffffffffffffffffffffffffffffffff1673ffffffffffffffffffffffffffffffffffffffff168152602001600582015481526020016006820160009054906101000a900460ff1615151515815260200160078201548152602001600882015481526020016009820160009054906101000a900460ff16151515158152602001600a82018054806020026020016040519081016040528092919081815260200182805480156115a057602002820191906000526020600020905b8160009054906101000a900473ffffffffffffffffffffffffffffffffffffffff1673ffffffffffffffffffffffffffffffffffffffff1681526020019060010190808311611556575b50505050508152602001600b82018054806020026020016040519081016040528092919081815260200182805480156115f857602002820191906000526020600020905b8154815260200190600101908083116115e4575b50505050508152602001600c820160009054906101000a900460ff16151515158152602001600c820160019054906101000a900460ff1615151515815250509050919050565b6116478261060d565b61165081611cfd565b61165a8383611df9565b505050565b600080600a60003373ffffffffffffffffffffffffffffffffffffffff1673ffffffffffffffffffffffffffffffffffffffff1681526020019081526020016000206000015411905090565b6116d57f000000000000000000000000000000000000000000000000000000000000000082611edb565b6116ff7f000000000000000000000000000000000000000000000000000000000000000082611edb565b50565b61170a61252b565b6117347f0000000000000000000000000000000000000000000000000000000000000000336110ac565b611773576040517f08c379a000000000000000000000000000000000000000000000000000000000815260040161176a90613474565b60405180910390fd5b600060036000815480929190611788906134c3565b9190505590506000600660008381526020019081526020016000209050818160000181905550338160040160006101000a81548173ffffffffffffffffffffffffffffffffffffffff021916908373ffffffffffffffffffffffffffffffffffffffff160217905550888160010190816118029190613717565b506040518060400160405280600b81526020017f61646d696e20766f7465730000000000000000000000000000000000000000008152508160020190816118499190613717565b50874261185691906137e9565b81600501819055508681600a0190805190602001906118769291906125b8565b50848160090160006101000a81548160ff0219169083151502179055508381600c0160006101000a81548160ff0219169083151502179055506000816003018190555060008160080181905550600081600701819055508581600b0190805190602001906118e5929190612642565b5050509695505050505050565b61191c7f0000000000000000000000000000000000000000000000000000000000000000336110ac565b61195b576040517f08c379a000000000000000000000000000000000000000000000000000000000815260040161195290613474565b60405180910390fd5b6119636121e4565b600060066000838152602001908152602001600020905080600c0160019054906101000a900460ff16156119cc576040517f08c379a00000000000000000000000000000000000000000000000000000000081526004016119c390613bba565b60405180910390fd5b806007015481600801541115611a17576040517f08c379a0000000000000000000000000000000000000000000000000000000008152600401611a0e90613c26565b60405180910390fd5b80600c0160009054906101000a900460ff1615611b6e578060090160009054906101000a900460ff1615611b2e57611b2981600a01805480602002602001604051908101604052809291908181526020018280548015611acc57602002820191906000526020600020905b8160009054906101000a900473ffffffffffffffffffffffffffffffffffffffff1673ffffffffffffffffffffffffffffffffffffffff1681526020019060010190808311611a82575b505050505082600b01805480602002602001604051908101604052809291908181526020018280548015611b1f57602002820191906000526020600020905b815481526020019060010190808311611b0b575b5050505050610b59565b611b69565b6040517f08c379a0000000000000000000000000000000000000000000000000000000008152600401611b6090613c92565b60405180910390fd5b611c81565b8060090160009054906101000a900460ff1615611c805760005b81600a0180549050811015611c7e57611c017f000000000000000000000000000000000000000000000000000000000000000083600a018381548110611bd157611bd0613929565b5b9060005260206000200160009054906101000a900473ffffffffffffffffffffffffffffffffffffffff16611edb565b611c6b7f000000000000000000000000000000000000000000000000000000000000000083600a018381548110611c3b57611c3a613929565b5b9060005260206000200160009054906101000a900473ffffffffffffffffffffffffffffffffffffffff16611edb565b8080611c76906134c3565b915050611b88565b505b5b50611c8a612233565b50565b60025481565b60007f01ffc9a7000000000000000000000000000000000000000000000000000000007bffffffffffffffffffffffffffffffffffffffffffffffffffffffff1916827bffffffffffffffffffffffffffffffffffffffffffffffffffffffff1916149050919050565b611d0e81611d09611df1565b61223d565b50565b611d1b82826110ac565b611ded57600180600084815260200190815260200160002060000160008373ffffffffffffffffffffffffffffffffffffffff1673ffffffffffffffffffffffffffffffffffffffff16815260200190815260200160002060006101000a81548160ff021916908315150217905550611d92611df1565b73ffffffffffffffffffffffffffffffffffffffff168173ffffffffffffffffffffffffffffffffffffffff16837f2f8788117e7eff1d82e926ec794901d17c78024a50270940304540a733656f0d60405160405180910390a45b5050565b600033905090565b611e0382826110ac565b15611ed75760006001600084815260200190815260200160002060000160008373ffffffffffffffffffffffffffffffffffffffff1673ffffffffffffffffffffffffffffffffffffffff16815260200190815260200160002060006101000a81548160ff021916908315150217905550611e7c611df1565b73ffffffffffffffffffffffffffffffffffffffff168173ffffffffffffffffffffffffffffffffffffffff16837ff6391f5c32d9c69d2a47ea670b442974b53935d1edc7fd64eb21e047a839171b60405160405180910390a45b5050565b611ee58282611d11565b5050565b8160060160009054906101000a900460ff1680611f0a575042826005015411155b15611f675760018260060160006101000a81548160ff0219169083151502179055506040517f08c379a0000000000000000000000000000000000000000000000000000000008152600401611f5e90613cfe565b60405180910390fd5b7ff23ec0bb4210edd5cba85afd05127efcd2fc6a781bfed49188da1081670b22d881604051602001611f999190613d5a565b60405160208183030381529060405280519060200120036120cc576000600860003373ffffffffffffffffffffffffffffffffffffffff1673ffffffffffffffffffffffffffffffffffffffff16815260200190815260200160002080548060200260200160405190810160405280929190818152602001828054801561203f57602002820191906000526020600020905b81548152602001906001019080831161202b575b5050505050905060005b81518110156120c55781818151811061206557612064613929565b5b60200260200101518460000154036120b2576040517f08c379a00000000000000000000000000000000000000000000000000000000081526004016120a990613dbd565b60405180910390fd5b80806120bd906134c3565b915050612049565b50506121e0565b6000600760003373ffffffffffffffffffffffffffffffffffffffff1673ffffffffffffffffffffffffffffffffffffffff16815260200190815260200160002080548060200260200160405190810160405280929190818152602001828054801561215757602002820191906000526020600020905b815481526020019060010190808311612143575b5050505050905060005b81518110156121dd5781818151811061217d5761217c613929565b5b60200260200101518460000154036121ca576040517f08c379a00000000000000000000000000000000000000000000000000000000081526004016121c190613dbd565b60405180910390fd5b80806121d5906134c3565b915050612161565b50505b5050565b600260005403612229576040517f08c379a000000000000000000000000000000000000000000000000000000000815260040161222090613e29565b60405180910390fd5b6002600081905550565b6001600081905550565b61224782826110ac565b6122be57612254816122c2565b6122628360001c60206122ef565b604051602001612273929190613ee1565b6040516020818303038152906040526040517f08c379a00000000000000000000000000000000000000000000000000000000081526004016122b59190613f54565b60405180910390fd5b5050565b60606122e88273ffffffffffffffffffffffffffffffffffffffff16601460ff166122ef565b9050919050565b6060600060028360026123029190613f76565b61230c91906137e9565b67ffffffffffffffff81111561232557612324612796565b5b6040519080825280601f01601f1916602001820160405280156123575781602001600182028036833780820191505090505b5090507f30000000000000000000000000000000000000000000000000000000000000008160008151811061238f5761238e613929565b5b60200101907effffffffffffffffffffffffffffffffffffffffffffffffffffffffffffff1916908160001a9053507f7800000000000000000000000000000000000000000000000000000000000000816001815181106123f3576123f2613929565b5b60200101907effffffffffffffffffffffffffffffffffffffffffffffffffffffffffffff1916908160001a905350600060018460026124339190613f76565b61243d91906137e9565b90505b60018111156124dd577f3031323334353637383961626364656600000000000000000000000000000000600f86166010811061247f5761247e613929565b5b1a60f81b82828151811061249657612495613929565b5b60200101907effffffffffffffffffffffffffffffffffffffffffffffffffffffffffffff1916908160001a905350600485901c9450806124d690613fb8565b9050612440565b5060008414612521576040517f08c379a00000000000000000000000000000000000000000000000000000000081526004016125189061402d565b60405180910390fd5b8091505092915050565b604051806101c0016040528060008152602001606081526020016060815260200160008152602001600073ffffffffffffffffffffffffffffffffffffffff16815260200160008152602001600015158152602001600081526020016000815260200160001515815260200160608152602001606081526020016000151581526020016000151581525090565b828054828255906000526020600020908101928215612631579160200282015b828111156126305782518260006101000a81548173ffffffffffffffffffffffffffffffffffffffff021916908373ffffffffffffffffffffffffffffffffffffffff160217905550916020019190600101906125d8565b5b50905061263e919061268f565b5090565b82805482825590600052602060002090810192821561267e579160200282015b8281111561267d578251825591602001919060010190612662565b5b50905061268b919061268f565b5090565b5b808211156126a8576000816000905550600101612690565b5090565b6000604051905090565b600080fd5b600080fd5b60007fffffffff0000000000000000000000000000000000000000000000000000000082169050919050565b6126f5816126c0565b811461270057600080fd5b50565b600081359050612712816126ec565b92915050565b60006020828403121561272e5761272d6126b6565b5b600061273c84828501612703565b91505092915050565b60008115159050919050565b61275a81612745565b82525050565b60006020820190506127756000830184612751565b92915050565b600080fd5b600080fd5b6000601f19601f8301169050919050565b7f4e487b7100000000000000000000000000000000000000000000000000000000600052604160045260246000fd5b6127ce82612785565b810181811067ffffffffffffffff821117156127ed576127ec612796565b5b80604052505050565b60006128006126ac565b905061280c82826127c5565b919050565b600067ffffffffffffffff82111561282c5761282b612796565b5b61283582612785565b9050602081019050919050565b82818337600083830152505050565b600061286461285f84612811565b6127f6565b9050828152602081018484840111156128805761287f612780565b5b61288b848285612842565b509392505050565b600082601f8301126128a8576128a761277b565b5b81356128b8848260208601612851565b91505092915050565b6000819050919050565b6128d4816128c1565b81146128df57600080fd5b50565b6000813590506128f1816128cb565b92915050565b6000806000606084860312156129105761290f6126b6565b5b600084013567ffffffffffffffff81111561292e5761292d6126bb565b5b61293a86828701612893565b935050602084013567ffffffffffffffff81111561295b5761295a6126bb565b5b61296786828701612893565b9250506040612978868287016128e2565b9150509250925092565b61298b816128c1565b82525050565b600081519050919050565b600082825260208201905092915050565b60005b838110156129cb5780820151818401526020810190506129b0565b60008484015250505050565b60006129e282612991565b6129ec818561299c565b93506129fc8185602086016129ad565b612a0581612785565b840191505092915050565b600073ffffffffffffffffffffffffffffffffffffffff82169050919050565b6000612a3b82612a10565b9050919050565b612a4b81612a30565b82525050565b612a5a81612745565b82525050565b600081519050919050565b600082825260208201905092915050565b6000819050602082019050919050565b6000612a988383612a42565b60208301905092915050565b6000602082019050919050565b6000612abc82612a60565b612ac68185612a6b565b9350612ad183612a7c565b8060005b83811015612b02578151612ae98882612a8c565b9750612af483612aa4565b925050600181019050612ad5565b5085935050505092915050565b600081519050919050565b600082825260208201905092915050565b6000819050602082019050919050565b6000612b478383612982565b60208301905092915050565b6000602082019050919050565b6000612b6b82612b0f565b612b758185612b1a565b9350612b8083612b2b565b8060005b83811015612bb1578151612b988882612b3b565b9750612ba383612b53565b925050600181019050612b84565b5085935050505092915050565b60006101c083016000830151612bd76000860182612982565b5060208301518482036020860152612bef82826129d7565b91505060408301518482036040860152612c0982826129d7565b9150506060830151612c1e6060860182612982565b506080830151612c316080860182612a42565b5060a0830151612c4460a0860182612982565b5060c0830151612c5760c0860182612a51565b5060e0830151612c6a60e0860182612982565b50610100830151612c7f610100860182612982565b50610120830151612c94610120860182612a51565b50610140830151848203610140860152612cae8282612ab1565b915050610160830151848203610160860152612cca8282612b60565b915050610180830151612ce1610180860182612a51565b506101a0830151612cf66101a0860182612a51565b508091505092915050565b60006020820190508181036000830152612d1b8184612bbe565b905092915050565b612d2c816128c1565b82525050565b6000602082019050612d476000830184612d23565b92915050565b6000819050919050565b612d6081612d4d565b8114612d6b57600080fd5b50565b600081359050612d7d81612d57565b92915050565b600060208284031215612d9957612d986126b6565b5b6000612da784828501612d6e565b91505092915050565b612db981612d4d565b82525050565b6000602082019050612dd46000830184612db0565b92915050565b612de381612a30565b8114612dee57600080fd5b50565b600081359050612e0081612dda565b92915050565b60008060408385031215612e1d57612e1c6126b6565b5b6000612e2b85828601612d6e565b9250506020612e3c85828601612df1565b9150509250929050565b60008060408385031215612e5d57612e5c6126b6565b5b6000612e6b858286016128e2565b9250506020612e7c858286016128e2565b9150509250929050565b600067ffffffffffffffff821115612ea157612ea0612796565b5b602082029050602081019050919050565b600080fd5b6000612eca612ec584612e86565b6127f6565b90508083825260208201905060208402830185811115612eed57612eec612eb2565b5b835b81811015612f165780612f028882612df1565b845260208401935050602081019050612eef565b5050509392505050565b600082601f830112612f3557612f3461277b565b5b8135612f45848260208601612eb7565b91505092915050565b600067ffffffffffffffff821115612f6957612f68612796565b5b602082029050602081019050919050565b6000612f8d612f8884612f4e565b6127f6565b90508083825260208201905060208402830185811115612fb057612faf612eb2565b5b835b81811015612fd95780612fc588826128e2565b845260208401935050602081019050612fb2565b5050509392505050565b600082601f830112612ff857612ff761277b565b5b8135613008848260208601612f7a565b91505092915050565b60008060408385031215613028576130276126b6565b5b600083013567ffffffffffffffff811115613046576130456126bb565b5b61305285828601612f20565b925050602083013567ffffffffffffffff811115613073576130726126bb565b5b61307f85828601612fe3565b9150509250929050565b600081519050919050565b600082825260208201905092915050565b6000819050602082019050919050565b60006101c0830160008301516130ce6000860182612982565b50602083015184820360208601526130e682826129d7565b9150506040830151848203604086015261310082826129d7565b91505060608301516131156060860182612982565b5060808301516131286080860182612a42565b5060a083015161313b60a0860182612982565b5060c083015161314e60c0860182612a51565b5060e083015161316160e0860182612982565b50610100830151613176610100860182612982565b5061012083015161318b610120860182612a51565b506101408301518482036101408601526131a58282612ab1565b9150506101608301518482036101608601526131c18282612b60565b9150506101808301516131d8610180860182612a51565b506101a08301516131ed6101a0860182612a51565b508091505092915050565b600061320483836130b5565b905092915050565b6000602082019050919050565b600061322482613089565b61322e8185613094565b935083602082028501613240856130a5565b8060005b8581101561327c578484038952815161325d85826131f8565b94506132688361320c565b925060208a01995050600181019050613244565b50829750879550505050505092915050565b600060208201905081810360008301526132a88184613219565b905092915050565b6000602082840312156132c6576132c56126b6565b5b60006132d4848285016128e2565b91505092915050565b6000602082840312156132f3576132f26126b6565b5b600061330184828501612df1565b91505092915050565b61331381612745565b811461331e57600080fd5b50565b6000813590506133308161330a565b92915050565b60008060008060008060c08789031215613353576133526126b6565b5b600087013567ffffffffffffffff811115613371576133706126bb565b5b61337d89828a01612893565b965050602061338e89828a016128e2565b955050604087013567ffffffffffffffff8111156133af576133ae6126bb565b5b6133bb89828a01612f20565b945050606087013567ffffffffffffffff8111156133dc576133db6126bb565b5b6133e889828a01612fe3565b93505060806133f989828a01613321565b92505060a061340a89828a01613321565b9150509295509295509295565b600082825260208201905092915050565b7f556e617574686f72697a6564203a206f6e6c7920666f722061646d696e000000600082015250565b600061345e601d83613417565b915061346982613428565b602082019050919050565b6000602082019050818103600083015261348d81613451565b9050919050565b7f4e487b7100000000000000000000000000000000000000000000000000000000600052601160045260246000fd5b60006134ce826128c1565b91507fffffffffffffffffffffffffffffffffffffffffffffffffffffffffffffffff8203613500576134ff613494565b5b600182019050919050565b7f4e487b7100000000000000000000000000000000000000000000000000000000600052602260045260246000fd5b6000600282049050600182168061355257607f821691505b6020821081036135655761356461350b565b5b50919050565b60008190508160005260206000209050919050565b60006020601f8301049050919050565b600082821b905092915050565b6000600883026135cd7fffffffffffffffffffffffffffffffffffffffffffffffffffffffffffffffff82613590565b6135d78683613590565b95508019841693508086168417925050509392505050565b6000819050919050565b600061361461360f61360a846128c1565b6135ef565b6128c1565b9050919050565b6000819050919050565b61362e836135f9565b61364261363a8261361b565b84845461359d565b825550505050565b600090565b61365761364a565b613662818484613625565b505050565b5b818110156136865761367b60008261364f565b600181019050613668565b5050565b601f8211156136cb5761369c8161356b565b6136a584613580565b810160208510156136b4578190505b6136c86136c085613580565b830182613667565b50505b505050565b600082821c905092915050565b60006136ee600019846008026136d0565b1980831691505092915050565b600061370783836136dd565b9150826002028217905092915050565b61372082612991565b67ffffffffffffffff81111561373957613738612796565b5b613743825461353a565b61374e82828561368a565b600060209050601f831160018114613781576000841561376f578287015190505b61377985826136fb565b8655506137e1565b601f19841661378f8661356b565b60005b828110156137b757848901518255600182019150602085019450602081019050613792565b868310156137d457848901516137d0601f8916826136dd565b8355505b6001600288020188555050505b505050505050565b60006137f4826128c1565b91506137ff836128c1565b925082820190508082111561381757613816613494565b5b92915050565b7f50726f706f73616c207261697365640000000000000000000000000000000000600082015250565b6000613853600f83613417565b915061385e8261381d565b602082019050919050565b600060408201905061387e6000830184612db0565b818103602083015261388f81613846565b905092915050565b7f416363657373436f6e74726f6c3a2063616e206f6e6c792072656e6f756e636560008201527f20726f6c657320666f722073656c660000000000000000000000000000000000602082015250565b60006138f3602f83613417565b91506138fe82613897565b604082019050919050565b60006020820190508181036000830152613922816138e6565b9050919050565b7f4e487b7100000000000000000000000000000000000000000000000000000000600052603260045260246000fd5b7f616374696f6e20616c726561647920706572666f726d65640000000000000000600082015250565b600061398e601883613417565b915061399982613958565b602082019050919050565b600060208201905081810360008301526139bd81613981565b9050919050565b7f556e617574686f72697a6564203a206f6e6c7920666f722070656f706c65206560008201527f6e726f6c6c656420696e207468697320696e737469747574696f6e0000000000602082015250565b6000613a20603b83613417565b9150613a2b826139c4565b604082019050919050565b60006020820190508181036000830152613a4f81613a13565b9050919050565b7f766f746564000000000000000000000000000000000000000000000000000000600082015250565b6000613a8c600583613417565b9150613a9782613a56565b602082019050919050565b6000604082019050613ab76000830184612db0565b8181036020830152613ac881613a7f565b905092915050565b7f41444d494e5f524f4c4500000000000000000000000000000000000000000000815250565b7f416464726573736573206164646564207375636365737366756c6c7900000000600082015250565b6000613b2c601c83613417565b9150613b3782613af6565b602082019050919050565b6000604082019050613b5660008301613ad0565b8181036020830152613b6781613b1f565b9050919050565b7f416374696f6e20616c726561647920706572666f726d65640000000000000000600082015250565b6000613ba4601883613417565b9150613baf82613b6e565b602082019050919050565b60006020820190508181036000830152613bd381613b97565b9050919050565b7f496e73756666696369656e7420766f7465730000000000000000000000000000600082015250565b6000613c10601283613417565b9150613c1b82613bda565b602082019050919050565b60006020820190508181036000830152613c3f81613c03565b9050919050565b7f436f6d696e6720736f6f6e000000000000000000000000000000000000000000600082015250565b6000613c7c600b83613417565b9150613c8782613c46565b602082019050919050565b60006020820190508181036000830152613cab81613c6f565b9050919050565b7f50726f706f73616c206861732065787069726564000000000000000000000000600082015250565b6000613ce8601483613417565b9150613cf382613cb2565b602082019050919050565b60006020820190508181036000830152613d1781613cdb565b9050919050565b600081905092915050565b6000613d3482612991565b613d3e8185613d1e565b9350613d4e8185602086016129ad565b80840191505092915050565b6000613d668284613d29565b915081905092915050565b7f596f75206861766520616c726561647920766f74656400000000000000000000600082015250565b6000613da7601683613417565b9150613db282613d71565b602082019050919050565b60006020820190508181036000830152613dd681613d9a565b9050919050565b7f5265656e7472616e637947756172643a207265656e7472616e742063616c6c00600082015250565b6000613e13601f83613417565b9150613e1e82613ddd565b602082019050919050565b60006020820190508181036000830152613e4281613e06565b9050919050565b7f416363657373436f6e74726f6c3a206163636f756e7420000000000000000000600082015250565b6000613e7f601783613d1e565b9150613e8a82613e49565b601782019050919050565b7f206973206d697373696e6720726f6c6520000000000000000000000000000000600082015250565b6000613ecb601183613d1e565b9150613ed682613e95565b601182019050919050565b6000613eec82613e72565b9150613ef88285613d29565b9150613f0382613ebe565b9150613f0f8284613d29565b91508190509392505050565b6000613f2682612991565b613f308185613417565b9350613f408185602086016129ad565b613f4981612785565b840191505092915050565b60006020820190508181036000830152613f6e8184613f1b565b905092915050565b6000613f81826128c1565b9150613f8c836128c1565b9250828202613f9a816128c1565b91508282048414831517613fb157613fb0613494565b5b5092915050565b6000613fc3826128c1565b915060008203613fd657613fd5613494565b5b600182039050919050565b7f537472696e67733a20686578206c656e67746820696e73756666696369656e74600082015250565b6000614017602083613417565b915061402282613fe1565b602082019050919050565b600060208201905081810360008301526140468161400a565b905091905056fea26469706673582212200fb183bb6ba625644f1d68de7ce97715e0dbbca7cbac9b7895c901c81cd34c4064736f6c63430008110033",
  "immutableReferences": {
    "1553": [
      {
        "length": 32,
        "start": 1112
      },
      {
        "length": 32,
        "start": 1482
      },
      {
        "length": 32,
        "start": 1793
      },
      {
        "length": 32,
        "start": 4387
      },
      {
        "length": 32,
        "start": 4825
      },
      {
        "length": 32,
        "start": 5808
      },
      {
        "length": 32,
        "start": 5903
      },
      {
        "length": 32,
        "start": 6391
      },
      {
        "length": 32,
        "start": 7068
      }
    ],
    "1558": [
      {
        "length": 32,
        "start": 1897
      },
      {
        "length": 32,
        "start": 2114
      },
      {
        "length": 32,
        "start": 2847
      },
      {
        "length": 32,
        "start": 3150
      },
      {
        "length": 32,
        "start": 5850
      },
      {
        "length": 32,
        "start": 7174
      }
    ]
  },
  "source": "// SPDX-License-Identifier: MIT\npragma solidity ^0.8.7;\n\nimport \"@openzeppelin/contracts/security/ReentrancyGuard.sol\";\nimport \"@openzeppelin/contracts/access/AccessControl.sol\";\n\ncontract UniDAO is ReentrancyGuard, AccessControl {\n    bytes32 private immutable ADMIN_ROLE = keccak256(\"ADMIN\");\n    bytes32 private immutable VOTER_ROLE = keccak256(\"VOTER\");\n\n    uint256 public totalProposal;\n    uint256 public admProposals;\n    uint32 immutable MIN_VOTE_DURATION = 5 minutes;\n\n    address[] adminAddresses;\n\n    mapping(uint256 => ProposalStruct) private raisedProposals;\n    mapping(uint256 => ProposalStruct) private changeAdminProposals;\n    \n    mapping(address => uint256[]) private VoterVotes;\n    mapping(address => uint256[]) private AdminVotes;\n    mapping(uint256 => VotedStruct[]) private VotedOn;\n    mapping(address => VoterStruct) private enrolled;\n\n    bool inittime = true; \n\n    //structs\n    struct ProposalStruct {\n        uint256 proposalId;\n        string title;\n        string description;\n        uint256 reactions;\n        address proposer;\n        uint256 duration;\n        bool passed;\n        uint256 upvotes;\n        uint256 downvotes;\n        bool enrol;\n        address[] change;\n        uint256[] power;\n        bool voter;\n        bool action;\n    }\n\n    struct VotedStruct {\n        address voter;\n        uint256 timestamp;\n        uint256 choosen;\n        uint256 power;\n    }\n\n    struct VoterStruct {\n        uint256 power;\n    }\n\n    //events\n    event Action(address indexed initiator, bytes32 role, string message);\n\n    constructor(address[] memory addr) public {\n        for (uint256 i = 0; i < addr.length; i++) {\n            adminAddresses.push(addr[i]);\n        }\n    }\n\n    //modifiers\n\n    modifier AdminOnly() {\n        require(\n            hasRole(ADMIN_ROLE, msg.sender),\n            \"Unauthorized : only for admin\"\n        );\n        _;\n    }\n\n    modifier VoterOnly() {\n        require(\n            hasRole(VOTER_ROLE, msg.sender),\n            \"Unauthorized : only for people enrolled in this institution\"\n        );\n        _;\n    }\n\n    //admin actions\n\n\n    //                     SET ADMIN ROLE\n\n    //set roles for addressed passed through constructor\n    function setAdminRole() public {\n        if(inittime==true){\n            for (uint256 i = 0; i < adminAddresses.length; i++) {\n            _setupRole(ADMIN_ROLE, adminAddresses[i]);\n            _setupRole(VOTER_ROLE, adminAddresses[i]);\n        }\n        inittime=false;\n        }else revert(\"action already performed\");\n        \n    }\n\n    //add new admin\n    function setnewAdmin(address addr) public {\n        _setupRole(ADMIN_ROLE, addr);\n        _setupRole(VOTER_ROLE, addr);\n    }\n\n    //proposal and related functions\n\n    function createProposal(\n        string memory _title,\n        string memory _description,\n        uint256 _duration\n    ) external AdminOnly returns (ProposalStruct memory) {\n        uint256 _proposalId = totalProposal++;\n        ProposalStruct storage proposal = raisedProposals[_proposalId];\n\n        proposal.proposalId = _proposalId;\n        proposal.proposer = msg.sender;\n        proposal.title = _title;\n        proposal.description = _description;\n        proposal.duration = block.timestamp + _duration;\n        proposal.reactions = 0;\n        proposal.downvotes = 0;\n        proposal.upvotes = 0;\n\n        emit Action(msg.sender, ADMIN_ROLE, \"Proposal raised\");\n    }\n\n\n// admin proposal : entrol : true ---> to enroll new address : false ---> delete ::: voter : true ----> enrol or delete a voter : false ---> enrol or delete admin\n\n    function createAdminProposal (string memory _title,uint256 _duration,address[] memory addresses,uint256[] memory _power,bool _enrol , bool _voter) public \n    AdminOnly returns (ProposalStruct memory){\n        uint256 _admProposals = admProposals++;\n        ProposalStruct storage proposal =  changeAdminProposals[_admProposals];\n\n        proposal.proposalId = _admProposals;\n        proposal.proposer = msg.sender;\n        proposal.title = _title;\n        proposal.description=\"admin votes\";\n        proposal.duration=block.timestamp + _duration;\n        proposal.change = addresses;\n        proposal.enrol=_enrol;\n        proposal.voter=_voter;\n        proposal.reactions = 0;\n        proposal.downvotes = 0;\n        proposal.upvotes = 0;\n        proposal.power=_power;\n    }\n\n    function performAdminVote  (uint256 _proposalId, uint256 choosen) AdminOnly public{\n        ProposalStruct storage proposal = changeAdminProposals[_proposalId];\n         handleVoting(proposal,\"admin\");\n        proposal.reactions++;\n        if (choosen == 1) proposal.upvotes ++;\n        else proposal.downvotes ++;\n\n        AdminVotes[msg.sender].push(_proposalId);\n\n        emit Action(msg.sender, ADMIN_ROLE, \"voted\");\n    }\n\n\n\n\n\n    function performVote(uint256 _proposalId, uint256 choosen)\n        public\n        VoterOnly\n    {\n        ProposalStruct storage proposal = raisedProposals[_proposalId];\n        handleVoting(proposal,\"voter\");\n        uint256 _power = enrolled[msg.sender].power;\n        proposal.reactions++;\n        if (choosen == 1) proposal.upvotes += _power;\n        else proposal.downvotes += _power;\n\n        VoterVotes[msg.sender].push(_proposalId);\n\n        VotedOn[proposal.proposalId].push(\n            VotedStruct(payable(msg.sender), block.timestamp, choosen, _power)\n        );\n\n        emit Action(msg.sender, VOTER_ROLE, \"voted\");\n    }\n\n    function handleVoting(ProposalStruct storage proposal,string memory adm) private {\n        if (proposal.passed || proposal.duration <= block.timestamp) {\n            proposal.passed = true;\n            revert(\"Proposal has expired\");\n        }\n            if(keccak256(abi.encodePacked(adm))==keccak256(\"admin\")){\n\n                uint256[] memory tempVotes = AdminVotes[msg.sender];\n        for (uint256 votes = 0; votes < tempVotes.length; votes++) {\n            if (proposal.proposalId == tempVotes[votes]) {\n                revert(\"You have already voted\");\n            }\n        }\n            }else{\n                        uint256[] memory tempVotes = VoterVotes[msg.sender];\n        for (uint256 votes = 0; votes < tempVotes.length; votes++) {\n            if (proposal.proposalId == tempVotes[votes]) {\n                revert(\"You have already voted\");\n            }\n        }\n            }\n        \n    }\n\n    function getProposals()\n        public\n        view\n        returns (ProposalStruct[] memory props)\n    {\n        props = new ProposalStruct[](totalProposal);\n\n        for (uint256 i = 0; i < totalProposal; i++) {\n            props[i] = raisedProposals[i];\n        }\n    }\n\n    function getProposal(uint256 _proposalId)\n        public\n        view\n        returns (ProposalStruct memory)\n    {\n        return raisedProposals[_proposalId];\n    }\n\n    function isVoter() public view returns (bool) {\n        return enrolled[msg.sender].power > 0;\n    }\n\n\nfunction performAction (uint256 _proposalId) public AdminOnly nonReentrant  {\n    ProposalStruct storage proposal = changeAdminProposals[_proposalId];\n    if(proposal.action)revert(\"Action already performed\");\n    if(proposal.downvotes>proposal.upvotes)revert(\"Insufficient votes\");\n\n    if(proposal.voter){\n        if(proposal.enrol){\n                enrollVoters(proposal.change,proposal.power);\n        }else revert(\"Coming soon\");\n    }\n    else{\n        if(proposal.enrol){\n            for (uint256 i = 0; i < proposal.change.length; i++) {\n            _setupRole(ADMIN_ROLE, proposal.change[i]);\n            _setupRole(VOTER_ROLE, proposal.change[i]);\n        }\n        }\n    }\n}\n\n\n    //  enroll new voters\n\n    function enrollVoters(address[] memory addresses, uint256[] memory _power)\n        public\n    {\n\n        for (uint256 i = 0; i < addresses.length; i++) {\n            if (enrolled[addresses[i]].power > 0) {\n                continue;\n            }\n            VoterStruct storage voter = enrolled[addresses[i]];\n            voter.power = _power[i];\n            _setupRole(VOTER_ROLE, addresses[i]);\n        }\n\n        emit Action(\n            address(this),\n            \"ADMIN_ROLE\",\n            \"Addresses added successfully\"\n        );\n    }\n}\n\n\n",
  "sourcePath": "/home/vishnu/Vishnu/Ibeto/UniDAO/contracts/UniDAO.sol",
  "compiler": {
    "name": "solc",
    "version": "0.8.17+commit.8df45f5f.Emscripten.clang"
  },
  "schemaVersion": "3.4.11",
  "updatedAt": "2023-02-09T10:29:15.332Z",
  "networkType": "ethereum",
  "devdoc": {
    "kind": "dev",
    "methods": {
      "getRoleAdmin(bytes32)": {
        "details": "Returns the admin role that controls `role`. See {grantRole} and {revokeRole}. To change a role's admin, use {_setRoleAdmin}."
      },
      "grantRole(bytes32,address)": {
        "details": "Grants `role` to `account`. If `account` had not been already granted `role`, emits a {RoleGranted} event. Requirements: - the caller must have ``role``'s admin role. May emit a {RoleGranted} event."
      },
      "hasRole(bytes32,address)": {
        "details": "Returns `true` if `account` has been granted `role`."
      },
      "renounceRole(bytes32,address)": {
        "details": "Revokes `role` from the calling account. Roles are often managed via {grantRole} and {revokeRole}: this function's purpose is to provide a mechanism for accounts to lose their privileges if they are compromised (such as when a trusted device is misplaced). If the calling account had been revoked `role`, emits a {RoleRevoked} event. Requirements: - the caller must be `account`. May emit a {RoleRevoked} event."
      },
      "revokeRole(bytes32,address)": {
        "details": "Revokes `role` from `account`. If `account` had been granted `role`, emits a {RoleRevoked} event. Requirements: - the caller must have ``role``'s admin role. May emit a {RoleRevoked} event."
      },
      "supportsInterface(bytes4)": {
        "details": "See {IERC165-supportsInterface}."
      }
    },
    "version": 1
  },
  "userdoc": {
    "kind": "user",
    "methods": {},
    "version": 1
  }
}